{
  "contractName": "Asignatura",
  "abi": [
    {
      "inputs": [
        {
          "internalType": "string",
          "name": "_nombre",
          "type": "string"
        },
        {
          "internalType": "string",
          "name": "_curso",
          "type": "string"
        }
      ],
      "stateMutability": "nonpayable",
      "type": "constructor"
    },
    {
      "inputs": [
        {
          "internalType": "address",
          "name": "",
          "type": "address"
        },
        {
          "internalType": "uint256",
          "name": "",
          "type": "uint256"
        }
      ],
      "name": "calificaciones",
      "outputs": [
        {
          "internalType": "enum Asignatura.TipoNota",
          "name": "tipo",
          "type": "uint8"
        },
        {
          "internalType": "uint256",
          "name": "calificacion",
          "type": "uint256"
        }
      ],
      "stateMutability": "view",
      "type": "function",
      "constant": true
    },
    {
      "inputs": [],
      "name": "cerrada",
      "outputs": [
        {
          "internalType": "bool",
          "name": "",
          "type": "bool"
        }
      ],
      "stateMutability": "view",
      "type": "function",
      "constant": true
    },
    {
      "inputs": [],
      "name": "coordinador",
      "outputs": [
        {
          "internalType": "address",
          "name": "",
          "type": "address"
        }
      ],
      "stateMutability": "view",
      "type": "function",
      "constant": true
    },
    {
      "inputs": [],
      "name": "curso",
      "outputs": [
        {
          "internalType": "string",
          "name": "",
          "type": "string"
        }
      ],
      "stateMutability": "view",
      "type": "function",
      "constant": true
    },
    {
      "inputs": [
        {
          "internalType": "address",
          "name": "",
          "type": "address"
        }
      ],
      "name": "datosAlumno",
      "outputs": [
        {
          "internalType": "string",
          "name": "nombre",
          "type": "string"
        },
        {
          "internalType": "string",
          "name": "email",
          "type": "string"
        }
      ],
      "stateMutability": "view",
      "type": "function",
      "constant": true
    },
    {
      "inputs": [
        {
          "internalType": "address",
          "name": "",
          "type": "address"
        }
      ],
      "name": "datosProfesor",
      "outputs": [
        {
          "internalType": "string",
          "name": "",
          "type": "string"
        }
      ],
      "stateMutability": "view",
      "type": "function",
      "constant": true
    },
    {
      "inputs": [
        {
          "internalType": "uint256",
          "name": "",
          "type": "uint256"
        }
      ],
      "name": "evaluaciones",
      "outputs": [
        {
          "internalType": "string",
          "name": "nombre",
          "type": "string"
        },
        {
          "internalType": "uint256",
          "name": "fecha",
          "type": "uint256"
        },
        {
          "internalType": "uint256",
          "name": "porcentaje",
          "type": "uint256"
        }
      ],
      "stateMutability": "view",
      "type": "function",
      "constant": true
    },
    {
      "inputs": [
        {
          "internalType": "uint256",
          "name": "",
          "type": "uint256"
        }
      ],
      "name": "matriculas",
      "outputs": [
        {
          "internalType": "address",
          "name": "",
          "type": "address"
        }
      ],
      "stateMutability": "view",
      "type": "function",
      "constant": true
    },
    {
      "inputs": [],
      "name": "nombre",
      "outputs": [
        {
          "internalType": "string",
          "name": "",
          "type": "string"
        }
      ],
      "stateMutability": "view",
      "type": "function",
      "constant": true
    },
    {
      "inputs": [],
      "name": "owner",
      "outputs": [
        {
          "internalType": "address",
          "name": "",
          "type": "address"
        }
      ],
      "stateMutability": "view",
      "type": "function",
      "constant": true
    },
    {
      "inputs": [],
      "name": "profesor",
      "outputs": [
        {
          "internalType": "address",
          "name": "",
          "type": "address"
        }
      ],
      "stateMutability": "view",
      "type": "function",
      "constant": true
    },
    {
      "inputs": [
        {
          "internalType": "uint256",
          "name": "",
          "type": "uint256"
        }
      ],
      "name": "profesores",
      "outputs": [
        {
          "internalType": "address",
          "name": "",
          "type": "address"
        }
      ],
      "stateMutability": "view",
      "type": "function",
      "constant": true
    },
    {
      "inputs": [],
      "name": "version",
      "outputs": [
        {
          "internalType": "string",
          "name": "",
          "type": "string"
        }
      ],
      "stateMutability": "view",
      "type": "function",
      "constant": true
    },
    {
      "stateMutability": "payable",
      "type": "receive",
      "payable": true
    },
    {
      "inputs": [
        {
          "internalType": "address",
          "name": "addr",
          "type": "address"
        }
      ],
      "name": "setCoordinador",
      "outputs": [],
      "stateMutability": "nonpayable",
      "type": "function"
    },
    {
      "inputs": [],
      "name": "cerrar",
      "outputs": [],
      "stateMutability": "nonpayable",
      "type": "function"
    },
    {
      "inputs": [
        {
          "internalType": "address",
          "name": "_addr",
          "type": "address"
        },
        {
          "internalType": "string",
          "name": "_nombre",
          "type": "string"
        }
      ],
      "name": "addProfesor",
      "outputs": [],
      "stateMutability": "nonpayable",
      "type": "function"
    },
    {
      "inputs": [],
      "name": "profesoresLength",
      "outputs": [
        {
          "internalType": "uint256",
          "name": "",
          "type": "uint256"
        }
      ],
      "stateMutability": "view",
      "type": "function",
      "constant": true
    },
    {
      "inputs": [
        {
          "internalType": "string",
          "name": "_nombre",
          "type": "string"
        },
        {
          "internalType": "string",
          "name": "_email",
          "type": "string"
        }
      ],
      "name": "automatricula",
      "outputs": [],
      "stateMutability": "nonpayable",
      "type": "function"
    },
    {
      "inputs": [
        {
          "internalType": "string",
          "name": "_nombre",
          "type": "string"
        },
        {
          "internalType": "string",
          "name": "_email",
          "type": "string"
        },
        {
          "internalType": "address",
          "name": "_addr",
          "type": "address"
        }
      ],
      "name": "matriculaDir",
      "outputs": [],
      "stateMutability": "nonpayable",
      "type": "function"
    },
    {
      "inputs": [],
      "name": "matriculasLength",
      "outputs": [
        {
          "internalType": "uint256",
          "name": "",
          "type": "uint256"
        }
      ],
      "stateMutability": "view",
      "type": "function",
      "constant": true
    },
    {
      "inputs": [],
      "name": "quienSoy",
      "outputs": [
        {
          "internalType": "string",
          "name": "_nombre",
          "type": "string"
        },
        {
          "internalType": "string",
          "name": "_email",
          "type": "string"
        }
      ],
      "stateMutability": "view",
      "type": "function",
      "constant": true
    },
    {
      "inputs": [
        {
          "internalType": "string",
          "name": "_nombre",
          "type": "string"
        },
        {
          "internalType": "uint256",
          "name": "_fecha",
          "type": "uint256"
        },
        {
          "internalType": "uint256",
          "name": "_porcentaje",
          "type": "uint256"
        }
      ],
      "name": "creaEvaluacion",
      "outputs": [
        {
          "internalType": "uint256",
          "name": "",
          "type": "uint256"
        }
      ],
      "stateMutability": "nonpayable",
      "type": "function"
    },
    {
      "inputs": [
        {
          "internalType": "string",
          "name": "_nombre",
          "type": "string"
        },
        {
          "internalType": "uint256",
          "name": "_fecha",
          "type": "uint256"
        },
        {
          "internalType": "uint256",
          "name": "_porcentaje",
          "type": "uint256"
        },
        {
          "internalType": "uint256",
          "name": "_index",
          "type": "uint256"
        }
      ],
      "name": "ModificaEvaluacion",
      "outputs": [],
      "stateMutability": "nonpayable",
      "type": "function"
    },
    {
      "inputs": [],
      "name": "evaluacionesLength",
      "outputs": [
        {
          "internalType": "uint256",
          "name": "",
          "type": "uint256"
        }
      ],
      "stateMutability": "view",
      "type": "function",
      "constant": true
    },
    {
      "inputs": [
        {
          "internalType": "address",
          "name": "alumno",
          "type": "address"
        },
        {
          "internalType": "uint256",
          "name": "evaluacion",
          "type": "uint256"
        },
        {
          "internalType": "enum Asignatura.TipoNota",
          "name": "tipo",
          "type": "uint8"
        },
        {
          "internalType": "uint256",
          "name": "calificacion",
          "type": "uint256"
        }
      ],
      "name": "califica",
      "outputs": [],
      "stateMutability": "nonpayable",
      "type": "function"
    },
    {
      "inputs": [
        {
          "internalType": "uint256",
          "name": "evaluacion",
          "type": "uint256"
        }
      ],
      "name": "miNota",
      "outputs": [
        {
          "internalType": "enum Asignatura.TipoNota",
          "name": "tipo",
          "type": "uint8"
        },
        {
          "internalType": "uint256",
          "name": "calificacion",
          "type": "uint256"
        }
      ],
      "stateMutability": "view",
      "type": "function",
      "constant": true
    },
    {
      "inputs": [
        {
          "internalType": "uint256",
          "name": "evaluacion",
          "type": "uint256"
        },
        {
          "internalType": "address",
          "name": "_direccion",
          "type": "address"
        }
      ],
      "name": "miNotaDir",
      "outputs": [
        {
          "internalType": "enum Asignatura.TipoNota",
          "name": "tipo",
          "type": "uint8"
        },
        {
          "internalType": "uint256",
          "name": "calificacion",
          "type": "uint256"
        }
      ],
      "stateMutability": "view",
      "type": "function",
      "constant": true
    },
    {
      "inputs": [],
      "name": "miNotaFinal",
      "outputs": [
        {
          "internalType": "enum Asignatura.TipoNota",
          "name": "tipo",
          "type": "uint8"
        },
        {
          "internalType": "uint256",
          "name": "calificacion",
          "type": "uint256"
        }
      ],
      "stateMutability": "view",
      "type": "function",
      "constant": true
    },
    {
      "inputs": [
        {
          "internalType": "address",
          "name": "_addr",
          "type": "address"
        }
      ],
      "name": "notaFinal",
      "outputs": [
        {
          "internalType": "enum Asignatura.TipoNota",
          "name": "tipo",
          "type": "uint8"
        },
        {
          "internalType": "uint256",
          "name": "calificacion",
          "type": "uint256"
        }
      ],
      "stateMutability": "view",
      "type": "function",
      "constant": true
    }
  ],
  "bytecode": "0x60806040526040518060400160405280600981526020017f32303232204c6974650000000000000000000000000000000000000000000000815250600090816200004a9190620003f3565b503480156200005857600080fd5b50604051620041393803806200413983398181016040528101906200007e91906200063e565b6000825103620000c5576040517f08c379a0000000000000000000000000000000000000000000000000000000008152600401620000bc906200074a565b60405180910390fd5b60008151036200010c576040517f08c379a00000000000000000000000000000000000000000000000000000000081526004016200010390620007e2565b60405180910390fd5b33600460006101000a81548173ffffffffffffffffffffffffffffffffffffffff021916908373ffffffffffffffffffffffffffffffffffffffff16021790555081600590816200015e9190620003f3565b508060069081620001709190620003f3565b50505062000804565b600081519050919050565b7f4e487b7100000000000000000000000000000000000000000000000000000000600052604160045260246000fd5b7f4e487b7100000000000000000000000000000000000000000000000000000000600052602260045260246000fd5b60006002820490506001821680620001fb57607f821691505b602082108103620002115762000210620001b3565b5b50919050565b60008190508160005260206000209050919050565b60006020601f8301049050919050565b600082821b905092915050565b6000600883026200027b7fffffffffffffffffffffffffffffffffffffffffffffffffffffffffffffffff826200023c565b6200028786836200023c565b95508019841693508086168417925050509392505050565b6000819050919050565b6000819050919050565b6000620002d4620002ce620002c8846200029f565b620002a9565b6200029f565b9050919050565b6000819050919050565b620002f083620002b3565b62000308620002ff82620002db565b84845462000249565b825550505050565b600090565b6200031f62000310565b6200032c818484620002e5565b505050565b5b8181101562000354576200034860008262000315565b60018101905062000332565b5050565b601f821115620003a3576200036d8162000217565b62000378846200022c565b8101602085101562000388578190505b620003a062000397856200022c565b83018262000331565b50505b505050565b600082821c905092915050565b6000620003c860001984600802620003a8565b1980831691505092915050565b6000620003e38383620003b5565b9150826002028217905092915050565b620003fe8262000179565b67ffffffffffffffff8111156200041a576200041962000184565b5b620004268254620001e2565b6200043382828562000358565b600060209050601f8311600181146200046b576000841562000456578287015190505b620004628582620003d5565b865550620004d2565b601f1984166200047b8662000217565b60005b82811015620004a5578489015182556001820191506020850194506020810190506200047e565b86831015620004c55784890151620004c1601f891682620003b5565b8355505b6001600288020188555050505b505050505050565b6000604051905090565b600080fd5b600080fd5b600080fd5b600080fd5b6000601f19601f8301169050919050565b6200051482620004f8565b810181811067ffffffffffffffff8211171562000536576200053562000184565b5b80604052505050565b60006200054b620004da565b905062000559828262000509565b919050565b600067ffffffffffffffff8211156200057c576200057b62000184565b5b6200058782620004f8565b9050602081019050919050565b60005b83811015620005b457808201518184015260208101905062000597565b60008484015250505050565b6000620005d7620005d1846200055e565b6200053f565b905082815260208101848484011115620005f657620005f5620004f3565b5b6200060384828562000594565b509392505050565b600082601f830112620006235762000622620004ee565b5b815162000635848260208601620005c0565b91505092915050565b60008060408385031215620006585762000657620004e4565b5b600083015167ffffffffffffffff811115620006795762000678620004e9565b5b62000687858286016200060b565b925050602083015167ffffffffffffffff811115620006ab57620006aa620004e9565b5b620006b9858286016200060b565b9150509250929050565b600082825260208201905092915050565b7f456c206e6f6d627265206465206c6120617369676e6174757261206e6f20707560008201527f6564652073657220766163696f00000000000000000000000000000000000000602082015250565b600062000732602d83620006c3565b91506200073f82620006d4565b604082019050919050565b60006020820190508181036000830152620007658162000723565b9050919050565b7f456c20637572736f2061636164656d69636f206465206c6120617369676e617460008201527f757261206e6f2070756564652073657220766163696f00000000000000000000602082015250565b6000620007ca603683620006c3565b9150620007d7826200076c565b604082019050919050565b60006020820190508181036000830152620007fd81620007bb565b9050919050565b61392580620008146000396000f3fe6080604052600436106101c65760003560e01c80636c5f108c116100f7578063d00de47a11610095578063dab6ff2811610064578063dab6ff28146106ef578063deafcc4114610706578063df09657614610731578063f967f9861461075c57610206565b8063d00de47a1461061f578063d017da1f1461064b578063d27c3f3c14610688578063d51b4584146106c657610206565b80639e1d8f4b116100d15780639e1d8f4b1461054f578063bc7b35b21461057a578063c7918139146105a5578063c8373750146105e257610206565b80636c5f108c146104d05780637810ff1e146104f95780638da5cb5b1461052457610206565b8063488cf4f5116101645780635aa4ffe61161013e5780635aa4ffe6146103ee57806361d4c6ad1461042c578063641945bf146104555780636bf8aad61461049257610206565b8063488cf4f51461036c578063537668831461039757806354fd4d50146103c357610206565b806330322c9b116101a057806330322c9b146102885780633b694af8146102b157806342a6dde2146102ef57806344f7a8cc1461032d57610206565b806307beee5e1461020b5780631d2e4d2b1461023457806322c4e3941461025d57610206565b36610206576040517f08c379a00000000000000000000000000000000000000000000000000000000081526004016101fd90612509565b60405180910390fd5b600080fd5b34801561021757600080fd5b50610232600480360381019061022d91906126e1565b610787565b005b34801561024057600080fd5b5061025b6004803603810190610256919061276c565b610995565b005b34801561026957600080fd5b50610272610bfb565b60405161027f91906127e3565b60405180910390f35b34801561029457600080fd5b506102af60048036038101906102aa9190612859565b610c0e565b005b3480156102bd57600080fd5b506102d860048036038101906102d391906128c0565b610f03565b6040516102e6929190612986565b60405180910390f35b3480156102fb57600080fd5b50610316600480360381019061031191906129af565b61104f565b604051610324929190612986565b60405180910390f35b34801561033957600080fd5b50610354600480360381019061034f91906129ef565b61108d565b60405161036393929190612a8a565b60405180910390f35b34801561037857600080fd5b5061038161114f565b60405161038e9190612ac8565b60405180910390f35b3480156103a357600080fd5b506103ac61115c565b6040516103ba929190612ae3565b60405180910390f35b3480156103cf57600080fd5b506103d861132c565b6040516103e59190612b1a565b60405180910390f35b3480156103fa57600080fd5b5061041560048036038101906104109190612b3c565b6113ba565b604051610423929190612986565b60405180910390f35b34801561043857600080fd5b50610453600480360381019061044e9190612b69565b61145f565b005b34801561046157600080fd5b5061047c60048036038101906104779190612b3c565b6115dc565b6040516104899190612b1a565b60405180910390f35b34801561049e57600080fd5b506104b960048036038101906104b49190612b3c565b61167c565b6040516104c7929190612ae3565b60405180910390f35b3480156104dc57600080fd5b506104f760048036038101906104f29190612be1565b6117b0565b005b34801561050557600080fd5b5061050e6119db565b60405161051b9190612c73565b60405180910390f35b34801561053057600080fd5b50610539611a01565b6040516105469190612c73565b60405180910390f35b34801561055b57600080fd5b50610564611a27565b6040516105719190612ac8565b60405180910390f35b34801561058657600080fd5b5061058f611a34565b60405161059c9190612b1a565b60405180910390f35b3480156105b157600080fd5b506105cc60048036038101906105c791906129ef565b611ac2565b6040516105d99190612c73565b60405180910390f35b3480156105ee57600080fd5b50610609600480360381019061060491906129ef565b611b01565b6040516106169190612c73565b60405180910390f35b34801561062b57600080fd5b50610634611b40565b604051610642929190612986565b60405180910390f35b34801561065757600080fd5b50610672600480360381019061066d9190612c8e565b611b9c565b60405161067f9190612ac8565b60405180910390f35b34801561069457600080fd5b506106af60048036038101906106aa91906129ef565b611d4f565b6040516106bd929190612986565b60405180910390f35b3480156106d257600080fd5b506106ed60048036038101906106e89190612b3c565b611e99565b005b3480156106fb57600080fd5b50610704611fbd565b005b34801561071257600080fd5b5061071b61206a565b6040516107289190612b1a565b60405180910390f35b34801561073d57600080fd5b506107466120f8565b6040516107539190612c73565b60405180910390f35b34801561076857600080fd5b5061077161211e565b60405161077e9190612ac8565b60405180910390f35b6107903361212b565b156107d0576040517f08c379a00000000000000000000000000000000000000000000000000000000081526004016107c790612d6f565b60405180910390fd5b600460009054906101000a900473ffffffffffffffffffffffffffffffffffffffff1673ffffffffffffffffffffffffffffffffffffffff163373ffffffffffffffffffffffffffffffffffffffff1614610860576040517f08c379a000000000000000000000000000000000000000000000000000000000815260040161085790612ddb565b60405180910390fd5b60008351036108a4576040517f08c379a000000000000000000000000000000000000000000000000000000000815260040161089b90612e47565b60405180910390fd5b6000604051806040016040528085815260200184815250905080600860008473ffffffffffffffffffffffffffffffffffffffff1673ffffffffffffffffffffffffffffffffffffffff16815260200190815260200160002060008201518160000190816109129190613073565b5060208201518160010190816109289190613073565b509050506009829080600181540180825580915050600190039060005260206000200160009091909190916101000a81548173ffffffffffffffffffffffffffffffffffffffff021916908373ffffffffffffffffffffffffffffffffffffffff16021790555050505050565b600460009054906101000a900473ffffffffffffffffffffffffffffffffffffffff1673ffffffffffffffffffffffffffffffffffffffff163373ffffffffffffffffffffffffffffffffffffffff1614610a25576040517f08c379a0000000000000000000000000000000000000000000000000000000008152600401610a1c90612ddb565b60405180910390fd5b600760149054906101000a900460ff1615610a75576040517f08c379a0000000000000000000000000000000000000000000000000000000008152600401610a6c906131b7565b60405180910390fd5b6000600360008473ffffffffffffffffffffffffffffffffffffffff1673ffffffffffffffffffffffffffffffffffffffff1681526020019081526020016000208054610ac190612e96565b905014610b03576040517f08c379a0000000000000000000000000000000000000000000000000000000008152600401610afa90613223565b60405180910390fd5b6000815103610b47576040517f08c379a0000000000000000000000000000000000000000000000000000000008152600401610b3e906132b5565b60405180910390fd5b80600360008473ffffffffffffffffffffffffffffffffffffffff1673ffffffffffffffffffffffffffffffffffffffff1681526020019081526020016000209081610b939190613073565b506002829080600181540180825580915050600190039060005260206000200160009091909190916101000a81548173ffffffffffffffffffffffffffffffffffffffff021916908373ffffffffffffffffffffffffffffffffffffffff1602179055505050565b600760149054906101000a900460ff1681565b6000600360003373ffffffffffffffffffffffffffffffffffffffff1673ffffffffffffffffffffffffffffffffffffffff1681526020019081526020016000208054610c5a90612e96565b80601f0160208091040260200160405190810160405280929190818152602001828054610c8690612e96565b8015610cd35780601f10610ca857610100808354040283529160200191610cd3565b820191906000526020600020905b815481529060010190602001808311610cb657829003601f168201915b505050505090506000815103610d1e576040517f08c379a0000000000000000000000000000000000000000000000000000000008152600401610d1590613321565b60405180910390fd5b600760149054906101000a900460ff1615610d6e576040517f08c379a0000000000000000000000000000000000000000000000000000000008152600401610d65906131b7565b60405180910390fd5b610d778561212b565b610db6576040517f08c379a0000000000000000000000000000000000000000000000000000000008152600401610dad906133b3565b60405180910390fd5b600a805490508410610dfd576040517f08c379a0000000000000000000000000000000000000000000000000000000008152600401610df490613445565b60405180910390fd5b6103e8821115610e42576040517f08c379a0000000000000000000000000000000000000000000000000000000008152600401610e39906134fd565b60405180910390fd5b60006040518060400160405280856002811115610e6257610e61612900565b5b815260200184815250905080600b60008873ffffffffffffffffffffffffffffffffffffffff1673ffffffffffffffffffffffffffffffffffffffff168152602001908152602001600020600087815260200190815260200160002060008201518160000160006101000a81548160ff02191690836002811115610ee957610ee8612900565b5b021790555060208201518160010155905050505050505050565b600080610f0f3361212b565b610f4e576040517f08c379a0000000000000000000000000000000000000000000000000000000008152600401610f459061358f565b60405180910390fd5b600a805490508410610f95576040517f08c379a0000000000000000000000000000000000000000000000000000000008152600401610f8c90613621565b60405180910390fd5b6000600b60008573ffffffffffffffffffffffffffffffffffffffff1673ffffffffffffffffffffffffffffffffffffffff16815260200190815260200160002060008681526020019081526020016000206040518060400160405290816000820160009054906101000a900460ff16600281111561101757611016612900565b5b600281111561102957611028612900565b5b815260200160018201548152505090508060000151925080602001519150509250929050565b600b602052816000526040600020602052806000526040600020600091509150508060000160009054906101000a900460ff16908060010154905082565b600a818154811061109d57600080fd5b90600052602060002090600302016000915090508060000180546110c090612e96565b80601f01602080910402602001604051908101604052809291908181526020018280546110ec90612e96565b80156111395780601f1061110e57610100808354040283529160200191611139565b820191906000526020600020905b81548152906001019060200180831161111c57829003601f168201915b5050505050908060010154908060020154905083565b6000600a80549050905090565b6060806111683361212b565b6111a7576040517f08c379a000000000000000000000000000000000000000000000000000000000815260040161119e9061358f565b60405180910390fd5b6000600860003373ffffffffffffffffffffffffffffffffffffffff1673ffffffffffffffffffffffffffffffffffffffff16815260200190815260200160002060405180604001604052908160008201805461120390612e96565b80601f016020809104026020016040519081016040528092919081815260200182805461122f90612e96565b801561127c5780601f106112515761010080835404028352916020019161127c565b820191906000526020600020905b81548152906001019060200180831161125f57829003601f168201915b5050505050815260200160018201805461129590612e96565b80601f01602080910402602001604051908101604052809291908181526020018280546112c190612e96565b801561130e5780601f106112e35761010080835404028352916020019161130e565b820191906000526020600020905b8154815290600101906020018083116112f157829003601f168201915b50505050508152505090508060000151925080602001519150509091565b6000805461133990612e96565b80601f016020809104026020016040519081016040528092919081815260200182805461136590612e96565b80156113b25780601f10611387576101008083540402835291602001916113b2565b820191906000526020600020905b81548152906001019060200180831161139557829003601f168201915b505050505081565b600080600760009054906101000a900473ffffffffffffffffffffffffffffffffffffffff1673ffffffffffffffffffffffffffffffffffffffff163373ffffffffffffffffffffffffffffffffffffffff161461144d576040517f08c379a00000000000000000000000000000000000000000000000000000000081526004016114449061368d565b60405180910390fd5b61145683612209565b91509150915091565b6114683361212b565b156114a8576040517f08c379a000000000000000000000000000000000000000000000000000000000815260040161149f90612d6f565b60405180910390fd5b60008251036114ec576040517f08c379a00000000000000000000000000000000000000000000000000000000081526004016114e390612e47565b60405180910390fd5b6000604051806040016040528084815260200183815250905080600860003373ffffffffffffffffffffffffffffffffffffffff1673ffffffffffffffffffffffffffffffffffffffff168152602001908152602001600020600082015181600001908161155a9190613073565b5060208201518160010190816115709190613073565b509050506009339080600181540180825580915050600190039060005260206000200160009091909190916101000a81548173ffffffffffffffffffffffffffffffffffffffff021916908373ffffffffffffffffffffffffffffffffffffffff160217905550505050565b600360205280600052604060002060009150905080546115fb90612e96565b80601f016020809104026020016040519081016040528092919081815260200182805461162790612e96565b80156116745780601f1061164957610100808354040283529160200191611674565b820191906000526020600020905b81548152906001019060200180831161165757829003601f168201915b505050505081565b600860205280600052604060002060009150905080600001805461169f90612e96565b80601f01602080910402602001604051908101604052809291908181526020018280546116cb90612e96565b80156117185780601f106116ed57610100808354040283529160200191611718565b820191906000526020600020905b8154815290600101906020018083116116fb57829003601f168201915b50505050509080600101805461172d90612e96565b80601f016020809104026020016040519081016040528092919081815260200182805461175990612e96565b80156117a65780601f1061177b576101008083540402835291602001916117a6565b820191906000526020600020905b81548152906001019060200180831161178957829003601f168201915b5050505050905082565b600760009054906101000a900473ffffffffffffffffffffffffffffffffffffffff1673ffffffffffffffffffffffffffffffffffffffff163373ffffffffffffffffffffffffffffffffffffffff1614611840576040517f08c379a00000000000000000000000000000000000000000000000000000000081526004016118379061368d565b60405180910390fd5b600760149054906101000a900460ff1615611890576040517f08c379a0000000000000000000000000000000000000000000000000000000008152600401611887906131b7565b60405180910390fd5b6000600a82815481106118a6576118a56136ad565b5b90600052602060002090600302016040518060600160405290816000820180546118cf90612e96565b80601f01602080910402602001604051908101604052809291908181526020018280546118fb90612e96565b80156119485780601f1061191d57610100808354040283529160200191611948565b820191906000526020600020905b81548152906001019060200180831161192b57829003601f168201915b50505050508152602001600182015481526020016002820154815250509050848160000181905250838160200181815250508281604001818152505080600a8381548110611999576119986136ad565b5b906000526020600020906003020160008201518160000190816119bc9190613073565b5060208201518160010155604082015181600201559050505050505050565b600760009054906101000a900473ffffffffffffffffffffffffffffffffffffffff1681565b600460009054906101000a900473ffffffffffffffffffffffffffffffffffffffff1681565b6000600980549050905090565b60058054611a4190612e96565b80601f0160208091040260200160405190810160405280929190818152602001828054611a6d90612e96565b8015611aba5780601f10611a8f57610100808354040283529160200191611aba565b820191906000526020600020905b815481529060010190602001808311611a9d57829003601f168201915b505050505081565b60098181548110611ad257600080fd5b906000526020600020016000915054906101000a900473ffffffffffffffffffffffffffffffffffffffff1681565b60028181548110611b1157600080fd5b906000526020600020016000915054906101000a900473ffffffffffffffffffffffffffffffffffffffff1681565b600080611b4c3361212b565b611b8b576040517f08c379a0000000000000000000000000000000000000000000000000000000008152600401611b829061358f565b60405180910390fd5b611b9433612209565b915091509091565b6000600760009054906101000a900473ffffffffffffffffffffffffffffffffffffffff1673ffffffffffffffffffffffffffffffffffffffff163373ffffffffffffffffffffffffffffffffffffffff1614611c2e576040517f08c379a0000000000000000000000000000000000000000000000000000000008152600401611c259061368d565b60405180910390fd5b600760149054906101000a900460ff1615611c7e576040517f08c379a0000000000000000000000000000000000000000000000000000000008152600401611c75906131b7565b60405180910390fd5b6000845103611cc2576040517f08c379a0000000000000000000000000000000000000000000000000000000008152600401611cb99061374e565b60405180910390fd5b600a60405180606001604052808681526020018581526020018481525090806001815401808255809150506001900390600052602060002090600302016000909190919091506000820151816000019081611d1d9190613073565b50602082015181600101556040820151816002015550506001600a80549050611d46919061379d565b90509392505050565b600080611d5b3361212b565b611d9a576040517f08c379a0000000000000000000000000000000000000000000000000000000008152600401611d919061358f565b60405180910390fd5b600a805490508310611de1576040517f08c379a0000000000000000000000000000000000000000000000000000000008152600401611dd890613621565b60405180910390fd5b6000600b60003373ffffffffffffffffffffffffffffffffffffffff1673ffffffffffffffffffffffffffffffffffffffff16815260200190815260200160002060008581526020019081526020016000206040518060400160405290816000820160009054906101000a900460ff166002811115611e6357611e62612900565b5b6002811115611e7557611e74612900565b5b81526020016001820154815250509050806000015192508060200151915050915091565b600460009054906101000a900473ffffffffffffffffffffffffffffffffffffffff1673ffffffffffffffffffffffffffffffffffffffff163373ffffffffffffffffffffffffffffffffffffffff1614611f29576040517f08c379a0000000000000000000000000000000000000000000000000000000008152600401611f2090612ddb565b60405180910390fd5b600760149054906101000a900460ff1615611f79576040517f08c379a0000000000000000000000000000000000000000000000000000000008152600401611f70906131b7565b60405180910390fd5b80600760006101000a81548173ffffffffffffffffffffffffffffffffffffffff021916908373ffffffffffffffffffffffffffffffffffffffff16021790555050565b600760009054906101000a900473ffffffffffffffffffffffffffffffffffffffff1673ffffffffffffffffffffffffffffffffffffffff163373ffffffffffffffffffffffffffffffffffffffff161461204d576040517f08c379a00000000000000000000000000000000000000000000000000000000081526004016120449061368d565b60405180910390fd5b6001600760146101000a81548160ff021916908315150217905550565b6006805461207790612e96565b80601f01602080910402602001604051908101604052809291908181526020018280546120a390612e96565b80156120f05780601f106120c5576101008083540402835291602001916120f0565b820191906000526020600020905b8154815290600101906020018083116120d357829003601f168201915b505050505081565b600160009054906101000a900473ffffffffffffffffffffffffffffffffffffffff1681565b6000600280549050905090565b600080600860008473ffffffffffffffffffffffffffffffffffffffff1673ffffffffffffffffffffffffffffffffffffffff168152602001908152602001600020600001805461217b90612e96565b80601f01602080910402602001604051908101604052809291908181526020018280546121a790612e96565b80156121f45780601f106121c9576101008083540402835291602001916121f4565b820191906000526020600020905b8154815290600101906020018083116121d757829003601f168201915b50505050509050600081511415915050919050565b6000806001915060005b600a80549050811015612361576000600281111561223457612233612900565b5b600b60008673ffffffffffffffffffffffffffffffffffffffff1673ffffffffffffffffffffffffffffffffffffffff168152602001908152602001600020600083815260200190815260200160002060000160009054906101000a900460ff1660028111156122a7576122a6612900565b5b036122b9576000809250925050612481565b6002808111156122cc576122cb612900565b5b600b60008673ffffffffffffffffffffffffffffffffffffffff1673ffffffffffffffffffffffffffffffffffffffff168152602001908152602001600020600083815260200190815260200160002060000160009054906101000a900460ff16600281111561233f5761233e612900565b5b0361234d576002925061234e565b5b8080612359906137d1565b915050612213565b506001600281111561237657612375612900565b5b82600281111561238957612388612900565b5b0361239a5781600091509150612481565b60008060005b600a8054905081101561245d576064600a82815481106123c3576123c26136ad565b5b906000526020600020906003020160020154600b60008973ffffffffffffffffffffffffffffffffffffffff1673ffffffffffffffffffffffffffffffffffffffff1681526020019081526020016000206000848152602001908152602001600020600101546124339190613819565b61243d919061388a565b8261244891906138bb565b91508080612455906137d1565b9150506123a0565b5081801561246c57506101f381115b15612477576101f390505b6002935080925050505b915091565b600082825260208201905092915050565b7f4e6f207365207065726d697465206c6120726563657063696f6e20646520646960008201527f6e65726f2e000000000000000000000000000000000000000000000000000000602082015250565b60006124f3602583612486565b91506124fe82612497565b604082019050919050565b60006020820190508181036000830152612522816124e6565b9050919050565b6000604051905090565b600080fd5b600080fd5b600080fd5b600080fd5b6000601f19601f8301169050919050565b7f4e487b7100000000000000000000000000000000000000000000000000000000600052604160045260246000fd5b61259082612547565b810181811067ffffffffffffffff821117156125af576125ae612558565b5b80604052505050565b60006125c2612529565b90506125ce8282612587565b919050565b600067ffffffffffffffff8211156125ee576125ed612558565b5b6125f782612547565b9050602081019050919050565b82818337600083830152505050565b6000612626612621846125d3565b6125b8565b90508281526020810184848401111561264257612641612542565b5b61264d848285612604565b509392505050565b600082601f83011261266a5761266961253d565b5b813561267a848260208601612613565b91505092915050565b600073ffffffffffffffffffffffffffffffffffffffff82169050919050565b60006126ae82612683565b9050919050565b6126be816126a3565b81146126c957600080fd5b50565b6000813590506126db816126b5565b92915050565b6000806000606084860312156126fa576126f9612533565b5b600084013567ffffffffffffffff81111561271857612717612538565b5b61272486828701612655565b935050602084013567ffffffffffffffff81111561274557612744612538565b5b61275186828701612655565b9250506040612762868287016126cc565b9150509250925092565b6000806040838503121561278357612782612533565b5b6000612791858286016126cc565b925050602083013567ffffffffffffffff8111156127b2576127b1612538565b5b6127be85828601612655565b9150509250929050565b60008115159050919050565b6127dd816127c8565b82525050565b60006020820190506127f860008301846127d4565b92915050565b6000819050919050565b612811816127fe565b811461281c57600080fd5b50565b60008135905061282e81612808565b92915050565b6003811061284157600080fd5b50565b60008135905061285381612834565b92915050565b6000806000806080858703121561287357612872612533565b5b6000612881878288016126cc565b94505060206128928782880161281f565b93505060406128a387828801612844565b92505060606128b48782880161281f565b91505092959194509250565b600080604083850312156128d7576128d6612533565b5b60006128e58582860161281f565b92505060206128f6858286016126cc565b9150509250929050565b7f4e487b7100000000000000000000000000000000000000000000000000000000600052602160045260246000fd5b600381106129405761293f612900565b5b50565b60008190506129518261292f565b919050565b600061296182612943565b9050919050565b61297181612956565b82525050565b612980816127fe565b82525050565b600060408201905061299b6000830185612968565b6129a86020830184612977565b9392505050565b600080604083850312156129c6576129c5612533565b5b60006129d4858286016126cc565b92505060206129e58582860161281f565b9150509250929050565b600060208284031215612a0557612a04612533565b5b6000612a138482850161281f565b91505092915050565b600081519050919050565b60005b83811015612a45578082015181840152602081019050612a2a565b60008484015250505050565b6000612a5c82612a1c565b612a668185612486565b9350612a76818560208601612a27565b612a7f81612547565b840191505092915050565b60006060820190508181036000830152612aa48186612a51565b9050612ab36020830185612977565b612ac06040830184612977565b949350505050565b6000602082019050612add6000830184612977565b92915050565b60006040820190508181036000830152612afd8185612a51565b90508181036020830152612b118184612a51565b90509392505050565b60006020820190508181036000830152612b348184612a51565b905092915050565b600060208284031215612b5257612b51612533565b5b6000612b60848285016126cc565b91505092915050565b60008060408385031215612b8057612b7f612533565b5b600083013567ffffffffffffffff811115612b9e57612b9d612538565b5b612baa85828601612655565b925050602083013567ffffffffffffffff811115612bcb57612bca612538565b5b612bd785828601612655565b9150509250929050565b60008060008060808587031215612bfb57612bfa612533565b5b600085013567ffffffffffffffff811115612c1957612c18612538565b5b612c2587828801612655565b9450506020612c368782880161281f565b9350506040612c478782880161281f565b9250506060612c588782880161281f565b91505092959194509250565b612c6d816126a3565b82525050565b6000602082019050612c886000830184612c64565b92915050565b600080600060608486031215612ca757612ca6612533565b5b600084013567ffffffffffffffff811115612cc557612cc4612538565b5b612cd186828701612655565b9350506020612ce28682870161281f565b9250506040612cf38682870161281f565b9150509250925092565b7f536f6c6f207065726d697469646f206120616c756d6e6f73206e6f206d61747260008201527f6963756c61646f73000000000000000000000000000000000000000000000000602082015250565b6000612d59602883612486565b9150612d6482612cfd565b604082019050919050565b60006020820190508181036000830152612d8881612d4c565b9050919050565b7f536f6c6f207065726d697469646f20616c206f776e6572000000000000000000600082015250565b6000612dc5601783612486565b9150612dd082612d8f565b602082019050919050565b60006020820190508181036000830152612df481612db8565b9050919050565b7f456c206e6f6d627265206e6f2070756564652073657220766163696f00000000600082015250565b6000612e31601c83612486565b9150612e3c82612dfb565b602082019050919050565b60006020820190508181036000830152612e6081612e24565b9050919050565b7f4e487b7100000000000000000000000000000000000000000000000000000000600052602260045260246000fd5b60006002820490506001821680612eae57607f821691505b602082108103612ec157612ec0612e67565b5b50919050565b60008190508160005260206000209050919050565b60006020601f8301049050919050565b600082821b905092915050565b600060088302612f297fffffffffffffffffffffffffffffffffffffffffffffffffffffffffffffffff82612eec565b612f338683612eec565b95508019841693508086168417925050509392505050565b6000819050919050565b6000612f70612f6b612f66846127fe565b612f4b565b6127fe565b9050919050565b6000819050919050565b612f8a83612f55565b612f9e612f9682612f77565b848454612ef9565b825550505050565b600090565b612fb3612fa6565b612fbe818484612f81565b505050565b5b81811015612fe257612fd7600082612fab565b600181019050612fc4565b5050565b601f82111561302757612ff881612ec7565b61300184612edc565b81016020851015613010578190505b61302461301c85612edc565b830182612fc3565b50505b505050565b600082821c905092915050565b600061304a6000198460080261302c565b1980831691505092915050565b60006130638383613039565b9150826002028217905092915050565b61307c82612a1c565b67ffffffffffffffff81111561309557613094612558565b5b61309f8254612e96565b6130aa828285612fe6565b600060209050601f8311600181146130dd57600084156130cb578287015190505b6130d58582613057565b86555061313d565b601f1984166130eb86612ec7565b60005b82811015613113578489015182556001820191506020850194506020810190506130ee565b86831015613130578489015161312c601f891682613039565b8355505b6001600288020188555050505b505050505050565b7f536f6c6f207065726d697469646f207369206c6120617369676e61747572612060008201527f6e6f206573746120636572726164610000000000000000000000000000000000602082015250565b60006131a1602f83612486565b91506131ac82613145565b604082019050919050565b600060208201905081810360008301526131d081613194565b9050919050565b7f4573652070726f6665736f72207961206861207369646f206164646564000000600082015250565b600061320d601d83612486565b9150613218826131d7565b602082019050919050565b6000602082019050818103600083015261323c81613200565b9050919050565b7f456c206e6f6d6272652064656c2070726f6665736f72206e6f2070756564652060008201527f657374617220766163696f000000000000000000000000000000000000000000602082015250565b600061329f602b83612486565b91506132aa82613243565b604082019050919050565b600060208201905081810360008301526132ce81613292565b9050919050565b7f536f6c6f207065726d697469646f20616c2070726f6665736f72000000000000600082015250565b600061330b601a83612486565b9150613316826132d5565b602082019050919050565b6000602082019050818103600083015261333a816132fe565b9050919050565b7f536f6c6f2073652070756564656e2063616c696669636172206120756e20616c60008201527f756d6e6f206d6174726963756c61646f2e000000000000000000000000000000602082015250565b600061339d603183612486565b91506133a882613341565b604082019050919050565b600060208201905081810360008301526133cc81613390565b9050919050565b7f4e6f2073652070756564652063616c69666963617220756e61206576616c756160008201527f63696f6e20717565206e6f206578697374652e00000000000000000000000000602082015250565b600061342f603383612486565b915061343a826133d3565b604082019050919050565b6000602082019050818103600083015261345e81613422565b9050919050565b7f4e6f2073652070756564652063616c69666963617220636f6e20756e61206e6f60008201527f7461207375706572696f722061206c61206d6178696d61207065726d6974696460208201527f612e000000000000000000000000000000000000000000000000000000000000604082015250565b60006134e7604283612486565b91506134f282613465565b606082019050919050565b60006020820190508181036000830152613516816134da565b9050919050565b7f536f6c6f207065726d697469646f206120616c756d6e6f73206d61747269637560008201527f6c61646f73000000000000000000000000000000000000000000000000000000602082015250565b6000613579602583612486565b91506135848261351d565b604082019050919050565b600060208201905081810360008301526135a88161356c565b9050919050565b7f456c20696e64696365206465206c61206576616c756163696f6e206e6f20657860008201527f697374652e000000000000000000000000000000000000000000000000000000602082015250565b600061360b602583612486565b9150613616826135af565b604082019050919050565b6000602082019050818103600083015261363a816135fe565b9050919050565b7f536f6c6f207065726d697469646f20616c20636f6f7264696e61646f72000000600082015250565b6000613677601d83612486565b915061368282613641565b602082019050919050565b600060208201905081810360008301526136a68161366a565b9050919050565b7f4e487b7100000000000000000000000000000000000000000000000000000000600052603260045260246000fd5b7f456c206e6f6d627265206465206c61206576616c756163696f6e206e6f20707560008201527f6564652073657220766163696f00000000000000000000000000000000000000602082015250565b6000613738602d83612486565b9150613743826136dc565b604082019050919050565b600060208201905081810360008301526137678161372b565b9050919050565b7f4e487b7100000000000000000000000000000000000000000000000000000000600052601160045260246000fd5b60006137a8826127fe565b91506137b3836127fe565b92508282039050818111156137cb576137ca61376e565b5b92915050565b60006137dc826127fe565b91507fffffffffffffffffffffffffffffffffffffffffffffffffffffffffffffffff820361380e5761380d61376e565b5b600182019050919050565b6000613824826127fe565b915061382f836127fe565b925082820261383d816127fe565b915082820484148315176138545761385361376e565b5b5092915050565b7f4e487b7100000000000000000000000000000000000000000000000000000000600052601260045260246000fd5b6000613895826127fe565b91506138a0836127fe565b9250826138b0576138af61385b565b5b828204905092915050565b60006138c6826127fe565b91506138d1836127fe565b92508282019050808211156138e9576138e861376e565b5b9291505056fea264697066735822122001ae885b8aa2a14078b866c7fcd1dc49a34cacd23b6e503b0f5bacee6c18007e64736f6c63430008110033",
  "immutableReferences": {},
  "source": "// SPDX-License-Identifier: UNLICENSED\npragma solidity ^0.8.16;\n\n/**\n * El contrato Asignatura que representa una asignatura de la carrera.\n *\n * Version Lite\n */\ncontract Asignatura {\n    /// Version 2022 Lite - Teoria\n    string public version = \"2022 Lite\";\n    /**\n     * address del profesor que ha desplegado el contrato.\n     * El contrato lo despliega el profesor.\n     */\n    address public profesor;\n\n    // Array con las direcciones de los profesores aadidos\n    address[] public profesores;\n\n    // Acceder al nombre de un profesor dada su direccin\n    mapping(address => string) public datosProfesor;\n\n    // Direccin del owner\n    address public owner;\n\n    /// Nombre de la asignatura\n    string public nombre;\n\n    /// Curso academico\n    string public curso;\n\n    // Coordinador de la asignatura\n    address public coordinador;\n\n    // Coordinador de la asignatura\n    bool public cerrada;\n\n    /// Datos de un alumno.\n    struct DatosAlumno {\n        string nombre;\n        string email;\n    }\n\n    /// Acceder a los datos de un alumno dada su direccion.\n    mapping(address => DatosAlumno) public datosAlumno;\n\n    // Array con las direcciones de los alumnos matriculados.\n    address[] public matriculas;\n\n    /**\n     * Datos de una evaluacion.\n     */\n    struct Evaluacion {\n        string nombre;\n        uint256 fecha;\n        uint256 porcentaje;\n    }\n\n    /// Evaluaciones de la asignatura.\n    Evaluacion[] public evaluaciones;\n\n    /// Tipos de notas: sin usar, no presentado, y nota normal entre 0 y 1000.\n    enum TipoNota {\n        Empty,\n        NP,\n        Normal\n    }\n\n    /**\n     * Datos de una nota.\n     * La calificacion esta multiplicada por 100 porque no hay decimales.\n     */\n    struct Nota {\n        TipoNota tipo;\n        uint256 calificacion;\n    }\n\n    // Dada la direccion de un alumno, y el indice de la evaluacion, devuelve\n    // la nota del alumno.\n    mapping(address => mapping(uint256 => Nota)) public calificaciones;\n\n    /**\n     * Constructor.\n     *\n     * @param _nombre Nombre de la asignatura.\n     * @param _curso Curso academico.\n     */\n    constructor(string memory _nombre, string memory _curso) {\n        require(\n            bytes(_nombre).length != 0,\n            \"El nombre de la asignatura no puede ser vacio\"\n        );\n        require(\n            bytes(_curso).length != 0,\n            \"El curso academico de la asignatura no puede ser vacio\"\n        );\n\n        owner = msg.sender;\n        nombre = _nombre;\n        curso = _curso;\n    }\n\n    // Asignar la adireccin del usuario coordinador\n    function setCoordinador(address addr) public soloOwner soloAbierta {\n        coordinador = addr;\n    }\n\n    // Cerrar la asignatura\n    function cerrar() public soloCoordinador {\n        cerrada = true;\n    }\n\n    // Aadir un profesor nuevo. Impedir que se pueda meter un nombre vaco\n    function addProfesor(address _addr, string memory _nombre)\n        public\n        soloOwner\n        soloAbierta\n    {\n        require(\n            bytes(datosProfesor[_addr]).length == 0,\n            \"Ese profesor ya ha sido added\"\n        );\n        require(\n            bytes(_nombre).length != 0,\n            \"El nombre del profesor no puede estar vacio\"\n        );\n\n        datosProfesor[_addr] = _nombre;\n        profesores.push(_addr);\n    }\n\n    // Devolver nmero de profesores aadidos\n    function profesoresLength() public view returns (uint256) {\n        return profesores.length;\n    }\n\n    /**\n     * Los alumnos pueden automatricularse con el metodo automatricula.\n     *\n     * Impedir que se pueda meter un nombre vacio.\n     *\n     * @param _nombre El nombre del alumno.\n     * @param _email El email del alumno.\n     */\n    function automatricula(string memory _nombre, string memory _email)\n        public\n        soloNoMatriculados\n    {\n        require(bytes(_nombre).length != 0, \"El nombre no puede ser vacio\");\n        DatosAlumno memory datos = DatosAlumno(_nombre, _email);\n        datosAlumno[msg.sender] = datos;\n        matriculas.push(msg.sender);\n    }\n\n    /**\n     * El owner puede matricular a los alumnos\n     *\n     * Impedir que se pueda meter un nombre vacio.\n     *\n     * @param _nombre El nombre del alumno.\n     * @param _email El email del alumno.\n     * @param _addr La direccin del alumno.\n     */\n    function matriculaDir(\n        string memory _nombre,\n        string memory _email,\n        address _addr\n    ) public soloNoMatriculados soloOwner {\n        require(bytes(_nombre).length != 0, \"El nombre no puede ser vacio\");\n        DatosAlumno memory datos = DatosAlumno(_nombre, _email);\n        datosAlumno[_addr] = datos;\n        matriculas.push(_addr);\n    }\n\n    /**\n     * El numero de alumnos matriculados.\n     *\n     * @return El numero de alumnos matriculados.\n     */\n    function matriculasLength() public view returns (uint256) {\n        return matriculas.length;\n    }\n\n    /**\n     * Permite a un alumno obtener sus propios datos.\n     *\n     * @return _nombre El nombre del alumno que invoca el metodo.\n     * @return _email El email del alumno que invoca el metodo.\n     */\n    function quienSoy()\n        public\n        view\n        soloMatriculados\n        returns (string memory _nombre, string memory _email)\n    {\n        DatosAlumno memory datos = datosAlumno[msg.sender];\n        _nombre = datos.nombre;\n        _email = datos.email;\n    }\n\n    /**\n * Crear una prueba de evaluacion de la asignatura. Por ejemplo, el primer parcial, o la practica 3.\n *\n * Las evaluaciones se meteran en el array evaluaciones, y nos referiremos a ellas por su posicion en el\narray.\n *\n * @param _nombre El nombre de la evaluacion.\n * @param _fecha La fecha de evaluacion (segundos desde el 1/1/1970).\n * @param _porcentaje El porcentaje de puntos que proporciona a la nota final.\n *\n * @return La posicion en el array evaluaciones,\n */\n    function creaEvaluacion(\n        string memory _nombre,\n        uint256 _fecha,\n        uint256 _porcentaje\n    ) public soloCoordinador soloAbierta returns (uint256) {\n        require(\n            bytes(_nombre).length != 0,\n            \"El nombre de la evaluacion no puede ser vacio\"\n        );\n\n        evaluaciones.push(Evaluacion(_nombre, _fecha, _porcentaje));\n        return evaluaciones.length - 1;\n    }\n\n    /*\n * Modifica una prueba de evaluacion de la asignatura. Por ejemplo, el primer parcial, o la practica 3.\n *\n * Las evaluaciones se meteran en el array evaluaciones, y nos referiremos a ellas por su posicion en el\narray.\n *\n * @param _nombre El nombre de la evaluacion.\n * @param _fecha La fecha de evaluacion (segundos desde el 1/1/1970).\n * @param _porcentaje El porcentaje de puntos que proporciona a la nota final.\n * @param _index\n */\n    function ModificaEvaluacion(\n        string memory _nombre,\n        uint256 _fecha,\n        uint256 _porcentaje,\n        uint256 _index\n    ) public soloCoordinador soloAbierta {\n        Evaluacion memory ev = evaluaciones[_index];\n        ev.nombre = _nombre;\n        ev.fecha = _fecha;\n        ev.porcentaje = _porcentaje;\n        evaluaciones[_index] = ev;\n    }\n\n    /*       function DevolverEvaluacion(uint256 _index) public soloCoordinador soloAbierta returns (string memory _nombre, uint256 _fecha, uint256 _porcentaje) {\n \n\n        Evaluacion memory ev = evaluaciones[_index];\n        _nombre = ev.nombre;\n        _fecha = ev.fecha;\n        _porcentaje = ev.porcentaje;\n\n        return (_nombre, _fecha, _porcentaje);\n    }\n\n*/\n\n    /**\n     * El numero de evaluaciones creadas.\n     *\n     * @return El numero de evaluaciones creadas.\n     */\n    function evaluacionesLength() public view returns (uint256) {\n        return evaluaciones.length;\n    }\n\n    /**\n     * Poner la nota de un alumno en una evaluacion.\n     *\n     * @param alumno La direccion del alumno.\n     * @param evaluacion El indice de una evaluacion en el array evaluaciones.\n     * @param tipo Tipo de nota.\n     * @param calificacion La calificacion, multipilicada por 100 porque no hay decimales.\n     */\n    function califica(\n        address alumno,\n        uint256 evaluacion,\n        TipoNota tipo,\n        uint256 calificacion\n    ) public soloProfesor soloAbierta {\n        require(\n            estaMatriculado(alumno),\n            \"Solo se pueden calificar a un alumno matriculado.\"\n        );\n        require(\n            evaluacion < evaluaciones.length,\n            \"No se puede calificar una evaluacion que no existe.\"\n        );\n        require(\n            calificacion <= 1000,\n            \"No se puede calificar con una nota superior a la maxima permitida.\"\n        );\n        Nota memory nota = Nota(tipo, calificacion);\n\n        calificaciones[alumno][evaluacion] = nota;\n    }\n\n    /**\n * Devuelve el tipo de nota y la calificacion que ha sacado el alumno que invoca el metodo en la evaluacion\npasada como parametro.\n *\n * @param evaluacion Indice de una evaluacion en el array de evaluaciones.\n *\n * @return tipo El tipo de nota que ha sacado el alumno.\n * @return calificacion La calificacion que ha sacado el alumno.\n */\n    function miNota(uint256 evaluacion)\n        public\n        view\n        soloMatriculados\n        returns (TipoNota tipo, uint256 calificacion)\n    {\n        require(\n            evaluacion < evaluaciones.length,\n            \"El indice de la evaluacion no existe.\"\n        );\n\n        Nota memory nota = calificaciones[msg.sender][evaluacion];\n\n        tipo = nota.tipo;\n        calificacion = nota.calificacion;\n    }\n\n    /*\n     * Devuelve el tipo de nota y la calificacion que ha sacado de la direccion del alumno.\n     *\n     * @param evaluacion Indice de una evaluacion en el array de evaluaciones.\n     * @param _direccion\n     * @return tipo El tipo de nota que ha sacado el alumno.\n     * @return calificacion La calificacion que ha sacado el alumno.\n     */\n    function miNotaDir(uint256 evaluacion, address _direccion)\n        public\n        view\n        soloMatriculados\n        returns (TipoNota tipo, uint256 calificacion)\n    {\n        require(\n            evaluacion < evaluaciones.length,\n            \"El indice de la evaluacion no existe.\"\n        );\n\n        Nota memory nota = calificaciones[_direccion][evaluacion];\n\n        tipo = nota.tipo;\n        calificacion = nota.calificacion;\n    }\n\n    // Devuelve la nota final del alumno que llama al mtodo\n    // Si el tipo de nota de alguna de las evaluaciones es \"Empty\" no se le ha asignado la calificacin y el mtodo devuelve (Empty, 0)\n    // Si todas las calificaciones son NP, devuelve (NP, 0)\n    // Si la nota final es superior a 400 y hay alguna evaluacin NP, entonces devuelve como mximo 499\n    function miNotaFinal()\n        public\n        view\n        soloMatriculados\n        returns (TipoNota tipo, uint256 calificacion)\n    {\n        return _notaFinal(msg.sender);\n    }\n\n    //Devuelve la nota final del alumno indicado\n    function notaFinal(address _addr)\n        public\n        view\n        soloCoordinador\n        returns (TipoNota tipo, uint256 calificacion)\n    {\n        return _notaFinal(_addr);\n    }\n\n    function _notaFinal(address _addr)\n        private\n        view\n        returns (TipoNota tipo, uint256 calificacion)\n    {\n        tipo = TipoNota.NP;\n\n        for (uint256 i = 0; i < evaluaciones.length; i++) {\n            if (calificaciones[_addr][i].tipo == TipoNota.Empty) {\n                return (TipoNota.Empty, 0);\n            }\n            if (calificaciones[_addr][i].tipo == TipoNota.Normal) {\n                tipo = TipoNota.Normal;\n                continue;\n            }\n        }\n        if (tipo == TipoNota.NP) {\n            return (tipo, 0);\n        }\n\n        bool suspenso = false;\n        uint256 nota = 0;\n\n        for (uint256 i = 0; i < evaluaciones.length; i++) {\n            // if (\n            //     calificaciones[_addr][i].calificacion < evaluaciones[i].minimo\n            // ) {\n            //     suspenso = true;\n            // }\n            nota +=\n                (calificaciones[_addr][i].calificacion *\n                    evaluaciones[i].porcentaje) /\n                100;\n        }\n        if (suspenso && nota > 499) {\n            nota = 499;\n        }\n        tipo = TipoNota.Normal;\n        calificacion = nota;\n    }\n\n    /**\n     * Consulta si una direccion pertenece a un alumno matriculado.\n     *\n     * @param alumno La direccion de un alumno.\n     *\n     * @return true si es una alumno matriculado.\n     */\n    function estaMatriculado(address alumno) private view returns (bool) {\n        string memory _nombre = datosAlumno[alumno].nombre;\n\n        return bytes(_nombre).length != 0;\n    }\n\n    // Modificador para que una funcin solo la pueda ejecutar el owner\n    modifier soloOwner() {\n        require(msg.sender == owner, \"Solo permitido al owner\");\n        _;\n    }\n\n    // Modificador para que una funcin solo la pueda ejecutar el coordinador\n    modifier soloCoordinador() {\n        require(msg.sender == coordinador, \"Solo permitido al coordinador\");\n        _;\n    }\n\n    // Modificador para que una funcin solo la pueda ejecutar el profesor\n    modifier soloProfesor() {\n        string memory _nombre = datosProfesor[msg.sender];\n        require(bytes(_nombre).length != 0, \"Solo permitido al profesor\");\n        _;\n    }\n\n    /**\n     * Modificador para que una funcion solo la pueda ejecutar un alumno matriculado.\n     */\n    modifier soloMatriculados() {\n        require(\n            estaMatriculado(msg.sender),\n            \"Solo permitido a alumnos matriculados\"\n        );\n        _;\n    }\n\n    /**\n     * Modificador para que una funcion solo la pueda ejecutar un alumno no matriculado aun.\n     */\n    modifier soloNoMatriculados() {\n        require(\n            !estaMatriculado(msg.sender),\n            \"Solo permitido a alumnos no matriculados\"\n        );\n        _;\n    }\n\n    // Modificador para que una funcin solo la pueda ejecutar si la asignatura no est cerrada\n    modifier soloAbierta() {\n        require(!cerrada, \"Solo permitido si la asignatura no esta cerrada\");\n        _;\n    }\n\n    /**\n     * No se permite la recepcion de dinero.\n     */\n    receive() external payable {\n        revert(\"No se permite la recepcion de dinero.\");\n    }\n}\n",
  "sourcePath": "/home/kali/Desktop/BCDA /Asignatura/Asignatura/truffle/contracts/Asignatura.sol",
  "compiler": {
    "name": "solc",
    "version": "0.8.17+commit.8df45f5f.Emscripten.clang"
  },
  "schemaVersion": "3.4.11",
  "updatedAt": "2023-01-05T10:46:26.559Z",
  "networkType": "ethereum",
  "devdoc": {
    "kind": "dev",
    "methods": {
      "automatricula(string,string)": {
        "params": {
          "_email": "El email del alumno.",
          "_nombre": "El nombre del alumno."
        }
      },
      "califica(address,uint256,uint8,uint256)": {
        "params": {
          "alumno": "La direccion del alumno.",
          "calificacion": "La calificacion, multipilicada por 100 porque no hay decimales.",
          "evaluacion": "El indice de una evaluacion en el array evaluaciones.",
          "tipo": "Tipo de nota."
        }
      },
      "constructor": {
        "params": {
          "_curso": "Curso academico.",
          "_nombre": "Nombre de la asignatura."
        }
      },
      "creaEvaluacion(string,uint256,uint256)": {
        "params": {
          "_fecha": "La fecha de evaluacion (segundos desde el 1/1/1970).",
          "_nombre": "El nombre de la evaluacion.",
          "_porcentaje": "El porcentaje de puntos que proporciona a la nota final."
        },
        "returns": {
          "_0": "La posicion en el array evaluaciones,"
        }
      },
      "evaluacionesLength()": {
        "returns": {
          "_0": "El numero de evaluaciones creadas."
        }
      },
      "matriculaDir(string,string,address)": {
        "params": {
          "_addr": "La direccin del alumno.",
          "_email": "El email del alumno.",
          "_nombre": "El nombre del alumno."
        }
      },
      "matriculasLength()": {
        "returns": {
          "_0": "El numero de alumnos matriculados."
        }
      },
      "miNota(uint256)": {
        "params": {
          "evaluacion": "Indice de una evaluacion en el array de evaluaciones."
        },
        "returns": {
          "calificacion": "La calificacion que ha sacado el alumno.",
          "tipo": "El tipo de nota que ha sacado el alumno."
        }
      },
      "quienSoy()": {
        "returns": {
          "_email": "El email del alumno que invoca el metodo.",
          "_nombre": "El nombre del alumno que invoca el metodo."
        }
      }
    },
    "version": 1
  },
  "userdoc": {
    "kind": "user",
    "methods": {
      "automatricula(string,string)": {
        "notice": "Los alumnos pueden automatricularse con el metodo automatricula. Impedir que se pueda meter un nombre vacio."
      },
      "califica(address,uint256,uint8,uint256)": {
        "notice": "Poner la nota de un alumno en una evaluacion."
      },
      "constructor": {
        "notice": "Constructor."
      },
      "creaEvaluacion(string,uint256,uint256)": {
        "notice": "Crear una prueba de evaluacion de la asignatura. Por ejemplo, el primer parcial, o la practica 3. Las evaluaciones se meteran en el array evaluaciones, y nos referiremos a ellas por su posicion en el array."
      },
      "curso()": {
        "notice": "Curso academico"
      },
      "datosAlumno(address)": {
        "notice": "Acceder a los datos de un alumno dada su direccion."
      },
      "evaluaciones(uint256)": {
        "notice": "Evaluaciones de la asignatura."
      },
      "evaluacionesLength()": {
        "notice": "El numero de evaluaciones creadas."
      },
      "matriculaDir(string,string,address)": {
        "notice": "El owner puede matricular a los alumnos Impedir que se pueda meter un nombre vacio."
      },
      "matriculasLength()": {
        "notice": "El numero de alumnos matriculados."
      },
      "miNota(uint256)": {
        "notice": "Devuelve el tipo de nota y la calificacion que ha sacado el alumno que invoca el metodo en la evaluacion pasada como parametro."
      },
      "nombre()": {
        "notice": "Nombre de la asignatura"
      },
      "profesor()": {
        "notice": "address del profesor que ha desplegado el contrato. El contrato lo despliega el profesor."
      },
      "quienSoy()": {
        "notice": "Permite a un alumno obtener sus propios datos."
      },
      "version()": {
        "notice": "Version 2022 Lite - Teoria"
      }
    },
    "notice": "El contrato Asignatura que representa una asignatura de la carrera. Version Lite",
    "version": 1
  }
}