{
  "contractName": "Asignatura",
  "abi": [
    {
      "inputs": [
        {
          "internalType": "string",
          "name": "_nombre",
          "type": "string"
        },
        {
          "internalType": "string",
          "name": "_curso",
          "type": "string"
        }
      ],
      "stateMutability": "nonpayable",
      "type": "constructor"
    },
    {
      "inputs": [
        {
          "internalType": "address",
          "name": "",
          "type": "address"
        },
        {
          "internalType": "uint256",
          "name": "",
          "type": "uint256"
        }
      ],
      "name": "calificaciones",
      "outputs": [
        {
          "internalType": "enum Asignatura.TipoNota",
          "name": "tipo",
          "type": "uint8"
        },
        {
          "internalType": "uint256",
          "name": "calificacion",
          "type": "uint256"
        }
      ],
      "stateMutability": "view",
      "type": "function",
      "constant": true
    },
    {
      "inputs": [],
      "name": "cerrada",
      "outputs": [
        {
          "internalType": "bool",
          "name": "",
          "type": "bool"
        }
      ],
      "stateMutability": "view",
      "type": "function",
      "constant": true
    },
    {
      "inputs": [],
      "name": "coordinador",
      "outputs": [
        {
          "internalType": "address",
          "name": "",
          "type": "address"
        }
      ],
      "stateMutability": "view",
      "type": "function",
      "constant": true
    },
    {
      "inputs": [],
      "name": "curso",
      "outputs": [
        {
          "internalType": "string",
          "name": "",
          "type": "string"
        }
      ],
      "stateMutability": "view",
      "type": "function",
      "constant": true
    },
    {
      "inputs": [
        {
          "internalType": "address",
          "name": "",
          "type": "address"
        }
      ],
      "name": "datosAlumno",
      "outputs": [
        {
          "internalType": "string",
          "name": "nombre",
          "type": "string"
        },
        {
          "internalType": "string",
          "name": "email",
          "type": "string"
        }
      ],
      "stateMutability": "view",
      "type": "function",
      "constant": true
    },
    {
      "inputs": [
        {
          "internalType": "address",
          "name": "",
          "type": "address"
        }
      ],
      "name": "datosProfesor",
      "outputs": [
        {
          "internalType": "string",
          "name": "",
          "type": "string"
        }
      ],
      "stateMutability": "view",
      "type": "function",
      "constant": true
    },
    {
      "inputs": [
        {
          "internalType": "uint256",
          "name": "",
          "type": "uint256"
        }
      ],
      "name": "evaluaciones",
      "outputs": [
        {
          "internalType": "string",
          "name": "nombre",
          "type": "string"
        },
        {
          "internalType": "uint256",
          "name": "fecha",
          "type": "uint256"
        },
        {
          "internalType": "uint256",
          "name": "porcentaje",
          "type": "uint256"
        }
      ],
      "stateMutability": "view",
      "type": "function",
      "constant": true
    },
    {
      "inputs": [
        {
          "internalType": "uint256",
          "name": "",
          "type": "uint256"
        }
      ],
      "name": "matriculas",
      "outputs": [
        {
          "internalType": "address",
          "name": "",
          "type": "address"
        }
      ],
      "stateMutability": "view",
      "type": "function",
      "constant": true
    },
    {
      "inputs": [],
      "name": "nombre",
      "outputs": [
        {
          "internalType": "string",
          "name": "",
          "type": "string"
        }
      ],
      "stateMutability": "view",
      "type": "function",
      "constant": true
    },
    {
      "inputs": [],
      "name": "owner",
      "outputs": [
        {
          "internalType": "address",
          "name": "",
          "type": "address"
        }
      ],
      "stateMutability": "view",
      "type": "function",
      "constant": true
    },
    {
      "inputs": [
        {
          "internalType": "uint256",
          "name": "",
          "type": "uint256"
        }
      ],
      "name": "profesores",
      "outputs": [
        {
          "internalType": "address",
          "name": "",
          "type": "address"
        }
      ],
      "stateMutability": "view",
      "type": "function",
      "constant": true
    },
    {
      "inputs": [],
      "name": "version",
      "outputs": [
        {
          "internalType": "string",
          "name": "",
          "type": "string"
        }
      ],
      "stateMutability": "view",
      "type": "function",
      "constant": true
    },
    {
      "stateMutability": "payable",
      "type": "receive",
      "payable": true
    },
    {
      "inputs": [
        {
          "internalType": "address",
          "name": "addr",
          "type": "address"
        }
      ],
      "name": "setCoordinador",
      "outputs": [],
      "stateMutability": "nonpayable",
      "type": "function"
    },
    {
      "inputs": [],
      "name": "cerrar",
      "outputs": [],
      "stateMutability": "nonpayable",
      "type": "function"
    },
    {
      "inputs": [
        {
          "internalType": "address",
          "name": "_addr",
          "type": "address"
        },
        {
          "internalType": "string",
          "name": "_nombre",
          "type": "string"
        }
      ],
      "name": "addProfesor",
      "outputs": [],
      "stateMutability": "nonpayable",
      "type": "function"
    },
    {
      "inputs": [],
      "name": "profesoresLength",
      "outputs": [
        {
          "internalType": "uint256",
          "name": "",
          "type": "uint256"
        }
      ],
      "stateMutability": "view",
      "type": "function",
      "constant": true
    },
    {
      "inputs": [
        {
          "internalType": "string",
          "name": "_nombre",
          "type": "string"
        },
        {
          "internalType": "string",
          "name": "_email",
          "type": "string"
        }
      ],
      "name": "automatricula",
      "outputs": [],
      "stateMutability": "nonpayable",
      "type": "function"
    },
    {
      "inputs": [
        {
          "internalType": "string",
          "name": "_nombre",
          "type": "string"
        },
        {
          "internalType": "string",
          "name": "_email",
          "type": "string"
        },
        {
          "internalType": "address",
          "name": "_addr",
          "type": "address"
        }
      ],
      "name": "matriculaDir",
      "outputs": [],
      "stateMutability": "nonpayable",
      "type": "function"
    },
    {
      "inputs": [],
      "name": "matriculasLength",
      "outputs": [
        {
          "internalType": "uint256",
          "name": "",
          "type": "uint256"
        }
      ],
      "stateMutability": "view",
      "type": "function",
      "constant": true
    },
    {
      "inputs": [],
      "name": "quienSoy",
      "outputs": [
        {
          "internalType": "string",
          "name": "_nombre",
          "type": "string"
        },
        {
          "internalType": "string",
          "name": "_email",
          "type": "string"
        }
      ],
      "stateMutability": "view",
      "type": "function",
      "constant": true
    },
    {
      "inputs": [
        {
          "internalType": "string",
          "name": "_nombre",
          "type": "string"
        },
        {
          "internalType": "uint256",
          "name": "_fecha",
          "type": "uint256"
        },
        {
          "internalType": "uint256",
          "name": "_porcentaje",
          "type": "uint256"
        }
      ],
      "name": "creaEvaluacion",
      "outputs": [
        {
          "internalType": "uint256",
          "name": "",
          "type": "uint256"
        }
      ],
      "stateMutability": "nonpayable",
      "type": "function"
    },
    {
      "inputs": [
        {
          "internalType": "string",
          "name": "_nombre",
          "type": "string"
        },
        {
          "internalType": "uint256",
          "name": "_fecha",
          "type": "uint256"
        },
        {
          "internalType": "uint256",
          "name": "_porcentaje",
          "type": "uint256"
        },
        {
          "internalType": "uint256",
          "name": "_index",
          "type": "uint256"
        }
      ],
      "name": "modificaEvaluacion",
      "outputs": [],
      "stateMutability": "nonpayable",
      "type": "function"
    },
    {
      "inputs": [],
      "name": "evaluacionesLength",
      "outputs": [
        {
          "internalType": "uint256",
          "name": "",
          "type": "uint256"
        }
      ],
      "stateMutability": "view",
      "type": "function",
      "constant": true
    },
    {
      "inputs": [
        {
          "internalType": "address",
          "name": "alumno",
          "type": "address"
        },
        {
          "internalType": "uint256",
          "name": "evaluacion",
          "type": "uint256"
        },
        {
          "internalType": "enum Asignatura.TipoNota",
          "name": "tipo",
          "type": "uint8"
        },
        {
          "internalType": "uint256",
          "name": "calificacion",
          "type": "uint256"
        }
      ],
      "name": "califica",
      "outputs": [],
      "stateMutability": "nonpayable",
      "type": "function"
    },
    {
      "inputs": [
        {
          "internalType": "uint256",
          "name": "evaluacion",
          "type": "uint256"
        }
      ],
      "name": "miNota",
      "outputs": [
        {
          "internalType": "enum Asignatura.TipoNota",
          "name": "tipo",
          "type": "uint8"
        },
        {
          "internalType": "uint256",
          "name": "calificacion",
          "type": "uint256"
        }
      ],
      "stateMutability": "view",
      "type": "function",
      "constant": true
    },
    {
      "inputs": [
        {
          "internalType": "uint256",
          "name": "evaluacion",
          "type": "uint256"
        },
        {
          "internalType": "address",
          "name": "_direccion",
          "type": "address"
        }
      ],
      "name": "miNotaDir",
      "outputs": [
        {
          "internalType": "enum Asignatura.TipoNota",
          "name": "tipo",
          "type": "uint8"
        },
        {
          "internalType": "uint256",
          "name": "calificacion",
          "type": "uint256"
        }
      ],
      "stateMutability": "view",
      "type": "function",
      "constant": true
    },
    {
      "inputs": [],
      "name": "miNotaFinal",
      "outputs": [
        {
          "internalType": "enum Asignatura.TipoNota",
          "name": "tipo",
          "type": "uint8"
        },
        {
          "internalType": "uint256",
          "name": "calificacion",
          "type": "uint256"
        }
      ],
      "stateMutability": "view",
      "type": "function",
      "constant": true
    },
    {
      "inputs": [
        {
          "internalType": "address",
          "name": "_addr",
          "type": "address"
        }
      ],
      "name": "notaFinal",
      "outputs": [
        {
          "internalType": "enum Asignatura.TipoNota",
          "name": "tipo",
          "type": "uint8"
        },
        {
          "internalType": "uint256",
          "name": "calificacion",
          "type": "uint256"
        }
      ],
      "stateMutability": "view",
      "type": "function",
      "constant": true
    }
  ],
  "bytecode": "0x60806040526040518060400160405280600981526020017f32303232204c6974650000000000000000000000000000000000000000000000815250600090816200004a9190620003f3565b503480156200005857600080fd5b50604051620041613803806200416183398181016040528101906200007e91906200063e565b6000825103620000c5576040517f08c379a0000000000000000000000000000000000000000000000000000000008152600401620000bc906200074a565b60405180910390fd5b60008151036200010c576040517f08c379a00000000000000000000000000000000000000000000000000000000081526004016200010390620007e2565b60405180910390fd5b33600360006101000a81548173ffffffffffffffffffffffffffffffffffffffff021916908373ffffffffffffffffffffffffffffffffffffffff16021790555081600490816200015e9190620003f3565b508060059081620001709190620003f3565b50505062000804565b600081519050919050565b7f4e487b7100000000000000000000000000000000000000000000000000000000600052604160045260246000fd5b7f4e487b7100000000000000000000000000000000000000000000000000000000600052602260045260246000fd5b60006002820490506001821680620001fb57607f821691505b602082108103620002115762000210620001b3565b5b50919050565b60008190508160005260206000209050919050565b60006020601f8301049050919050565b600082821b905092915050565b6000600883026200027b7fffffffffffffffffffffffffffffffffffffffffffffffffffffffffffffffff826200023c565b6200028786836200023c565b95508019841693508086168417925050509392505050565b6000819050919050565b6000819050919050565b6000620002d4620002ce620002c8846200029f565b620002a9565b6200029f565b9050919050565b6000819050919050565b620002f083620002b3565b62000308620002ff82620002db565b84845462000249565b825550505050565b600090565b6200031f62000310565b6200032c818484620002e5565b505050565b5b8181101562000354576200034860008262000315565b60018101905062000332565b5050565b601f821115620003a3576200036d8162000217565b62000378846200022c565b8101602085101562000388578190505b620003a062000397856200022c565b83018262000331565b50505b505050565b600082821c905092915050565b6000620003c860001984600802620003a8565b1980831691505092915050565b6000620003e38383620003b5565b9150826002028217905092915050565b620003fe8262000179565b67ffffffffffffffff8111156200041a576200041962000184565b5b620004268254620001e2565b6200043382828562000358565b600060209050601f8311600181146200046b576000841562000456578287015190505b620004628582620003d5565b865550620004d2565b601f1984166200047b8662000217565b60005b82811015620004a5578489015182556001820191506020850194506020810190506200047e565b86831015620004c55784890151620004c1601f891682620003b5565b8355505b6001600288020188555050505b505050505050565b6000604051905090565b600080fd5b600080fd5b600080fd5b600080fd5b6000601f19601f8301169050919050565b6200051482620004f8565b810181811067ffffffffffffffff8211171562000536576200053562000184565b5b80604052505050565b60006200054b620004da565b905062000559828262000509565b919050565b600067ffffffffffffffff8211156200057c576200057b62000184565b5b6200058782620004f8565b9050602081019050919050565b60005b83811015620005b457808201518184015260208101905062000597565b60008484015250505050565b6000620005d7620005d1846200055e565b6200053f565b905082815260208101848484011115620005f657620005f5620004f3565b5b6200060384828562000594565b509392505050565b600082601f830112620006235762000622620004ee565b5b815162000635848260208601620005c0565b91505092915050565b60008060408385031215620006585762000657620004e4565b5b600083015167ffffffffffffffff811115620006795762000678620004e9565b5b62000687858286016200060b565b925050602083015167ffffffffffffffff811115620006ab57620006aa620004e9565b5b620006b9858286016200060b565b9150509250929050565b600082825260208201905092915050565b7f456c206e6f6d627265206465206c6120617369676e6174757261206e6f20707560008201527f6564652073657220766163696f00000000000000000000000000000000000000602082015250565b600062000732602d83620006c3565b91506200073f82620006d4565b604082019050919050565b60006020820190508181036000830152620007658162000723565b9050919050565b7f456c20637572736f2061636164656d69636f206465206c6120617369676e617460008201527f757261206e6f2070756564652073657220766163696f00000000000000000000602082015250565b6000620007ca603683620006c3565b9150620007d7826200076c565b604082019050919050565b60006020820190508181036000830152620007fd81620007bb565b9050919050565b61394d80620008146000396000f3fe6080604052600436106101bb5760003560e01c80636bf8aad6116100ec578063d00de47a1161008a578063d51b458411610064578063d51b4584146106bb578063dab6ff28146106e4578063deafcc41146106fb578063f967f98614610726576101fb565b8063d00de47a14610614578063d017da1f14610640578063d27c3f3c1461067d576101fb565b80639e1d8f4b116100c65780639e1d8f4b14610544578063bc7b35b21461056f578063c79181391461059a578063c8373750146105d7576101fb565b80636bf8aad6146104b05780637810ff1e146104ee5780638da5cb5b14610519576101fb565b806344f7a8cc1161015957806354fd4d501161013357806354fd4d50146103e15780635aa4ffe61461040c57806361d4c6ad1461044a578063641945bf14610473576101fb565b806344f7a8cc1461034b578063488cf4f51461038a57806353766883146103b5576101fb565b806322c4e3941161019557806322c4e3941461027b57806330322c9b146102a65780633b694af8146102cf57806342a6dde21461030d576101fb565b8063066408911461020057806307beee5e146102295780631d2e4d2b14610252576101fb565b366101fb576040517f08c379a00000000000000000000000000000000000000000000000000000000081526004016101f29061250b565b60405180910390fd5b600080fd5b34801561020c57600080fd5b50610227600480360381019061022291906126bb565b610751565b005b34801561023557600080fd5b50610250600480360381019061024b919061279c565b6108a7565b005b34801561025e57600080fd5b5061027960048036038101906102749190612827565b610ab5565b005b34801561028757600080fd5b50610290610d1b565b60405161029d919061289e565b60405180910390f35b3480156102b257600080fd5b506102cd60048036038101906102c891906128de565b610d2e565b005b3480156102db57600080fd5b506102f660048036038101906102f19190612945565b61107c565b604051610304929190612a0b565b60405180910390f35b34801561031957600080fd5b50610334600480360381019061032f9190612a34565b6111c8565b604051610342929190612a0b565b60405180910390f35b34801561035757600080fd5b50610372600480360381019061036d9190612a74565b611206565b60405161038193929190612b0f565b60405180910390f35b34801561039657600080fd5b5061039f6112c8565b6040516103ac9190612b4d565b60405180910390f35b3480156103c157600080fd5b506103ca6112d5565b6040516103d8929190612b68565b60405180910390f35b3480156103ed57600080fd5b506103f66114a5565b6040516104039190612b9f565b60405180910390f35b34801561041857600080fd5b50610433600480360381019061042e9190612bc1565b611533565b604051610441929190612a0b565b60405180910390f35b34801561045657600080fd5b50610471600480360381019061046c9190612bee565b6116b2565b005b34801561047f57600080fd5b5061049a60048036038101906104959190612bc1565b61182f565b6040516104a79190612b9f565b60405180910390f35b3480156104bc57600080fd5b506104d760048036038101906104d29190612bc1565b6118cf565b6040516104e5929190612b68565b60405180910390f35b3480156104fa57600080fd5b50610503611a03565b6040516105109190612c75565b60405180910390f35b34801561052557600080fd5b5061052e611a29565b60405161053b9190612c75565b60405180910390f35b34801561055057600080fd5b50610559611a4f565b6040516105669190612b4d565b60405180910390f35b34801561057b57600080fd5b50610584611a5c565b6040516105919190612b9f565b60405180910390f35b3480156105a657600080fd5b506105c160048036038101906105bc9190612a74565b611aea565b6040516105ce9190612c75565b60405180910390f35b3480156105e357600080fd5b506105fe60048036038101906105f99190612a74565b611b29565b60405161060b9190612c75565b60405180910390f35b34801561062057600080fd5b50610629611b68565b604051610637929190612a0b565b60405180910390f35b34801561064c57600080fd5b5061066760048036038101906106629190612c90565b611bc4565b6040516106749190612b4d565b60405180910390f35b34801561068957600080fd5b506106a4600480360381019061069f9190612a74565b611d77565b6040516106b2929190612a0b565b60405180910390f35b3480156106c757600080fd5b506106e260048036038101906106dd9190612bc1565b611ec1565b005b3480156106f057600080fd5b506106f9611fe5565b005b34801561070757600080fd5b50610710612092565b60405161071d9190612b9f565b60405180910390f35b34801561073257600080fd5b5061073b612120565b6040516107489190612b4d565b60405180910390f35b600660009054906101000a900473ffffffffffffffffffffffffffffffffffffffff1673ffffffffffffffffffffffffffffffffffffffff163373ffffffffffffffffffffffffffffffffffffffff16146107e1576040517f08c379a00000000000000000000000000000000000000000000000000000000081526004016107d890612d4b565b60405180910390fd5b600660149054906101000a900460ff1615610831576040517f08c379a000000000000000000000000000000000000000000000000000000000815260040161082890612ddd565b60405180910390fd5b60006040518060600160405280868152602001858152602001848152509050806009838154811061086557610864612dfd565b5b906000526020600020906003020160008201518160000190816108889190613038565b5060208201518160010155604082015181600201559050505050505050565b6108b03361212d565b156108f0576040517f08c379a00000000000000000000000000000000000000000000000000000000081526004016108e79061317c565b60405180910390fd5b600360009054906101000a900473ffffffffffffffffffffffffffffffffffffffff1673ffffffffffffffffffffffffffffffffffffffff163373ffffffffffffffffffffffffffffffffffffffff1614610980576040517f08c379a0000000000000000000000000000000000000000000000000000000008152600401610977906131e8565b60405180910390fd5b60008351036109c4576040517f08c379a00000000000000000000000000000000000000000000000000000000081526004016109bb90613254565b60405180910390fd5b6000604051806040016040528085815260200184815250905080600760008473ffffffffffffffffffffffffffffffffffffffff1673ffffffffffffffffffffffffffffffffffffffff1681526020019081526020016000206000820151816000019081610a329190613038565b506020820151816001019081610a489190613038565b509050506008829080600181540180825580915050600190039060005260206000200160009091909190916101000a81548173ffffffffffffffffffffffffffffffffffffffff021916908373ffffffffffffffffffffffffffffffffffffffff16021790555050505050565b600360009054906101000a900473ffffffffffffffffffffffffffffffffffffffff1673ffffffffffffffffffffffffffffffffffffffff163373ffffffffffffffffffffffffffffffffffffffff1614610b45576040517f08c379a0000000000000000000000000000000000000000000000000000000008152600401610b3c906131e8565b60405180910390fd5b600660149054906101000a900460ff1615610b95576040517f08c379a0000000000000000000000000000000000000000000000000000000008152600401610b8c90612ddd565b60405180910390fd5b6000600260008473ffffffffffffffffffffffffffffffffffffffff1673ffffffffffffffffffffffffffffffffffffffff1681526020019081526020016000208054610be190612e5b565b905014610c23576040517f08c379a0000000000000000000000000000000000000000000000000000000008152600401610c1a906132c0565b60405180910390fd5b6000815103610c67576040517f08c379a0000000000000000000000000000000000000000000000000000000008152600401610c5e90613352565b60405180910390fd5b80600260008473ffffffffffffffffffffffffffffffffffffffff1673ffffffffffffffffffffffffffffffffffffffff1681526020019081526020016000209081610cb39190613038565b506001829080600181540180825580915050600190039060005260206000200160009091909190916101000a81548173ffffffffffffffffffffffffffffffffffffffff021916908373ffffffffffffffffffffffffffffffffffffffff1602179055505050565b600660149054906101000a900460ff1681565b6000600260003373ffffffffffffffffffffffffffffffffffffffff1673ffffffffffffffffffffffffffffffffffffffff1681526020019081526020016000208054610d7a90612e5b565b80601f0160208091040260200160405190810160405280929190818152602001828054610da690612e5b565b8015610df35780601f10610dc857610100808354040283529160200191610df3565b820191906000526020600020905b815481529060010190602001808311610dd657829003601f168201915b5050505050905060008151141580610e585750600660009054906101000a900473ffffffffffffffffffffffffffffffffffffffff1673ffffffffffffffffffffffffffffffffffffffff163373ffffffffffffffffffffffffffffffffffffffff16145b610e97576040517f08c379a0000000000000000000000000000000000000000000000000000000008152600401610e8e906133e4565b60405180910390fd5b600660149054906101000a900460ff1615610ee7576040517f08c379a0000000000000000000000000000000000000000000000000000000008152600401610ede90612ddd565b60405180910390fd5b610ef08561212d565b610f2f576040517f08c379a0000000000000000000000000000000000000000000000000000000008152600401610f2690613476565b60405180910390fd5b6009805490508410610f76576040517f08c379a0000000000000000000000000000000000000000000000000000000008152600401610f6d90613508565b60405180910390fd5b6103e8821115610fbb576040517f08c379a0000000000000000000000000000000000000000000000000000000008152600401610fb2906135c0565b60405180910390fd5b60006040518060400160405280856002811115610fdb57610fda612985565b5b815260200184815250905080600a60008873ffffffffffffffffffffffffffffffffffffffff1673ffffffffffffffffffffffffffffffffffffffff168152602001908152602001600020600087815260200190815260200160002060008201518160000160006101000a81548160ff0219169083600281111561106257611061612985565b5b021790555060208201518160010155905050505050505050565b6000806110883361212d565b6110c7576040517f08c379a00000000000000000000000000000000000000000000000000000000081526004016110be90613652565b60405180910390fd5b600980549050841061110e576040517f08c379a0000000000000000000000000000000000000000000000000000000008152600401611105906136e4565b60405180910390fd5b6000600a60008573ffffffffffffffffffffffffffffffffffffffff1673ffffffffffffffffffffffffffffffffffffffff16815260200190815260200160002060008681526020019081526020016000206040518060400160405290816000820160009054906101000a900460ff1660028111156111905761118f612985565b5b60028111156111a2576111a1612985565b5b815260200160018201548152505090508060000151925080602001519150509250929050565b600a602052816000526040600020602052806000526040600020600091509150508060000160009054906101000a900460ff16908060010154905082565b6009818154811061121657600080fd5b906000526020600020906003020160009150905080600001805461123990612e5b565b80601f016020809104026020016040519081016040528092919081815260200182805461126590612e5b565b80156112b25780601f10611287576101008083540402835291602001916112b2565b820191906000526020600020905b81548152906001019060200180831161129557829003601f168201915b5050505050908060010154908060020154905083565b6000600980549050905090565b6060806112e13361212d565b611320576040517f08c379a000000000000000000000000000000000000000000000000000000000815260040161131790613652565b60405180910390fd5b6000600760003373ffffffffffffffffffffffffffffffffffffffff1673ffffffffffffffffffffffffffffffffffffffff16815260200190815260200160002060405180604001604052908160008201805461137c90612e5b565b80601f01602080910402602001604051908101604052809291908181526020018280546113a890612e5b565b80156113f55780601f106113ca576101008083540402835291602001916113f5565b820191906000526020600020905b8154815290600101906020018083116113d857829003601f168201915b5050505050815260200160018201805461140e90612e5b565b80601f016020809104026020016040519081016040528092919081815260200182805461143a90612e5b565b80156114875780601f1061145c57610100808354040283529160200191611487565b820191906000526020600020905b81548152906001019060200180831161146a57829003601f168201915b50505050508152505090508060000151925080602001519150509091565b600080546114b290612e5b565b80601f01602080910402602001604051908101604052809291908181526020018280546114de90612e5b565b801561152b5780601f106115005761010080835404028352916020019161152b565b820191906000526020600020905b81548152906001019060200180831161150e57829003601f168201915b505050505081565b6000806000600260003373ffffffffffffffffffffffffffffffffffffffff1673ffffffffffffffffffffffffffffffffffffffff168152602001908152602001600020805461158290612e5b565b80601f01602080910402602001604051908101604052809291908181526020018280546115ae90612e5b565b80156115fb5780601f106115d0576101008083540402835291602001916115fb565b820191906000526020600020905b8154815290600101906020018083116115de57829003601f168201915b50505050509050600081511415806116605750600660009054906101000a900473ffffffffffffffffffffffffffffffffffffffff1673ffffffffffffffffffffffffffffffffffffffff163373ffffffffffffffffffffffffffffffffffffffff16145b61169f576040517f08c379a0000000000000000000000000000000000000000000000000000000008152600401611696906133e4565b60405180910390fd5b6116a88461220b565b9250925050915091565b6116bb3361212d565b156116fb576040517f08c379a00000000000000000000000000000000000000000000000000000000081526004016116f29061317c565b60405180910390fd5b600082510361173f576040517f08c379a000000000000000000000000000000000000000000000000000000000815260040161173690613254565b60405180910390fd5b6000604051806040016040528084815260200183815250905080600760003373ffffffffffffffffffffffffffffffffffffffff1673ffffffffffffffffffffffffffffffffffffffff16815260200190815260200160002060008201518160000190816117ad9190613038565b5060208201518160010190816117c39190613038565b509050506008339080600181540180825580915050600190039060005260206000200160009091909190916101000a81548173ffffffffffffffffffffffffffffffffffffffff021916908373ffffffffffffffffffffffffffffffffffffffff160217905550505050565b6002602052806000526040600020600091509050805461184e90612e5b565b80601f016020809104026020016040519081016040528092919081815260200182805461187a90612e5b565b80156118c75780601f1061189c576101008083540402835291602001916118c7565b820191906000526020600020905b8154815290600101906020018083116118aa57829003601f168201915b505050505081565b60076020528060005260406000206000915090508060000180546118f290612e5b565b80601f016020809104026020016040519081016040528092919081815260200182805461191e90612e5b565b801561196b5780601f106119405761010080835404028352916020019161196b565b820191906000526020600020905b81548152906001019060200180831161194e57829003601f168201915b50505050509080600101805461198090612e5b565b80601f01602080910402602001604051908101604052809291908181526020018280546119ac90612e5b565b80156119f95780601f106119ce576101008083540402835291602001916119f9565b820191906000526020600020905b8154815290600101906020018083116119dc57829003601f168201915b5050505050905082565b600660009054906101000a900473ffffffffffffffffffffffffffffffffffffffff1681565b600360009054906101000a900473ffffffffffffffffffffffffffffffffffffffff1681565b6000600880549050905090565b60048054611a6990612e5b565b80601f0160208091040260200160405190810160405280929190818152602001828054611a9590612e5b565b8015611ae25780601f10611ab757610100808354040283529160200191611ae2565b820191906000526020600020905b815481529060010190602001808311611ac557829003601f168201915b505050505081565b60088181548110611afa57600080fd5b906000526020600020016000915054906101000a900473ffffffffffffffffffffffffffffffffffffffff1681565b60018181548110611b3957600080fd5b906000526020600020016000915054906101000a900473ffffffffffffffffffffffffffffffffffffffff1681565b600080611b743361212d565b611bb3576040517f08c379a0000000000000000000000000000000000000000000000000000000008152600401611baa90613652565b60405180910390fd5b611bbc3361220b565b915091509091565b6000600660009054906101000a900473ffffffffffffffffffffffffffffffffffffffff1673ffffffffffffffffffffffffffffffffffffffff163373ffffffffffffffffffffffffffffffffffffffff1614611c56576040517f08c379a0000000000000000000000000000000000000000000000000000000008152600401611c4d90612d4b565b60405180910390fd5b600660149054906101000a900460ff1615611ca6576040517f08c379a0000000000000000000000000000000000000000000000000000000008152600401611c9d90612ddd565b60405180910390fd5b6000845103611cea576040517f08c379a0000000000000000000000000000000000000000000000000000000008152600401611ce190613776565b60405180910390fd5b600960405180606001604052808681526020018581526020018481525090806001815401808255809150506001900390600052602060002090600302016000909190919091506000820151816000019081611d459190613038565b50602082015181600101556040820151816002015550506001600980549050611d6e91906137c5565b90509392505050565b600080611d833361212d565b611dc2576040517f08c379a0000000000000000000000000000000000000000000000000000000008152600401611db990613652565b60405180910390fd5b6009805490508310611e09576040517f08c379a0000000000000000000000000000000000000000000000000000000008152600401611e00906136e4565b60405180910390fd5b6000600a60003373ffffffffffffffffffffffffffffffffffffffff1673ffffffffffffffffffffffffffffffffffffffff16815260200190815260200160002060008581526020019081526020016000206040518060400160405290816000820160009054906101000a900460ff166002811115611e8b57611e8a612985565b5b6002811115611e9d57611e9c612985565b5b81526020016001820154815250509050806000015192508060200151915050915091565b600360009054906101000a900473ffffffffffffffffffffffffffffffffffffffff1673ffffffffffffffffffffffffffffffffffffffff163373ffffffffffffffffffffffffffffffffffffffff1614611f51576040517f08c379a0000000000000000000000000000000000000000000000000000000008152600401611f48906131e8565b60405180910390fd5b600660149054906101000a900460ff1615611fa1576040517f08c379a0000000000000000000000000000000000000000000000000000000008152600401611f9890612ddd565b60405180910390fd5b80600660006101000a81548173ffffffffffffffffffffffffffffffffffffffff021916908373ffffffffffffffffffffffffffffffffffffffff16021790555050565b600660009054906101000a900473ffffffffffffffffffffffffffffffffffffffff1673ffffffffffffffffffffffffffffffffffffffff163373ffffffffffffffffffffffffffffffffffffffff1614612075576040517f08c379a000000000000000000000000000000000000000000000000000000000815260040161206c90612d4b565b60405180910390fd5b6001600660146101000a81548160ff021916908315150217905550565b6005805461209f90612e5b565b80601f01602080910402602001604051908101604052809291908181526020018280546120cb90612e5b565b80156121185780601f106120ed57610100808354040283529160200191612118565b820191906000526020600020905b8154815290600101906020018083116120fb57829003601f168201915b505050505081565b6000600180549050905090565b600080600760008473ffffffffffffffffffffffffffffffffffffffff1673ffffffffffffffffffffffffffffffffffffffff168152602001908152602001600020600001805461217d90612e5b565b80601f01602080910402602001604051908101604052809291908181526020018280546121a990612e5b565b80156121f65780601f106121cb576101008083540402835291602001916121f6565b820191906000526020600020905b8154815290600101906020018083116121d957829003601f168201915b50505050509050600081511415915050919050565b6000806001915060005b600980549050811015612363576000600281111561223657612235612985565b5b600a60008673ffffffffffffffffffffffffffffffffffffffff1673ffffffffffffffffffffffffffffffffffffffff168152602001908152602001600020600083815260200190815260200160002060000160009054906101000a900460ff1660028111156122a9576122a8612985565b5b036122bb576000809250925050612483565b6002808111156122ce576122cd612985565b5b600a60008673ffffffffffffffffffffffffffffffffffffffff1673ffffffffffffffffffffffffffffffffffffffff168152602001908152602001600020600083815260200190815260200160002060000160009054906101000a900460ff16600281111561234157612340612985565b5b0361234f5760029250612350565b5b808061235b906137f9565b915050612215565b506001600281111561237857612377612985565b5b82600281111561238b5761238a612985565b5b0361239c5781600091509150612483565b60008060005b60098054905081101561245f576064600982815481106123c5576123c4612dfd565b5b906000526020600020906003020160020154600a60008973ffffffffffffffffffffffffffffffffffffffff1673ffffffffffffffffffffffffffffffffffffffff1681526020019081526020016000206000848152602001908152602001600020600101546124359190613841565b61243f91906138b2565b8261244a91906138e3565b91508080612457906137f9565b9150506123a2565b5081801561246e57506101f381115b15612479576101f390505b6002935080925050505b915091565b600082825260208201905092915050565b7f4e6f207365207065726d697465206c6120726563657063696f6e20646520646960008201527f6e65726f2e000000000000000000000000000000000000000000000000000000602082015250565b60006124f5602583612488565b915061250082612499565b604082019050919050565b60006020820190508181036000830152612524816124e8565b9050919050565b6000604051905090565b600080fd5b600080fd5b600080fd5b600080fd5b6000601f19601f8301169050919050565b7f4e487b7100000000000000000000000000000000000000000000000000000000600052604160045260246000fd5b61259282612549565b810181811067ffffffffffffffff821117156125b1576125b061255a565b5b80604052505050565b60006125c461252b565b90506125d08282612589565b919050565b600067ffffffffffffffff8211156125f0576125ef61255a565b5b6125f982612549565b9050602081019050919050565b82818337600083830152505050565b6000612628612623846125d5565b6125ba565b90508281526020810184848401111561264457612643612544565b5b61264f848285612606565b509392505050565b600082601f83011261266c5761266b61253f565b5b813561267c848260208601612615565b91505092915050565b6000819050919050565b61269881612685565b81146126a357600080fd5b50565b6000813590506126b58161268f565b92915050565b600080600080608085870312156126d5576126d4612535565b5b600085013567ffffffffffffffff8111156126f3576126f261253a565b5b6126ff87828801612657565b9450506020612710878288016126a6565b9350506040612721878288016126a6565b9250506060612732878288016126a6565b91505092959194509250565b600073ffffffffffffffffffffffffffffffffffffffff82169050919050565b60006127698261273e565b9050919050565b6127798161275e565b811461278457600080fd5b50565b60008135905061279681612770565b92915050565b6000806000606084860312156127b5576127b4612535565b5b600084013567ffffffffffffffff8111156127d3576127d261253a565b5b6127df86828701612657565b935050602084013567ffffffffffffffff811115612800576127ff61253a565b5b61280c86828701612657565b925050604061281d86828701612787565b9150509250925092565b6000806040838503121561283e5761283d612535565b5b600061284c85828601612787565b925050602083013567ffffffffffffffff81111561286d5761286c61253a565b5b61287985828601612657565b9150509250929050565b60008115159050919050565b61289881612883565b82525050565b60006020820190506128b3600083018461288f565b92915050565b600381106128c657600080fd5b50565b6000813590506128d8816128b9565b92915050565b600080600080608085870312156128f8576128f7612535565b5b600061290687828801612787565b9450506020612917878288016126a6565b9350506040612928878288016128c9565b9250506060612939878288016126a6565b91505092959194509250565b6000806040838503121561295c5761295b612535565b5b600061296a858286016126a6565b925050602061297b85828601612787565b9150509250929050565b7f4e487b7100000000000000000000000000000000000000000000000000000000600052602160045260246000fd5b600381106129c5576129c4612985565b5b50565b60008190506129d6826129b4565b919050565b60006129e6826129c8565b9050919050565b6129f6816129db565b82525050565b612a0581612685565b82525050565b6000604082019050612a2060008301856129ed565b612a2d60208301846129fc565b9392505050565b60008060408385031215612a4b57612a4a612535565b5b6000612a5985828601612787565b9250506020612a6a858286016126a6565b9150509250929050565b600060208284031215612a8a57612a89612535565b5b6000612a98848285016126a6565b91505092915050565b600081519050919050565b60005b83811015612aca578082015181840152602081019050612aaf565b60008484015250505050565b6000612ae182612aa1565b612aeb8185612488565b9350612afb818560208601612aac565b612b0481612549565b840191505092915050565b60006060820190508181036000830152612b298186612ad6565b9050612b3860208301856129fc565b612b4560408301846129fc565b949350505050565b6000602082019050612b6260008301846129fc565b92915050565b60006040820190508181036000830152612b828185612ad6565b90508181036020830152612b968184612ad6565b90509392505050565b60006020820190508181036000830152612bb98184612ad6565b905092915050565b600060208284031215612bd757612bd6612535565b5b6000612be584828501612787565b91505092915050565b60008060408385031215612c0557612c04612535565b5b600083013567ffffffffffffffff811115612c2357612c2261253a565b5b612c2f85828601612657565b925050602083013567ffffffffffffffff811115612c5057612c4f61253a565b5b612c5c85828601612657565b9150509250929050565b612c6f8161275e565b82525050565b6000602082019050612c8a6000830184612c66565b92915050565b600080600060608486031215612ca957612ca8612535565b5b600084013567ffffffffffffffff811115612cc757612cc661253a565b5b612cd386828701612657565b9350506020612ce4868287016126a6565b9250506040612cf5868287016126a6565b9150509250925092565b7f536f6c6f207065726d697469646f20616c20636f6f7264696e61646f72000000600082015250565b6000612d35601d83612488565b9150612d4082612cff565b602082019050919050565b60006020820190508181036000830152612d6481612d28565b9050919050565b7f536f6c6f207065726d697469646f207369206c6120617369676e61747572612060008201527f6e6f206573746120636572726164610000000000000000000000000000000000602082015250565b6000612dc7602f83612488565b9150612dd282612d6b565b604082019050919050565b60006020820190508181036000830152612df681612dba565b9050919050565b7f4e487b7100000000000000000000000000000000000000000000000000000000600052603260045260246000fd5b7f4e487b7100000000000000000000000000000000000000000000000000000000600052602260045260246000fd5b60006002820490506001821680612e7357607f821691505b602082108103612e8657612e85612e2c565b5b50919050565b60008190508160005260206000209050919050565b60006020601f8301049050919050565b600082821b905092915050565b600060088302612eee7fffffffffffffffffffffffffffffffffffffffffffffffffffffffffffffffff82612eb1565b612ef88683612eb1565b95508019841693508086168417925050509392505050565b6000819050919050565b6000612f35612f30612f2b84612685565b612f10565b612685565b9050919050565b6000819050919050565b612f4f83612f1a565b612f63612f5b82612f3c565b848454612ebe565b825550505050565b600090565b612f78612f6b565b612f83818484612f46565b505050565b5b81811015612fa757612f9c600082612f70565b600181019050612f89565b5050565b601f821115612fec57612fbd81612e8c565b612fc684612ea1565b81016020851015612fd5578190505b612fe9612fe185612ea1565b830182612f88565b50505b505050565b600082821c905092915050565b600061300f60001984600802612ff1565b1980831691505092915050565b60006130288383612ffe565b9150826002028217905092915050565b61304182612aa1565b67ffffffffffffffff81111561305a5761305961255a565b5b6130648254612e5b565b61306f828285612fab565b600060209050601f8311600181146130a25760008415613090578287015190505b61309a858261301c565b865550613102565b601f1984166130b086612e8c565b60005b828110156130d8578489015182556001820191506020850194506020810190506130b3565b868310156130f557848901516130f1601f891682612ffe565b8355505b6001600288020188555050505b505050505050565b7f536f6c6f207065726d697469646f206120616c756d6e6f73206e6f206d61747260008201527f6963756c61646f73000000000000000000000000000000000000000000000000602082015250565b6000613166602883612488565b91506131718261310a565b604082019050919050565b6000602082019050818103600083015261319581613159565b9050919050565b7f536f6c6f207065726d697469646f20616c206f776e6572000000000000000000600082015250565b60006131d2601783612488565b91506131dd8261319c565b602082019050919050565b60006020820190508181036000830152613201816131c5565b9050919050565b7f456c206e6f6d627265206e6f2070756564652073657220766163696f00000000600082015250565b600061323e601c83612488565b915061324982613208565b602082019050919050565b6000602082019050818103600083015261326d81613231565b9050919050565b7f4573652070726f6665736f72207961206861207369646f206164646564000000600082015250565b60006132aa601d83612488565b91506132b582613274565b602082019050919050565b600060208201905081810360008301526132d98161329d565b9050919050565b7f456c206e6f6d6272652064656c2070726f6665736f72206e6f2070756564652060008201527f657374617220766163696f000000000000000000000000000000000000000000602082015250565b600061333c602b83612488565b9150613347826132e0565b604082019050919050565b6000602082019050818103600083015261336b8161332f565b9050919050565b7f536f6c6f207065726d697469646f20616c2070726f6665736f72206f20636f6f60008201527f7264696e61646f72000000000000000000000000000000000000000000000000602082015250565b60006133ce602883612488565b91506133d982613372565b604082019050919050565b600060208201905081810360008301526133fd816133c1565b9050919050565b7f536f6c6f2073652070756564656e2063616c696669636172206120756e20616c60008201527f756d6e6f206d6174726963756c61646f2e000000000000000000000000000000602082015250565b6000613460603183612488565b915061346b82613404565b604082019050919050565b6000602082019050818103600083015261348f81613453565b9050919050565b7f4e6f2073652070756564652063616c69666963617220756e61206576616c756160008201527f63696f6e20717565206e6f206578697374652e00000000000000000000000000602082015250565b60006134f2603383612488565b91506134fd82613496565b604082019050919050565b60006020820190508181036000830152613521816134e5565b9050919050565b7f4e6f2073652070756564652063616c69666963617220636f6e20756e61206e6f60008201527f7461207375706572696f722061206c61206d6178696d61207065726d6974696460208201527f612e000000000000000000000000000000000000000000000000000000000000604082015250565b60006135aa604283612488565b91506135b582613528565b606082019050919050565b600060208201905081810360008301526135d98161359d565b9050919050565b7f536f6c6f207065726d697469646f206120616c756d6e6f73206d61747269637560008201527f6c61646f73000000000000000000000000000000000000000000000000000000602082015250565b600061363c602583612488565b9150613647826135e0565b604082019050919050565b6000602082019050818103600083015261366b8161362f565b9050919050565b7f456c20696e64696365206465206c61206576616c756163696f6e206e6f20657860008201527f697374652e000000000000000000000000000000000000000000000000000000602082015250565b60006136ce602583612488565b91506136d982613672565b604082019050919050565b600060208201905081810360008301526136fd816136c1565b9050919050565b7f456c206e6f6d627265206465206c61206576616c756163696f6e206e6f20707560008201527f6564652073657220766163696f00000000000000000000000000000000000000602082015250565b6000613760602d83612488565b915061376b82613704565b604082019050919050565b6000602082019050818103600083015261378f81613753565b9050919050565b7f4e487b7100000000000000000000000000000000000000000000000000000000600052601160045260246000fd5b60006137d082612685565b91506137db83612685565b92508282039050818111156137f3576137f2613796565b5b92915050565b600061380482612685565b91507fffffffffffffffffffffffffffffffffffffffffffffffffffffffffffffffff820361383657613835613796565b5b600182019050919050565b600061384c82612685565b915061385783612685565b925082820261386581612685565b9150828204841483151761387c5761387b613796565b5b5092915050565b7f4e487b7100000000000000000000000000000000000000000000000000000000600052601260045260246000fd5b60006138bd82612685565b91506138c883612685565b9250826138d8576138d7613883565b5b828204905092915050565b60006138ee82612685565b91506138f983612685565b925082820190508082111561391157613910613796565b5b9291505056fea2646970667358221220e57f9399c62d2a9b3e01ecc30ce47590c15cd2e0363aae2ebc4041e37845bf7e64736f6c63430008110033",
  "immutableReferences": {},
  "source": "// SPDX-License-Identifier: UNLICENSED\npragma solidity ^0.8.16;\n\n/**\n * El contrato Asignatura que representa una asignatura de la carrera.\n *\n * Version Lite\n */\ncontract Asignatura {\n    /// Version 2022 Lite - Teoria\n    string public version = \"2022 Lite\";\n\n\n    // Array con las direcciones de los profesores aadidos\n    address[] public profesores;\n\n    // Acceder al nombre de un profesor dada su direccin\n    mapping(address => string) public datosProfesor;\n\n    // Direccin del owner\n    address public owner;\n\n    /// Nombre de la asignatura\n    string public nombre;\n\n    /// Curso academico\n    string public curso;\n\n    // Coordinador de la asignatura\n    address public coordinador;\n\n    // Coordinador de la asignatura\n    bool public cerrada;\n\n    /// Datos de un alumno.\n    struct DatosAlumno {\n        string nombre;\n        string email;\n    }\n\n    /// Acceder a los datos de un alumno dada su direccion.\n    mapping(address => DatosAlumno) public datosAlumno;\n\n    // Array con las direcciones de los alumnos matriculados.\n    address[] public matriculas;\n\n    /**\n     * Datos de una evaluacion.\n     */\n    struct Evaluacion {\n        string nombre;\n        uint256 fecha;\n        uint256 porcentaje;\n    }\n\n    /// Evaluaciones de la asignatura.\n    Evaluacion[] public evaluaciones;\n\n    /// Tipos de notas: sin usar, no presentado, y nota normal entre 0 y 1000.\n    enum TipoNota {\n        Empty,\n        NP,\n        Normal\n    }\n\n    /**\n     * Datos de una nota.\n     * La calificacion esta multiplicada por 100 porque no hay decimales.\n     */\n    struct Nota {\n        TipoNota tipo;\n        uint256 calificacion;\n    }\n\n    // Dada la direccion de un alumno, y el indice de la evaluacion, devuelve\n    // la nota del alumno.\n    mapping(address => mapping(uint256 => Nota)) public calificaciones;\n\n    /**\n     * Constructor.\n     *\n     * @param _nombre Nombre de la asignatura.\n     * @param _curso Curso academico.\n     */\n    constructor(string memory _nombre, string memory _curso) {\n        require(\n            bytes(_nombre).length != 0,\n            \"El nombre de la asignatura no puede ser vacio\"\n        );\n        require(\n            bytes(_curso).length != 0,\n            \"El curso academico de la asignatura no puede ser vacio\"\n        );\n\n        owner = msg.sender;\n        nombre = _nombre;\n        curso = _curso;\n    }\n\n    // Asignar la adireccin del usuario coordinador\n    function setCoordinador(address addr) public soloOwner soloAbierta {\n        coordinador = addr;\n    }\n\n    // Cerrar la asignatura\n    function cerrar() public soloCoordinador {\n        cerrada = true;\n    }\n\n    // Aadir un profesor nuevo. Impedir que se pueda meter un nombre vaco\n    function addProfesor(address _addr, string memory _nombre)\n        public\n        soloOwner\n        soloAbierta\n    {\n        require(\n            bytes(datosProfesor[_addr]).length == 0,\n            \"Ese profesor ya ha sido added\"\n        );\n        require(\n            bytes(_nombre).length != 0,\n            \"El nombre del profesor no puede estar vacio\"\n        );\n\n        datosProfesor[_addr] = _nombre;\n        profesores.push(_addr);\n    }\n\n    // Devolver nmero de profesores aadidos\n    function profesoresLength() public view returns (uint256) {\n        return profesores.length;\n    }\n\n    /**\n     * Los alumnos pueden automatricularse con el metodo automatricula.\n     *\n     * Impedir que se pueda meter un nombre vacio.\n     *\n     * @param _nombre El nombre del alumno.\n     * @param _email El email del alumno.\n     */\n    function automatricula(string memory _nombre, string memory _email)\n        public\n        soloNoMatriculados\n    {\n        require(bytes(_nombre).length != 0, \"El nombre no puede ser vacio\");\n        DatosAlumno memory datos = DatosAlumno(_nombre, _email);\n        datosAlumno[msg.sender] = datos;\n        matriculas.push(msg.sender);\n    }\n\n    /**\n     * El owner puede matricular a los alumnos\n     *\n     * Impedir que se pueda meter un nombre vacio.\n     *\n     * @param _nombre El nombre del alumno.\n     * @param _email El email del alumno.\n     * @param _addr La direccin del alumno.\n     */\n    function matriculaDir(\n        string memory _nombre,\n        string memory _email,\n        address _addr\n    ) public soloNoMatriculados soloOwner {\n        require(bytes(_nombre).length != 0, \"El nombre no puede ser vacio\");\n        DatosAlumno memory datos = DatosAlumno(_nombre, _email);\n        datosAlumno[_addr] = datos;\n        matriculas.push(_addr);\n    }\n\n    /**\n     * El numero de alumnos matriculados.\n     *\n     * @return El numero de alumnos matriculados.\n     */\n    function matriculasLength() public view returns (uint256) {\n        return matriculas.length;\n    }\n\n    /**\n     * Permite a un alumno obtener sus propios datos.\n     *\n     * @return _nombre El nombre del alumno que invoca el metodo.\n     * @return _email El email del alumno que invoca el metodo.\n     */\n    function quienSoy()\n        public\n        view\n        soloMatriculados\n        returns (string memory _nombre, string memory _email)\n    {\n        DatosAlumno memory datos = datosAlumno[msg.sender];\n        _nombre = datos.nombre;\n        _email = datos.email;\n    }\n\n    /**\n * Crear una prueba de evaluacion de la asignatura. Por ejemplo, el primer parcial, o la practica 3.\n *\n * Las evaluaciones se meteran en el array evaluaciones, y nos referiremos a ellas por su posicion en el\narray.\n *\n * @param _nombre El nombre de la evaluacion.\n * @param _fecha La fecha de evaluacion (segundos desde el 1/1/1970).\n * @param _porcentaje El porcentaje de puntos que proporciona a la nota final.\n *\n * @return La posicion en el array evaluaciones,\n */\n    function creaEvaluacion(\n        string memory _nombre,\n        uint256 _fecha,\n        uint256 _porcentaje\n    ) public soloCoordinador soloAbierta returns (uint256) {\n        require(\n            bytes(_nombre).length != 0,\n            \"El nombre de la evaluacion no puede ser vacio\"\n        );\n\n        evaluaciones.push(Evaluacion(_nombre, _fecha, _porcentaje));\n        return evaluaciones.length - 1;\n    }\n\n    /**\n * Modifica una prueba de evaluacion de la asignatura. Por ejemplo, el primer parcial, o la practica 3.\n *\n * Las evaluaciones se meteran en el array evaluaciones, y nos referiremos a ellas por su posicion en el\narray.\n *\n * @param _nombre El nombre de la evaluacion.\n * @param _fecha La fecha de evaluacion (segundos desde el 1/1/1970).\n * @param _porcentaje El porcentaje de puntos que proporciona a la nota final.\n * @param _index El indice de evaluacion\n */\n    function modificaEvaluacion(\n        string memory _nombre,\n        uint256 _fecha,\n        uint256 _porcentaje,\n        uint256 _index\n    ) public soloCoordinador soloAbierta {\n        Evaluacion memory ev = Evaluacion(_nombre, _fecha, _porcentaje);\n        evaluaciones[_index] = ev;\n    }\n\n\n\n    /**\n     * El numero de evaluaciones creadas.\n     *\n     * @return El numero de evaluaciones creadas.\n     */\n    function evaluacionesLength() public view returns (uint256) {\n        return evaluaciones.length;\n    }\n\n    /**\n     * Poner la nota de un alumno en una evaluacion.\n     *\n     * @param alumno La direccion del alumno.\n     * @param evaluacion El indice de una evaluacion en el array evaluaciones.\n     * @param tipo Tipo de nota.\n     * @param calificacion La calificacion, multipilicada por 100 porque no hay decimales.\n     */\n    function califica(\n        address alumno,\n        uint256 evaluacion,\n        TipoNota tipo,\n        uint256 calificacion\n    ) public soloProfesor_o_soloCoordinador soloAbierta {\n        require(\n            estaMatriculado(alumno),\n            \"Solo se pueden calificar a un alumno matriculado.\"\n        );\n        require(\n            evaluacion < evaluaciones.length,\n            \"No se puede calificar una evaluacion que no existe.\"\n        );\n        require(\n            calificacion <= 1000,\n            \"No se puede calificar con una nota superior a la maxima permitida.\"\n        );\n        Nota memory nota = Nota(tipo, calificacion);\n\n        calificaciones[alumno][evaluacion] = nota;\n    }\n\n    /**\n * Devuelve el tipo de nota y la calificacion que ha sacado el alumno que invoca el metodo en la evaluacion\npasada como parametro.\n *\n * @param evaluacion Indice de una evaluacion en el array de evaluaciones.\n *\n * @return tipo El tipo de nota que ha sacado el alumno.\n * @return calificacion La calificacion que ha sacado el alumno.\n */\n    function miNota(uint256 evaluacion)\n        public\n        view\n        soloMatriculados\n        returns (TipoNota tipo, uint256 calificacion)\n    {\n        require(\n            evaluacion < evaluaciones.length,\n            \"El indice de la evaluacion no existe.\"\n        );\n\n        Nota memory nota = calificaciones[msg.sender][evaluacion];\n\n        tipo = nota.tipo;\n        calificacion = nota.calificacion;\n    }\n\n    /*\n     * Devuelve el tipo de nota y la calificacion que ha sacado de la direccion del alumno.\n     *\n     * @param evaluacion Indice de una evaluacion en el array de evaluaciones.\n     * @param _direccion\n     * @return tipo El tipo de nota que ha sacado el alumno.\n     * @return calificacion La calificacion que ha sacado el alumno.\n     */\n    function miNotaDir(uint256 evaluacion, address _direccion)\n        public\n        view\n        soloMatriculados\n        returns (TipoNota tipo, uint256 calificacion)\n    {\n        require(\n            evaluacion < evaluaciones.length,\n            \"El indice de la evaluacion no existe.\"\n        );\n\n        Nota memory nota = calificaciones[_direccion][evaluacion];\n\n        tipo = nota.tipo;\n        calificacion = nota.calificacion;\n    }\n\n    // Devuelve la nota final del alumno que llama al mtodo\n    // Si el tipo de nota de alguna de las evaluaciones es \"Empty\" no se le ha asignado la calificacin y el mtodo devuelve (Empty, 0)\n    // Si todas las calificaciones son NP, devuelve (NP, 0)\n    // Si la nota final es superior a 400 y hay alguna evaluacin NP, entonces devuelve como mximo 499\n    function miNotaFinal()\n        public\n        view\n        soloMatriculados\n        returns (TipoNota tipo, uint256 calificacion)\n    {\n        return _notaFinal(msg.sender);\n    }\n\n    //Devuelve la nota final del alumno indicado\n    function notaFinal(address _addr)\n        public\n        view\n        soloProfesor_o_soloCoordinador\n        returns (TipoNota tipo, uint256 calificacion)\n    {\n        return _notaFinal(_addr);\n    }\n\n\n    function _notaFinal(address _addr)\n        private\n        view\n        returns (TipoNota tipo, uint256 calificacion)\n    {\n        tipo = TipoNota.NP;\n\n        for (uint256 i = 0; i < evaluaciones.length; i++) {\n            if (calificaciones[_addr][i].tipo == TipoNota.Empty) {\n                return (TipoNota.Empty, 0);\n            }\n            if (calificaciones[_addr][i].tipo == TipoNota.Normal) {\n                tipo = TipoNota.Normal;\n                continue;\n            }\n        }\n        if (tipo == TipoNota.NP) {\n            return (tipo, 0);\n        }\n\n        bool suspenso = false;\n        uint256 nota = 0;\n\n        for (uint256 i = 0; i < evaluaciones.length; i++) {\n            // if (\n            //     calificaciones[_addr][i].calificacion < evaluaciones[i].minimo\n            // ) {\n            //     suspenso = true;\n            // }\n            nota +=\n                (calificaciones[_addr][i].calificacion *\n                    evaluaciones[i].porcentaje) /\n                100;\n        }\n        if (suspenso && nota > 499) {\n            nota = 499;\n        }\n        tipo = TipoNota.Normal;\n        calificacion = nota;\n    }\n\n    /**\n     * Consulta si una direccion pertenece a un alumno matriculado.\n     *\n     * @param alumno La direccion de un alumno.\n     *\n     * @return true si es una alumno matriculado.\n     */\n    function estaMatriculado(address alumno) private view returns (bool) {\n        string memory _nombre = datosAlumno[alumno].nombre;\n\n        return bytes(_nombre).length != 0;\n    }\n\n    // Modificador para que una funcin solo la pueda ejecutar el owner\n    modifier soloOwner() {\n        require(msg.sender == owner, \"Solo permitido al owner\");\n        _;\n    }\n\n    // Modificador para que una funcin solo la pueda ejecutar el coordinador\n    modifier soloCoordinador() {\n        require(msg.sender == coordinador, \"Solo permitido al coordinador\");\n        _;\n    }\n\n    // Modificador para que una funcin solo la pueda ejecutar el profesor\n    modifier soloProfesor() {\n        string memory _nombre = datosProfesor[msg.sender];\n        require(bytes(_nombre).length != 0, \"Solo permitido al profesor\");\n        _;\n    }\n\n    // Modificador para que una funcin solo la pueda ejecutar el profesor o coordinador\n    modifier soloProfesor_o_soloCoordinador() {\n        string memory _nombre = datosProfesor[msg.sender];\n        require(\n            (bytes(_nombre).length != 0) || msg.sender == coordinador,\n            \"Solo permitido al profesor o coordinador\"\n        );\n        _;\n    }\n\n    /**\n     * Modificador para que una funcion solo la pueda ejecutar un alumno matriculado.\n     */\n    modifier soloMatriculados() {\n        require(\n            estaMatriculado(msg.sender),\n            \"Solo permitido a alumnos matriculados\"\n        );\n        _;\n    }\n\n    /**\n     * Modificador para que una funcion solo la pueda ejecutar un alumno no matriculado aun.\n     */\n    modifier soloNoMatriculados() {\n        require(\n            !estaMatriculado(msg.sender),\n            \"Solo permitido a alumnos no matriculados\"\n        );\n        _;\n    }\n\n    // Modificador para que una funcin solo la pueda ejecutar si la asignatura no est cerrada\n    modifier soloAbierta() {\n        require(!cerrada, \"Solo permitido si la asignatura no esta cerrada\");\n        _;\n    }\n\n    /**\n     * No se permite la recepcion de dinero.\n     */\n    receive() external payable {\n        revert(\"No se permite la recepcion de dinero.\");\n    }\n}\n",
  "sourcePath": "/home/kali/Desktop/BCDA /Asignatura/Asignatura/truffle/contracts/Asignatura.sol",
  "compiler": {
    "name": "solc",
    "version": "0.8.17+commit.8df45f5f.Emscripten.clang"
  },
  "schemaVersion": "3.4.11",
  "updatedAt": "2023-01-07T10:35:45.871Z",
  "networkType": "ethereum",
  "devdoc": {
    "kind": "dev",
    "methods": {
      "automatricula(string,string)": {
        "params": {
          "_email": "El email del alumno.",
          "_nombre": "El nombre del alumno."
        }
      },
      "califica(address,uint256,uint8,uint256)": {
        "params": {
          "alumno": "La direccion del alumno.",
          "calificacion": "La calificacion, multipilicada por 100 porque no hay decimales.",
          "evaluacion": "El indice de una evaluacion en el array evaluaciones.",
          "tipo": "Tipo de nota."
        }
      },
      "constructor": {
        "params": {
          "_curso": "Curso academico.",
          "_nombre": "Nombre de la asignatura."
        }
      },
      "creaEvaluacion(string,uint256,uint256)": {
        "params": {
          "_fecha": "La fecha de evaluacion (segundos desde el 1/1/1970).",
          "_nombre": "El nombre de la evaluacion.",
          "_porcentaje": "El porcentaje de puntos que proporciona a la nota final."
        },
        "returns": {
          "_0": "La posicion en el array evaluaciones,"
        }
      },
      "evaluacionesLength()": {
        "returns": {
          "_0": "El numero de evaluaciones creadas."
        }
      },
      "matriculaDir(string,string,address)": {
        "params": {
          "_addr": "La direccin del alumno.",
          "_email": "El email del alumno.",
          "_nombre": "El nombre del alumno."
        }
      },
      "matriculasLength()": {
        "returns": {
          "_0": "El numero de alumnos matriculados."
        }
      },
      "miNota(uint256)": {
        "params": {
          "evaluacion": "Indice de una evaluacion en el array de evaluaciones."
        },
        "returns": {
          "calificacion": "La calificacion que ha sacado el alumno.",
          "tipo": "El tipo de nota que ha sacado el alumno."
        }
      },
      "modificaEvaluacion(string,uint256,uint256,uint256)": {
        "params": {
          "_fecha": "La fecha de evaluacion (segundos desde el 1/1/1970).",
          "_index": "El indice de evaluacion",
          "_nombre": "El nombre de la evaluacion.",
          "_porcentaje": "El porcentaje de puntos que proporciona a la nota final."
        }
      },
      "quienSoy()": {
        "returns": {
          "_email": "El email del alumno que invoca el metodo.",
          "_nombre": "El nombre del alumno que invoca el metodo."
        }
      }
    },
    "version": 1
  },
  "userdoc": {
    "kind": "user",
    "methods": {
      "automatricula(string,string)": {
        "notice": "Los alumnos pueden automatricularse con el metodo automatricula. Impedir que se pueda meter un nombre vacio."
      },
      "califica(address,uint256,uint8,uint256)": {
        "notice": "Poner la nota de un alumno en una evaluacion."
      },
      "constructor": {
        "notice": "Constructor."
      },
      "creaEvaluacion(string,uint256,uint256)": {
        "notice": "Crear una prueba de evaluacion de la asignatura. Por ejemplo, el primer parcial, o la practica 3. Las evaluaciones se meteran en el array evaluaciones, y nos referiremos a ellas por su posicion en el array."
      },
      "curso()": {
        "notice": "Curso academico"
      },
      "datosAlumno(address)": {
        "notice": "Acceder a los datos de un alumno dada su direccion."
      },
      "evaluaciones(uint256)": {
        "notice": "Evaluaciones de la asignatura."
      },
      "evaluacionesLength()": {
        "notice": "El numero de evaluaciones creadas."
      },
      "matriculaDir(string,string,address)": {
        "notice": "El owner puede matricular a los alumnos Impedir que se pueda meter un nombre vacio."
      },
      "matriculasLength()": {
        "notice": "El numero de alumnos matriculados."
      },
      "miNota(uint256)": {
        "notice": "Devuelve el tipo de nota y la calificacion que ha sacado el alumno que invoca el metodo en la evaluacion pasada como parametro."
      },
      "modificaEvaluacion(string,uint256,uint256,uint256)": {
        "notice": "Modifica una prueba de evaluacion de la asignatura. Por ejemplo, el primer parcial, o la practica 3. Las evaluaciones se meteran en el array evaluaciones, y nos referiremos a ellas por su posicion en el array."
      },
      "nombre()": {
        "notice": "Nombre de la asignatura"
      },
      "quienSoy()": {
        "notice": "Permite a un alumno obtener sus propios datos."
      },
      "version()": {
        "notice": "Version 2022 Lite - Teoria"
      }
    },
    "notice": "El contrato Asignatura que representa una asignatura de la carrera. Version Lite",
    "version": 1
  }
}