{
  "contractName": "Asignatura",
  "abi": [
    {
      "inputs": [
        {
          "internalType": "string",
          "name": "_nombre",
          "type": "string"
        },
        {
          "internalType": "string",
          "name": "_curso",
          "type": "string"
        }
      ],
      "stateMutability": "nonpayable",
      "type": "constructor"
    },
    {
      "inputs": [
        {
          "internalType": "address",
          "name": "",
          "type": "address"
        },
        {
          "internalType": "uint256",
          "name": "",
          "type": "uint256"
        }
      ],
      "name": "calificaciones",
      "outputs": [
        {
          "internalType": "enum Asignatura.TipoNota",
          "name": "tipo",
          "type": "uint8"
        },
        {
          "internalType": "uint256",
          "name": "calificacion",
          "type": "uint256"
        }
      ],
      "stateMutability": "view",
      "type": "function",
      "constant": true
    },
    {
      "inputs": [],
      "name": "cerrada",
      "outputs": [
        {
          "internalType": "bool",
          "name": "",
          "type": "bool"
        }
      ],
      "stateMutability": "view",
      "type": "function",
      "constant": true
    },
    {
      "inputs": [],
      "name": "coordinador",
      "outputs": [
        {
          "internalType": "address",
          "name": "",
          "type": "address"
        }
      ],
      "stateMutability": "view",
      "type": "function",
      "constant": true
    },
    {
      "inputs": [],
      "name": "curso",
      "outputs": [
        {
          "internalType": "string",
          "name": "",
          "type": "string"
        }
      ],
      "stateMutability": "view",
      "type": "function",
      "constant": true
    },
    {
      "inputs": [
        {
          "internalType": "address",
          "name": "",
          "type": "address"
        }
      ],
      "name": "datosAlumno",
      "outputs": [
        {
          "internalType": "string",
          "name": "nombre",
          "type": "string"
        },
        {
          "internalType": "string",
          "name": "email",
          "type": "string"
        }
      ],
      "stateMutability": "view",
      "type": "function",
      "constant": true
    },
    {
      "inputs": [
        {
          "internalType": "address",
          "name": "",
          "type": "address"
        }
      ],
      "name": "datosProfesor",
      "outputs": [
        {
          "internalType": "string",
          "name": "",
          "type": "string"
        }
      ],
      "stateMutability": "view",
      "type": "function",
      "constant": true
    },
    {
      "inputs": [
        {
          "internalType": "uint256",
          "name": "",
          "type": "uint256"
        }
      ],
      "name": "evaluaciones",
      "outputs": [
        {
          "internalType": "string",
          "name": "nombre",
          "type": "string"
        },
        {
          "internalType": "uint256",
          "name": "fecha",
          "type": "uint256"
        },
        {
          "internalType": "uint256",
          "name": "porcentaje",
          "type": "uint256"
        }
      ],
      "stateMutability": "view",
      "type": "function",
      "constant": true
    },
    {
      "inputs": [
        {
          "internalType": "uint256",
          "name": "",
          "type": "uint256"
        }
      ],
      "name": "matriculas",
      "outputs": [
        {
          "internalType": "address",
          "name": "",
          "type": "address"
        }
      ],
      "stateMutability": "view",
      "type": "function",
      "constant": true
    },
    {
      "inputs": [],
      "name": "nombre",
      "outputs": [
        {
          "internalType": "string",
          "name": "",
          "type": "string"
        }
      ],
      "stateMutability": "view",
      "type": "function",
      "constant": true
    },
    {
      "inputs": [],
      "name": "owner",
      "outputs": [
        {
          "internalType": "address",
          "name": "",
          "type": "address"
        }
      ],
      "stateMutability": "view",
      "type": "function",
      "constant": true
    },
    {
      "inputs": [],
      "name": "profesor",
      "outputs": [
        {
          "internalType": "address",
          "name": "",
          "type": "address"
        }
      ],
      "stateMutability": "view",
      "type": "function",
      "constant": true
    },
    {
      "inputs": [
        {
          "internalType": "uint256",
          "name": "",
          "type": "uint256"
        }
      ],
      "name": "profesores",
      "outputs": [
        {
          "internalType": "address",
          "name": "",
          "type": "address"
        }
      ],
      "stateMutability": "view",
      "type": "function",
      "constant": true
    },
    {
      "inputs": [],
      "name": "version",
      "outputs": [
        {
          "internalType": "string",
          "name": "",
          "type": "string"
        }
      ],
      "stateMutability": "view",
      "type": "function",
      "constant": true
    },
    {
      "stateMutability": "payable",
      "type": "receive",
      "payable": true
    },
    {
      "inputs": [
        {
          "internalType": "address",
          "name": "addr",
          "type": "address"
        }
      ],
      "name": "setCoordinador",
      "outputs": [],
      "stateMutability": "nonpayable",
      "type": "function"
    },
    {
      "inputs": [],
      "name": "cerrar",
      "outputs": [],
      "stateMutability": "nonpayable",
      "type": "function"
    },
    {
      "inputs": [
        {
          "internalType": "address",
          "name": "_addr",
          "type": "address"
        },
        {
          "internalType": "string",
          "name": "_nombre",
          "type": "string"
        }
      ],
      "name": "addProfesor",
      "outputs": [],
      "stateMutability": "nonpayable",
      "type": "function"
    },
    {
      "inputs": [],
      "name": "profesoresLength",
      "outputs": [
        {
          "internalType": "uint256",
          "name": "",
          "type": "uint256"
        }
      ],
      "stateMutability": "view",
      "type": "function",
      "constant": true
    },
    {
      "inputs": [
        {
          "internalType": "string",
          "name": "_nombre",
          "type": "string"
        },
        {
          "internalType": "string",
          "name": "_email",
          "type": "string"
        }
      ],
      "name": "automatricula",
      "outputs": [],
      "stateMutability": "nonpayable",
      "type": "function"
    },
    {
      "inputs": [
        {
          "internalType": "string",
          "name": "_nombre",
          "type": "string"
        },
        {
          "internalType": "string",
          "name": "_email",
          "type": "string"
        },
        {
          "internalType": "address",
          "name": "_addr",
          "type": "address"
        }
      ],
      "name": "matriculaDir",
      "outputs": [],
      "stateMutability": "nonpayable",
      "type": "function"
    },
    {
      "inputs": [],
      "name": "matriculasLength",
      "outputs": [
        {
          "internalType": "uint256",
          "name": "",
          "type": "uint256"
        }
      ],
      "stateMutability": "view",
      "type": "function",
      "constant": true
    },
    {
      "inputs": [],
      "name": "quienSoy",
      "outputs": [
        {
          "internalType": "string",
          "name": "_nombre",
          "type": "string"
        },
        {
          "internalType": "string",
          "name": "_email",
          "type": "string"
        }
      ],
      "stateMutability": "view",
      "type": "function",
      "constant": true
    },
    {
      "inputs": [
        {
          "internalType": "string",
          "name": "_nombre",
          "type": "string"
        },
        {
          "internalType": "uint256",
          "name": "_fecha",
          "type": "uint256"
        },
        {
          "internalType": "uint256",
          "name": "_porcentaje",
          "type": "uint256"
        }
      ],
      "name": "creaEvaluacion",
      "outputs": [
        {
          "internalType": "uint256",
          "name": "",
          "type": "uint256"
        }
      ],
      "stateMutability": "nonpayable",
      "type": "function"
    },
    {
      "inputs": [],
      "name": "evaluacionesLength",
      "outputs": [
        {
          "internalType": "uint256",
          "name": "",
          "type": "uint256"
        }
      ],
      "stateMutability": "view",
      "type": "function",
      "constant": true
    },
    {
      "inputs": [
        {
          "internalType": "address",
          "name": "alumno",
          "type": "address"
        },
        {
          "internalType": "uint256",
          "name": "evaluacion",
          "type": "uint256"
        },
        {
          "internalType": "enum Asignatura.TipoNota",
          "name": "tipo",
          "type": "uint8"
        },
        {
          "internalType": "uint256",
          "name": "calificacion",
          "type": "uint256"
        }
      ],
      "name": "califica",
      "outputs": [],
      "stateMutability": "nonpayable",
      "type": "function"
    },
    {
      "inputs": [
        {
          "internalType": "uint256",
          "name": "evaluacion",
          "type": "uint256"
        }
      ],
      "name": "miNota",
      "outputs": [
        {
          "internalType": "enum Asignatura.TipoNota",
          "name": "tipo",
          "type": "uint8"
        },
        {
          "internalType": "uint256",
          "name": "calificacion",
          "type": "uint256"
        }
      ],
      "stateMutability": "view",
      "type": "function",
      "constant": true
    },
    {
      "inputs": [],
      "name": "miNotaFinal",
      "outputs": [
        {
          "internalType": "enum Asignatura.TipoNota",
          "name": "tipo",
          "type": "uint8"
        },
        {
          "internalType": "uint256",
          "name": "calificacion",
          "type": "uint256"
        }
      ],
      "stateMutability": "view",
      "type": "function",
      "constant": true
    },
    {
      "inputs": [
        {
          "internalType": "address",
          "name": "_addr",
          "type": "address"
        }
      ],
      "name": "notaFinal",
      "outputs": [
        {
          "internalType": "enum Asignatura.TipoNota",
          "name": "tipo",
          "type": "uint8"
        },
        {
          "internalType": "uint256",
          "name": "calificacion",
          "type": "uint256"
        }
      ],
      "stateMutability": "view",
      "type": "function",
      "constant": true
    }
  ],
  "bytecode": "0x60806040526040518060400160405280600981526020017f32303232204c6974650000000000000000000000000000000000000000000000815250600090816200004a9190620003f3565b503480156200005857600080fd5b5060405162003c7238038062003c7283398181016040528101906200007e91906200063e565b6000825103620000c5576040517f08c379a0000000000000000000000000000000000000000000000000000000008152600401620000bc906200074a565b60405180910390fd5b60008151036200010c576040517f08c379a00000000000000000000000000000000000000000000000000000000081526004016200010390620007e2565b60405180910390fd5b33600460006101000a81548173ffffffffffffffffffffffffffffffffffffffff021916908373ffffffffffffffffffffffffffffffffffffffff16021790555081600590816200015e9190620003f3565b508060069081620001709190620003f3565b50505062000804565b600081519050919050565b7f4e487b7100000000000000000000000000000000000000000000000000000000600052604160045260246000fd5b7f4e487b7100000000000000000000000000000000000000000000000000000000600052602260045260246000fd5b60006002820490506001821680620001fb57607f821691505b602082108103620002115762000210620001b3565b5b50919050565b60008190508160005260206000209050919050565b60006020601f8301049050919050565b600082821b905092915050565b6000600883026200027b7fffffffffffffffffffffffffffffffffffffffffffffffffffffffffffffffff826200023c565b6200028786836200023c565b95508019841693508086168417925050509392505050565b6000819050919050565b6000819050919050565b6000620002d4620002ce620002c8846200029f565b620002a9565b6200029f565b9050919050565b6000819050919050565b620002f083620002b3565b62000308620002ff82620002db565b84845462000249565b825550505050565b600090565b6200031f62000310565b6200032c818484620002e5565b505050565b5b8181101562000354576200034860008262000315565b60018101905062000332565b5050565b601f821115620003a3576200036d8162000217565b62000378846200022c565b8101602085101562000388578190505b620003a062000397856200022c565b83018262000331565b50505b505050565b600082821c905092915050565b6000620003c860001984600802620003a8565b1980831691505092915050565b6000620003e38383620003b5565b9150826002028217905092915050565b620003fe8262000179565b67ffffffffffffffff8111156200041a576200041962000184565b5b620004268254620001e2565b6200043382828562000358565b600060209050601f8311600181146200046b576000841562000456578287015190505b620004628582620003d5565b865550620004d2565b601f1984166200047b8662000217565b60005b82811015620004a5578489015182556001820191506020850194506020810190506200047e565b86831015620004c55784890151620004c1601f891682620003b5565b8355505b6001600288020188555050505b505050505050565b6000604051905090565b600080fd5b600080fd5b600080fd5b600080fd5b6000601f19601f8301169050919050565b6200051482620004f8565b810181811067ffffffffffffffff8211171562000536576200053562000184565b5b80604052505050565b60006200054b620004da565b905062000559828262000509565b919050565b600067ffffffffffffffff8211156200057c576200057b62000184565b5b6200058782620004f8565b9050602081019050919050565b60005b83811015620005b457808201518184015260208101905062000597565b60008484015250505050565b6000620005d7620005d1846200055e565b6200053f565b905082815260208101848484011115620005f657620005f5620004f3565b5b6200060384828562000594565b509392505050565b600082601f830112620006235762000622620004ee565b5b815162000635848260208601620005c0565b91505092915050565b60008060408385031215620006585762000657620004e4565b5b600083015167ffffffffffffffff811115620006795762000678620004e9565b5b62000687858286016200060b565b925050602083015167ffffffffffffffff811115620006ab57620006aa620004e9565b5b620006b9858286016200060b565b9150509250929050565b600082825260208201905092915050565b7f456c206e6f6d627265206465206c6120617369676e6174757261206e6f20707560008201527f6564652073657220766163696f00000000000000000000000000000000000000602082015250565b600062000732602d83620006c3565b91506200073f82620006d4565b604082019050919050565b60006020820190508181036000830152620007658162000723565b9050919050565b7f456c20637572736f2061636164656d69636f206465206c6120617369676e617460008201527f757261206e6f2070756564652073657220766163696f00000000000000000000602082015250565b6000620007ca603683620006c3565b9150620007d7826200076c565b604082019050919050565b60006020820190508181036000830152620007fd81620007bb565b9050919050565b61345e80620008146000396000f3fe6080604052600436106101a05760003560e01c80637810ff1e116100ec578063d017da1f1161008a578063dab6ff2811610064578063dab6ff2814610662578063deafcc4114610679578063df096576146106a4578063f967f986146106cf576101e0565b8063d017da1f146105be578063d27c3f3c146105fb578063d51b458414610639576101e0565b8063bc7b35b2116100c6578063bc7b35b2146104ed578063c791813914610518578063c837375014610555578063d00de47a14610592576101e0565b80637810ff1e1461046c5780638da5cb5b146104975780639e1d8f4b146104c2576101e0565b8063488cf4f5116101595780635aa4ffe6116101335780635aa4ffe61461038a57806361d4c6ad146103c8578063641945bf146103f15780636bf8aad61461042e576101e0565b8063488cf4f514610308578063537668831461033357806354fd4d501461035f576101e0565b806307beee5e146101e55780631d2e4d2b1461020e57806322c4e3941461023757806330322c9b1461026257806342a6dde21461028b57806344f7a8cc146102c9576101e0565b366101e0576040517f08c379a00000000000000000000000000000000000000000000000000000000081526004016101d790612105565b60405180910390fd5b600080fd5b3480156101f157600080fd5b5061020c600480360381019061020791906122dd565b6106fa565b005b34801561021a57600080fd5b5061023560048036038101906102309190612368565b610908565b005b34801561024357600080fd5b5061024c610b6e565b60405161025991906123df565b60405180910390f35b34801561026e57600080fd5b5061028960048036038101906102849190612455565b610b81565b005b34801561029757600080fd5b506102b260048036038101906102ad91906124bc565b610e76565b6040516102c0929190612582565b60405180910390f35b3480156102d557600080fd5b506102f060048036038101906102eb91906125ab565b610eb4565b6040516102ff93929190612646565b60405180910390f35b34801561031457600080fd5b5061031d610f76565b60405161032a9190612684565b60405180910390f35b34801561033f57600080fd5b50610348610f83565b60405161035692919061269f565b60405180910390f35b34801561036b57600080fd5b50610374611153565b60405161038191906126d6565b60405180910390f35b34801561039657600080fd5b506103b160048036038101906103ac91906126f8565b6111e1565b6040516103bf929190612582565b60405180910390f35b3480156103d457600080fd5b506103ef60048036038101906103ea9190612725565b611286565b005b3480156103fd57600080fd5b50610418600480360381019061041391906126f8565b611403565b60405161042591906126d6565b60405180910390f35b34801561043a57600080fd5b50610455600480360381019061045091906126f8565b6114a3565b60405161046392919061269f565b60405180910390f35b34801561047857600080fd5b506104816115d7565b60405161048e91906127ac565b60405180910390f35b3480156104a357600080fd5b506104ac6115fd565b6040516104b991906127ac565b60405180910390f35b3480156104ce57600080fd5b506104d7611623565b6040516104e49190612684565b60405180910390f35b3480156104f957600080fd5b50610502611630565b60405161050f91906126d6565b60405180910390f35b34801561052457600080fd5b5061053f600480360381019061053a91906125ab565b6116be565b60405161054c91906127ac565b60405180910390f35b34801561056157600080fd5b5061057c600480360381019061057791906125ab565b6116fd565b60405161058991906127ac565b60405180910390f35b34801561059e57600080fd5b506105a761173c565b6040516105b5929190612582565b60405180910390f35b3480156105ca57600080fd5b506105e560048036038101906105e091906127c7565b611798565b6040516105f29190612684565b60405180910390f35b34801561060757600080fd5b50610622600480360381019061061d91906125ab565b61194b565b604051610630929190612582565b60405180910390f35b34801561064557600080fd5b50610660600480360381019061065b91906126f8565b611a95565b005b34801561066e57600080fd5b50610677611bb9565b005b34801561068557600080fd5b5061068e611c66565b60405161069b91906126d6565b60405180910390f35b3480156106b057600080fd5b506106b9611cf4565b6040516106c691906127ac565b60405180910390f35b3480156106db57600080fd5b506106e4611d1a565b6040516106f19190612684565b60405180910390f35b61070333611d27565b15610743576040517f08c379a000000000000000000000000000000000000000000000000000000000815260040161073a906128a8565b60405180910390fd5b600460009054906101000a900473ffffffffffffffffffffffffffffffffffffffff1673ffffffffffffffffffffffffffffffffffffffff163373ffffffffffffffffffffffffffffffffffffffff16146107d3576040517f08c379a00000000000000000000000000000000000000000000000000000000081526004016107ca90612914565b60405180910390fd5b6000835103610817576040517f08c379a000000000000000000000000000000000000000000000000000000000815260040161080e90612980565b60405180910390fd5b6000604051806040016040528085815260200184815250905080600860008473ffffffffffffffffffffffffffffffffffffffff1673ffffffffffffffffffffffffffffffffffffffff16815260200190815260200160002060008201518160000190816108859190612bac565b50602082015181600101908161089b9190612bac565b509050506009829080600181540180825580915050600190039060005260206000200160009091909190916101000a81548173ffffffffffffffffffffffffffffffffffffffff021916908373ffffffffffffffffffffffffffffffffffffffff16021790555050505050565b600460009054906101000a900473ffffffffffffffffffffffffffffffffffffffff1673ffffffffffffffffffffffffffffffffffffffff163373ffffffffffffffffffffffffffffffffffffffff1614610998576040517f08c379a000000000000000000000000000000000000000000000000000000000815260040161098f90612914565b60405180910390fd5b600760149054906101000a900460ff16156109e8576040517f08c379a00000000000000000000000000000000000000000000000000000000081526004016109df90612cf0565b60405180910390fd5b6000600360008473ffffffffffffffffffffffffffffffffffffffff1673ffffffffffffffffffffffffffffffffffffffff1681526020019081526020016000208054610a34906129cf565b905014610a76576040517f08c379a0000000000000000000000000000000000000000000000000000000008152600401610a6d90612d5c565b60405180910390fd5b6000815103610aba576040517f08c379a0000000000000000000000000000000000000000000000000000000008152600401610ab190612dee565b60405180910390fd5b80600360008473ffffffffffffffffffffffffffffffffffffffff1673ffffffffffffffffffffffffffffffffffffffff1681526020019081526020016000209081610b069190612bac565b506002829080600181540180825580915050600190039060005260206000200160009091909190916101000a81548173ffffffffffffffffffffffffffffffffffffffff021916908373ffffffffffffffffffffffffffffffffffffffff1602179055505050565b600760149054906101000a900460ff1681565b6000600360003373ffffffffffffffffffffffffffffffffffffffff1673ffffffffffffffffffffffffffffffffffffffff1681526020019081526020016000208054610bcd906129cf565b80601f0160208091040260200160405190810160405280929190818152602001828054610bf9906129cf565b8015610c465780601f10610c1b57610100808354040283529160200191610c46565b820191906000526020600020905b815481529060010190602001808311610c2957829003601f168201915b505050505090506000815103610c91576040517f08c379a0000000000000000000000000000000000000000000000000000000008152600401610c8890612e5a565b60405180910390fd5b600760149054906101000a900460ff1615610ce1576040517f08c379a0000000000000000000000000000000000000000000000000000000008152600401610cd890612cf0565b60405180910390fd5b610cea85611d27565b610d29576040517f08c379a0000000000000000000000000000000000000000000000000000000008152600401610d2090612eec565b60405180910390fd5b600a805490508410610d70576040517f08c379a0000000000000000000000000000000000000000000000000000000008152600401610d6790612f7e565b60405180910390fd5b6103e8821115610db5576040517f08c379a0000000000000000000000000000000000000000000000000000000008152600401610dac90613036565b60405180910390fd5b60006040518060400160405280856002811115610dd557610dd46124fc565b5b815260200184815250905080600b60008873ffffffffffffffffffffffffffffffffffffffff1673ffffffffffffffffffffffffffffffffffffffff168152602001908152602001600020600087815260200190815260200160002060008201518160000160006101000a81548160ff02191690836002811115610e5c57610e5b6124fc565b5b021790555060208201518160010155905050505050505050565b600b602052816000526040600020602052806000526040600020600091509150508060000160009054906101000a900460ff16908060010154905082565b600a8181548110610ec457600080fd5b9060005260206000209060030201600091509050806000018054610ee7906129cf565b80601f0160208091040260200160405190810160405280929190818152602001828054610f13906129cf565b8015610f605780601f10610f3557610100808354040283529160200191610f60565b820191906000526020600020905b815481529060010190602001808311610f4357829003601f168201915b5050505050908060010154908060020154905083565b6000600a80549050905090565b606080610f8f33611d27565b610fce576040517f08c379a0000000000000000000000000000000000000000000000000000000008152600401610fc5906130c8565b60405180910390fd5b6000600860003373ffffffffffffffffffffffffffffffffffffffff1673ffffffffffffffffffffffffffffffffffffffff16815260200190815260200160002060405180604001604052908160008201805461102a906129cf565b80601f0160208091040260200160405190810160405280929190818152602001828054611056906129cf565b80156110a35780601f10611078576101008083540402835291602001916110a3565b820191906000526020600020905b81548152906001019060200180831161108657829003601f168201915b505050505081526020016001820180546110bc906129cf565b80601f01602080910402602001604051908101604052809291908181526020018280546110e8906129cf565b80156111355780601f1061110a57610100808354040283529160200191611135565b820191906000526020600020905b81548152906001019060200180831161111857829003601f168201915b50505050508152505090508060000151925080602001519150509091565b60008054611160906129cf565b80601f016020809104026020016040519081016040528092919081815260200182805461118c906129cf565b80156111d95780601f106111ae576101008083540402835291602001916111d9565b820191906000526020600020905b8154815290600101906020018083116111bc57829003601f168201915b505050505081565b600080600760009054906101000a900473ffffffffffffffffffffffffffffffffffffffff1673ffffffffffffffffffffffffffffffffffffffff163373ffffffffffffffffffffffffffffffffffffffff1614611274576040517f08c379a000000000000000000000000000000000000000000000000000000000815260040161126b90613134565b60405180910390fd5b61127d83611e05565b91509150915091565b61128f33611d27565b156112cf576040517f08c379a00000000000000000000000000000000000000000000000000000000081526004016112c6906128a8565b60405180910390fd5b6000825103611313576040517f08c379a000000000000000000000000000000000000000000000000000000000815260040161130a90612980565b60405180910390fd5b6000604051806040016040528084815260200183815250905080600860003373ffffffffffffffffffffffffffffffffffffffff1673ffffffffffffffffffffffffffffffffffffffff16815260200190815260200160002060008201518160000190816113819190612bac565b5060208201518160010190816113979190612bac565b509050506009339080600181540180825580915050600190039060005260206000200160009091909190916101000a81548173ffffffffffffffffffffffffffffffffffffffff021916908373ffffffffffffffffffffffffffffffffffffffff160217905550505050565b60036020528060005260406000206000915090508054611422906129cf565b80601f016020809104026020016040519081016040528092919081815260200182805461144e906129cf565b801561149b5780601f106114705761010080835404028352916020019161149b565b820191906000526020600020905b81548152906001019060200180831161147e57829003601f168201915b505050505081565b60086020528060005260406000206000915090508060000180546114c6906129cf565b80601f01602080910402602001604051908101604052809291908181526020018280546114f2906129cf565b801561153f5780601f106115145761010080835404028352916020019161153f565b820191906000526020600020905b81548152906001019060200180831161152257829003601f168201915b505050505090806001018054611554906129cf565b80601f0160208091040260200160405190810160405280929190818152602001828054611580906129cf565b80156115cd5780601f106115a2576101008083540402835291602001916115cd565b820191906000526020600020905b8154815290600101906020018083116115b057829003601f168201915b5050505050905082565b600760009054906101000a900473ffffffffffffffffffffffffffffffffffffffff1681565b600460009054906101000a900473ffffffffffffffffffffffffffffffffffffffff1681565b6000600980549050905090565b6005805461163d906129cf565b80601f0160208091040260200160405190810160405280929190818152602001828054611669906129cf565b80156116b65780601f1061168b576101008083540402835291602001916116b6565b820191906000526020600020905b81548152906001019060200180831161169957829003601f168201915b505050505081565b600981815481106116ce57600080fd5b906000526020600020016000915054906101000a900473ffffffffffffffffffffffffffffffffffffffff1681565b6002818154811061170d57600080fd5b906000526020600020016000915054906101000a900473ffffffffffffffffffffffffffffffffffffffff1681565b60008061174833611d27565b611787576040517f08c379a000000000000000000000000000000000000000000000000000000000815260040161177e906130c8565b60405180910390fd5b61179033611e05565b915091509091565b6000600760009054906101000a900473ffffffffffffffffffffffffffffffffffffffff1673ffffffffffffffffffffffffffffffffffffffff163373ffffffffffffffffffffffffffffffffffffffff161461182a576040517f08c379a000000000000000000000000000000000000000000000000000000000815260040161182190613134565b60405180910390fd5b600760149054906101000a900460ff161561187a576040517f08c379a000000000000000000000000000000000000000000000000000000000815260040161187190612cf0565b60405180910390fd5b60008451036118be576040517f08c379a00000000000000000000000000000000000000000000000000000000081526004016118b5906131c6565b60405180910390fd5b600a604051806060016040528086815260200185815260200184815250908060018154018082558091505060019003906000526020600020906003020160009091909190915060008201518160000190816119199190612bac565b50602082015181600101556040820151816002015550506001600a805490506119429190613215565b90509392505050565b60008061195733611d27565b611996576040517f08c379a000000000000000000000000000000000000000000000000000000000815260040161198d906130c8565b60405180910390fd5b600a8054905083106119dd576040517f08c379a00000000000000000000000000000000000000000000000000000000081526004016119d4906132bb565b60405180910390fd5b6000600b60003373ffffffffffffffffffffffffffffffffffffffff1673ffffffffffffffffffffffffffffffffffffffff16815260200190815260200160002060008581526020019081526020016000206040518060400160405290816000820160009054906101000a900460ff166002811115611a5f57611a5e6124fc565b5b6002811115611a7157611a706124fc565b5b81526020016001820154815250509050806000015192508060200151915050915091565b600460009054906101000a900473ffffffffffffffffffffffffffffffffffffffff1673ffffffffffffffffffffffffffffffffffffffff163373ffffffffffffffffffffffffffffffffffffffff1614611b25576040517f08c379a0000000000000000000000000000000000000000000000000000000008152600401611b1c90612914565b60405180910390fd5b600760149054906101000a900460ff1615611b75576040517f08c379a0000000000000000000000000000000000000000000000000000000008152600401611b6c90612cf0565b60405180910390fd5b80600760006101000a81548173ffffffffffffffffffffffffffffffffffffffff021916908373ffffffffffffffffffffffffffffffffffffffff16021790555050565b600760009054906101000a900473ffffffffffffffffffffffffffffffffffffffff1673ffffffffffffffffffffffffffffffffffffffff163373ffffffffffffffffffffffffffffffffffffffff1614611c49576040517f08c379a0000000000000000000000000000000000000000000000000000000008152600401611c4090613134565b60405180910390fd5b6001600760146101000a81548160ff021916908315150217905550565b60068054611c73906129cf565b80601f0160208091040260200160405190810160405280929190818152602001828054611c9f906129cf565b8015611cec5780601f10611cc157610100808354040283529160200191611cec565b820191906000526020600020905b815481529060010190602001808311611ccf57829003601f168201915b505050505081565b600160009054906101000a900473ffffffffffffffffffffffffffffffffffffffff1681565b6000600280549050905090565b600080600860008473ffffffffffffffffffffffffffffffffffffffff1673ffffffffffffffffffffffffffffffffffffffff1681526020019081526020016000206000018054611d77906129cf565b80601f0160208091040260200160405190810160405280929190818152602001828054611da3906129cf565b8015611df05780601f10611dc557610100808354040283529160200191611df0565b820191906000526020600020905b815481529060010190602001808311611dd357829003601f168201915b50505050509050600081511415915050919050565b6000806001915060005b600a80549050811015611f5d5760006002811115611e3057611e2f6124fc565b5b600b60008673ffffffffffffffffffffffffffffffffffffffff1673ffffffffffffffffffffffffffffffffffffffff168152602001908152602001600020600083815260200190815260200160002060000160009054906101000a900460ff166002811115611ea357611ea26124fc565b5b03611eb557600080925092505061207d565b600280811115611ec857611ec76124fc565b5b600b60008673ffffffffffffffffffffffffffffffffffffffff1673ffffffffffffffffffffffffffffffffffffffff168152602001908152602001600020600083815260200190815260200160002060000160009054906101000a900460ff166002811115611f3b57611f3a6124fc565b5b03611f495760029250611f4a565b5b8080611f55906132db565b915050611e0f565b5060016002811115611f7257611f716124fc565b5b826002811115611f8557611f846124fc565b5b03611f96578160009150915061207d565b60008060005b600a80549050811015612059576064600a8281548110611fbf57611fbe613323565b5b906000526020600020906003020160020154600b60008973ffffffffffffffffffffffffffffffffffffffff1673ffffffffffffffffffffffffffffffffffffffff16815260200190815260200160002060008481526020019081526020016000206001015461202f9190613352565b61203991906133c3565b8261204491906133f4565b91508080612051906132db565b915050611f9c565b5081801561206857506101f381115b15612073576101f390505b6002935080925050505b915091565b600082825260208201905092915050565b7f4e6f207365207065726d697465206c6120726563657063696f6e20646520646960008201527f6e65726f2e000000000000000000000000000000000000000000000000000000602082015250565b60006120ef602583612082565b91506120fa82612093565b604082019050919050565b6000602082019050818103600083015261211e816120e2565b9050919050565b6000604051905090565b600080fd5b600080fd5b600080fd5b600080fd5b6000601f19601f8301169050919050565b7f4e487b7100000000000000000000000000000000000000000000000000000000600052604160045260246000fd5b61218c82612143565b810181811067ffffffffffffffff821117156121ab576121aa612154565b5b80604052505050565b60006121be612125565b90506121ca8282612183565b919050565b600067ffffffffffffffff8211156121ea576121e9612154565b5b6121f382612143565b9050602081019050919050565b82818337600083830152505050565b600061222261221d846121cf565b6121b4565b90508281526020810184848401111561223e5761223d61213e565b5b612249848285612200565b509392505050565b600082601f83011261226657612265612139565b5b813561227684826020860161220f565b91505092915050565b600073ffffffffffffffffffffffffffffffffffffffff82169050919050565b60006122aa8261227f565b9050919050565b6122ba8161229f565b81146122c557600080fd5b50565b6000813590506122d7816122b1565b92915050565b6000806000606084860312156122f6576122f561212f565b5b600084013567ffffffffffffffff81111561231457612313612134565b5b61232086828701612251565b935050602084013567ffffffffffffffff81111561234157612340612134565b5b61234d86828701612251565b925050604061235e868287016122c8565b9150509250925092565b6000806040838503121561237f5761237e61212f565b5b600061238d858286016122c8565b925050602083013567ffffffffffffffff8111156123ae576123ad612134565b5b6123ba85828601612251565b9150509250929050565b60008115159050919050565b6123d9816123c4565b82525050565b60006020820190506123f460008301846123d0565b92915050565b6000819050919050565b61240d816123fa565b811461241857600080fd5b50565b60008135905061242a81612404565b92915050565b6003811061243d57600080fd5b50565b60008135905061244f81612430565b92915050565b6000806000806080858703121561246f5761246e61212f565b5b600061247d878288016122c8565b945050602061248e8782880161241b565b935050604061249f87828801612440565b92505060606124b08782880161241b565b91505092959194509250565b600080604083850312156124d3576124d261212f565b5b60006124e1858286016122c8565b92505060206124f28582860161241b565b9150509250929050565b7f4e487b7100000000000000000000000000000000000000000000000000000000600052602160045260246000fd5b6003811061253c5761253b6124fc565b5b50565b600081905061254d8261252b565b919050565b600061255d8261253f565b9050919050565b61256d81612552565b82525050565b61257c816123fa565b82525050565b60006040820190506125976000830185612564565b6125a46020830184612573565b9392505050565b6000602082840312156125c1576125c061212f565b5b60006125cf8482850161241b565b91505092915050565b600081519050919050565b60005b838110156126015780820151818401526020810190506125e6565b60008484015250505050565b6000612618826125d8565b6126228185612082565b93506126328185602086016125e3565b61263b81612143565b840191505092915050565b60006060820190508181036000830152612660818661260d565b905061266f6020830185612573565b61267c6040830184612573565b949350505050565b60006020820190506126996000830184612573565b92915050565b600060408201905081810360008301526126b9818561260d565b905081810360208301526126cd818461260d565b90509392505050565b600060208201905081810360008301526126f0818461260d565b905092915050565b60006020828403121561270e5761270d61212f565b5b600061271c848285016122c8565b91505092915050565b6000806040838503121561273c5761273b61212f565b5b600083013567ffffffffffffffff81111561275a57612759612134565b5b61276685828601612251565b925050602083013567ffffffffffffffff81111561278757612786612134565b5b61279385828601612251565b9150509250929050565b6127a68161229f565b82525050565b60006020820190506127c1600083018461279d565b92915050565b6000806000606084860312156127e0576127df61212f565b5b600084013567ffffffffffffffff8111156127fe576127fd612134565b5b61280a86828701612251565b935050602061281b8682870161241b565b925050604061282c8682870161241b565b9150509250925092565b7f536f6c6f207065726d697469646f206120616c756d6e6f73206e6f206d61747260008201527f6963756c61646f73000000000000000000000000000000000000000000000000602082015250565b6000612892602883612082565b915061289d82612836565b604082019050919050565b600060208201905081810360008301526128c181612885565b9050919050565b7f536f6c6f207065726d697469646f20616c206f776e6572000000000000000000600082015250565b60006128fe601783612082565b9150612909826128c8565b602082019050919050565b6000602082019050818103600083015261292d816128f1565b9050919050565b7f456c206e6f6d627265206e6f2070756564652073657220766163696f00000000600082015250565b600061296a601c83612082565b915061297582612934565b602082019050919050565b600060208201905081810360008301526129998161295d565b9050919050565b7f4e487b7100000000000000000000000000000000000000000000000000000000600052602260045260246000fd5b600060028204905060018216806129e757607f821691505b6020821081036129fa576129f96129a0565b5b50919050565b60008190508160005260206000209050919050565b60006020601f8301049050919050565b600082821b905092915050565b600060088302612a627fffffffffffffffffffffffffffffffffffffffffffffffffffffffffffffffff82612a25565b612a6c8683612a25565b95508019841693508086168417925050509392505050565b6000819050919050565b6000612aa9612aa4612a9f846123fa565b612a84565b6123fa565b9050919050565b6000819050919050565b612ac383612a8e565b612ad7612acf82612ab0565b848454612a32565b825550505050565b600090565b612aec612adf565b612af7818484612aba565b505050565b5b81811015612b1b57612b10600082612ae4565b600181019050612afd565b5050565b601f821115612b6057612b3181612a00565b612b3a84612a15565b81016020851015612b49578190505b612b5d612b5585612a15565b830182612afc565b50505b505050565b600082821c905092915050565b6000612b8360001984600802612b65565b1980831691505092915050565b6000612b9c8383612b72565b9150826002028217905092915050565b612bb5826125d8565b67ffffffffffffffff811115612bce57612bcd612154565b5b612bd882546129cf565b612be3828285612b1f565b600060209050601f831160018114612c165760008415612c04578287015190505b612c0e8582612b90565b865550612c76565b601f198416612c2486612a00565b60005b82811015612c4c57848901518255600182019150602085019450602081019050612c27565b86831015612c695784890151612c65601f891682612b72565b8355505b6001600288020188555050505b505050505050565b7f536f6c6f207065726d697469646f207369206c6120617369676e61747572612060008201527f6e6f206573746120636572726164610000000000000000000000000000000000602082015250565b6000612cda602f83612082565b9150612ce582612c7e565b604082019050919050565b60006020820190508181036000830152612d0981612ccd565b9050919050565b7f4573652070726f6665736f72207961206861207369646f206164646564000000600082015250565b6000612d46601d83612082565b9150612d5182612d10565b602082019050919050565b60006020820190508181036000830152612d7581612d39565b9050919050565b7f456c206e6f6d6272652064656c2070726f6665736f72206e6f2070756564652060008201527f657374617220766163696f000000000000000000000000000000000000000000602082015250565b6000612dd8602b83612082565b9150612de382612d7c565b604082019050919050565b60006020820190508181036000830152612e0781612dcb565b9050919050565b7f536f6c6f207065726d697469646f20616c2070726f6665736f72000000000000600082015250565b6000612e44601a83612082565b9150612e4f82612e0e565b602082019050919050565b60006020820190508181036000830152612e7381612e37565b9050919050565b7f536f6c6f2073652070756564656e2063616c696669636172206120756e20616c60008201527f756d6e6f206d6174726963756c61646f2e000000000000000000000000000000602082015250565b6000612ed6603183612082565b9150612ee182612e7a565b604082019050919050565b60006020820190508181036000830152612f0581612ec9565b9050919050565b7f4e6f2073652070756564652063616c69666963617220756e61206576616c756160008201527f63696f6e20717565206e6f206578697374652e00000000000000000000000000602082015250565b6000612f68603383612082565b9150612f7382612f0c565b604082019050919050565b60006020820190508181036000830152612f9781612f5b565b9050919050565b7f4e6f2073652070756564652063616c69666963617220636f6e20756e61206e6f60008201527f7461207375706572696f722061206c61206d6178696d61207065726d6974696460208201527f612e000000000000000000000000000000000000000000000000000000000000604082015250565b6000613020604283612082565b915061302b82612f9e565b606082019050919050565b6000602082019050818103600083015261304f81613013565b9050919050565b7f536f6c6f207065726d697469646f206120616c756d6e6f73206d61747269637560008201527f6c61646f73000000000000000000000000000000000000000000000000000000602082015250565b60006130b2602583612082565b91506130bd82613056565b604082019050919050565b600060208201905081810360008301526130e1816130a5565b9050919050565b7f536f6c6f207065726d697469646f20616c20636f6f7264696e61646f72000000600082015250565b600061311e601d83612082565b9150613129826130e8565b602082019050919050565b6000602082019050818103600083015261314d81613111565b9050919050565b7f456c206e6f6d627265206465206c61206576616c756163696f6e206e6f20707560008201527f6564652073657220766163696f00000000000000000000000000000000000000602082015250565b60006131b0602d83612082565b91506131bb82613154565b604082019050919050565b600060208201905081810360008301526131df816131a3565b9050919050565b7f4e487b7100000000000000000000000000000000000000000000000000000000600052601160045260246000fd5b6000613220826123fa565b915061322b836123fa565b9250828203905081811115613243576132426131e6565b5b92915050565b7f456c20696e64696365206465206c61206576616c756163696f6e206e6f20657860008201527f697374652e000000000000000000000000000000000000000000000000000000602082015250565b60006132a5602583612082565b91506132b082613249565b604082019050919050565b600060208201905081810360008301526132d481613298565b9050919050565b60006132e6826123fa565b91507fffffffffffffffffffffffffffffffffffffffffffffffffffffffffffffffff8203613318576133176131e6565b5b600182019050919050565b7f4e487b7100000000000000000000000000000000000000000000000000000000600052603260045260246000fd5b600061335d826123fa565b9150613368836123fa565b9250828202613376816123fa565b9150828204841483151761338d5761338c6131e6565b5b5092915050565b7f4e487b7100000000000000000000000000000000000000000000000000000000600052601260045260246000fd5b60006133ce826123fa565b91506133d9836123fa565b9250826133e9576133e8613394565b5b828204905092915050565b60006133ff826123fa565b915061340a836123fa565b9250828201905080821115613422576134216131e6565b5b9291505056fea2646970667358221220a050a712cac74d9fcb76af642ec58016cccb6d6842d9967e4d1e80d72867cb5264736f6c63430008110033",
  "immutableReferences": {},
  "source": "// SPDX-License-Identifier: UNLICENSED\npragma solidity ^0.8.16;\n\n/**\n * El contrato Asignatura que representa una asignatura de la carrera.\n *\n * Version Lite\n */\ncontract Asignatura {\n    /// Version 2022 Lite - Teoria\n    string public version = \"2022 Lite\";\n    /**\n     * address del profesor que ha desplegado el contrato.\n     * El contrato lo despliega el profesor.\n     */\n    address public profesor;\n\n    // Array con las direcciones de los profesores aadidos\n    address[] public profesores;\n\n    // Acceder al nombre de un profesor dada su direccin\n    mapping(address => string) public datosProfesor;\n\n    // Direccin del owner\n    address public owner;\n\n    /// Nombre de la asignatura\n    string public nombre;\n\n    /// Curso academico\n    string public curso;\n\n    // Coordinador de la asignatura\n    address public coordinador;\n\n    // Coordinador de la asignatura\n    bool public cerrada;\n\n    /// Datos de un alumno.\n    struct DatosAlumno {\n        string nombre;\n        string email;\n    }\n\n    /// Acceder a los datos de un alumno dada su direccion.\n    mapping(address => DatosAlumno) public datosAlumno;\n\n    // Array con las direcciones de los alumnos matriculados.\n    address[] public matriculas;\n\n    /**\n     * Datos de una evaluacion.\n     */\n    struct Evaluacion {\n        string nombre;\n        uint256 fecha;\n        uint256 porcentaje;\n    }\n\n    /// Evaluaciones de la asignatura.\n    Evaluacion[] public evaluaciones;\n\n    /// Tipos de notas: sin usar, no presentado, y nota normal entre 0 y 1000.\n    enum TipoNota {\n        Empty,\n        NP,\n        Normal\n    }\n\n    /**\n     * Datos de una nota.\n     * La calificacion esta multiplicada por 100 porque no hay decimales.\n     */\n    struct Nota {\n        TipoNota tipo;\n        uint256 calificacion;\n    }\n\n    // Dada la direccion de un alumno, y el indice de la evaluacion, devuelve\n    // la nota del alumno.\n    mapping(address => mapping(uint256 => Nota)) public calificaciones;\n\n    /**\n     * Constructor.\n     *\n     * @param _nombre Nombre de la asignatura.\n     * @param _curso Curso academico.\n     */\n    constructor(string memory _nombre, string memory _curso) {\n        require(\n            bytes(_nombre).length != 0,\n            \"El nombre de la asignatura no puede ser vacio\"\n        );\n        require(\n            bytes(_curso).length != 0,\n            \"El curso academico de la asignatura no puede ser vacio\"\n        );\n\n        owner = msg.sender;\n        nombre = _nombre;\n        curso = _curso;\n    }\n\n    // Asignar la adireccin del usuario coordinador\n    function setCoordinador(address addr) public soloOwner soloAbierta {\n        coordinador = addr;\n    }\n\n    // Cerrar la asignatura\n    function cerrar() public soloCoordinador {\n        cerrada = true;\n    }\n\n    // Aadir un profesor nuevo. Impedir que se pueda meter un nombre vaco\n    function addProfesor(address _addr, string memory _nombre)\n        public\n        soloOwner\n        soloAbierta\n    {\n        require(\n            bytes(datosProfesor[_addr]).length == 0,\n            \"Ese profesor ya ha sido added\"\n        );\n        require(\n            bytes(_nombre).length != 0,\n            \"El nombre del profesor no puede estar vacio\"\n        );\n\n        datosProfesor[_addr] = _nombre;\n        profesores.push(_addr);\n    }\n\n    // Devolver nmero de profesores aadidos\n    function profesoresLength() public view returns (uint256) {\n        return profesores.length;\n    }\n\n    /**\n     * Los alumnos pueden automatricularse con el metodo automatricula.\n     *\n     * Impedir que se pueda meter un nombre vacio.\n     *\n     * @param _nombre El nombre del alumno.\n     * @param _email El email del alumno.\n     */\n    function automatricula(string memory _nombre, string memory _email)\n        public\n        soloNoMatriculados\n    {\n        require(bytes(_nombre).length != 0, \"El nombre no puede ser vacio\");\n        DatosAlumno memory datos = DatosAlumno(_nombre, _email);\n        datosAlumno[msg.sender] = datos;\n        matriculas.push(msg.sender);\n    }\n\n     /**\n     * El owner puede matricular a los alumnos\n     *\n     * Impedir que se pueda meter un nombre vacio.\n     *\n     * @param _nombre El nombre del alumno.\n     * @param _email El email del alumno.\n     * @param _addr La direccin del alumno.\n     */\n    function matriculaDir(string memory _nombre, string memory _email, address _addr)\n        public\n        soloNoMatriculados \n        soloOwner\n    {\n        require(bytes(_nombre).length != 0, \"El nombre no puede ser vacio\");\n        DatosAlumno memory datos = DatosAlumno(_nombre, _email);\n        datosAlumno[_addr] = datos;\n        matriculas.push(_addr);\n    }\n\n    /**\n     * El numero de alumnos matriculados.\n     *\n     * @return El numero de alumnos matriculados.\n     */\n    function matriculasLength() public view returns (uint256) {\n        return matriculas.length;\n    }\n\n    /**\n     * Permite a un alumno obtener sus propios datos.\n     *\n     * @return _nombre El nombre del alumno que invoca el metodo.\n     * @return _email El email del alumno que invoca el metodo.\n     */\n    function quienSoy()\n        public\n        view\n        soloMatriculados\n        returns (string memory _nombre, string memory _email)\n    {\n        DatosAlumno memory datos = datosAlumno[msg.sender];\n        _nombre = datos.nombre;\n        _email = datos.email;\n    }\n\n    /**\n * Crear una prueba de evaluacion de la asignatura. Por ejemplo, el primer parcial, o la practica 3.\n *\n * Las evaluaciones se meteran en el array evaluaciones, y nos referiremos a ellas por su posicion en el\narray.\n *\n * @param _nombre El nombre de la evaluacion.\n * @param _fecha La fecha de evaluacion (segundos desde el 1/1/1970).\n * @param _porcentaje El porcentaje de puntos que proporciona a la nota final.\n *\n * @return La posicion en el array evaluaciones,\n */\n    function creaEvaluacion(\n        string memory _nombre,\n        uint256 _fecha,\n        uint256 _porcentaje\n    ) public soloCoordinador soloAbierta returns (uint256) {\n        require(\n            bytes(_nombre).length != 0,\n            \"El nombre de la evaluacion no puede ser vacio\"\n        );\n\n        evaluaciones.push(Evaluacion(_nombre, _fecha, _porcentaje));\n        return evaluaciones.length - 1;\n    }\n\n    /**\n     * El numero de evaluaciones creadas.\n     *\n     * @return El numero de evaluaciones creadas.\n     */\n    function evaluacionesLength() public view returns (uint256) {\n        return evaluaciones.length;\n    }\n\n    /**\n     * Poner la nota de un alumno en una evaluacion.\n     *\n     * @param alumno La direccion del alumno.\n     * @param evaluacion El indice de una evaluacion en el array evaluaciones.\n     * @param tipo Tipo de nota.\n     * @param calificacion La calificacion, multipilicada por 100 porque no hay decimales.\n     */\n    function califica(\n        address alumno,\n        uint256 evaluacion,\n        TipoNota tipo,\n        uint256 calificacion\n    ) public soloProfesor soloAbierta {\n        require(\n            estaMatriculado(alumno),\n            \"Solo se pueden calificar a un alumno matriculado.\"\n        );\n        require(\n            evaluacion < evaluaciones.length,\n            \"No se puede calificar una evaluacion que no existe.\"\n        );\n        require(\n            calificacion <= 1000,\n            \"No se puede calificar con una nota superior a la maxima permitida.\"\n        );\n        Nota memory nota = Nota(tipo, calificacion);\n\n        calificaciones[alumno][evaluacion] = nota;\n    }\n\n    /**\n * Devuelve el tipo de nota y la calificacion que ha sacado el alumno que invoca el metodo en la evaluacion\npasada como parametro.\n *\n * @param evaluacion Indice de una evaluacion en el array de evaluaciones.\n *\n * @return tipo El tipo de nota que ha sacado el alumno.\n * @return calificacion La calificacion que ha sacado el alumno.\n */\n    function miNota(uint256 evaluacion)\n        public\n        view\n        soloMatriculados\n        returns (TipoNota tipo, uint256 calificacion)\n    {\n        require(\n            evaluacion < evaluaciones.length,\n            \"El indice de la evaluacion no existe.\"\n        );\n\n        Nota memory nota = calificaciones[msg.sender][evaluacion];\n\n        tipo = nota.tipo;\n        calificacion = nota.calificacion;\n    }\n\n    // Devuelve la nota final del alumno que llama al mtodo\n    // Si el tipo de nota de alguna de las evaluaciones es \"Empty\" no se le ha asignado la calificacin y el mtodo devuelve (Empty, 0)\n    // Si todas las calificaciones son NP, devuelve (NP, 0)\n    // Si la nota final es superior a 400 y hay alguna evaluacin NP, entonces devuelve como mximo 499\n    function miNotaFinal()\n        public\n        view\n        soloMatriculados\n        returns (TipoNota tipo, uint256 calificacion)\n    {\n        return _notaFinal(msg.sender);\n    }\n\n    //Devuelve la nota final del alumno indicado\n    function notaFinal(address _addr)\n        public\n        view\n        soloCoordinador\n        returns (TipoNota tipo, uint256 calificacion)\n    {\n        return _notaFinal(_addr);\n    }\n\n    function _notaFinal(address _addr)\n        private\n        view\n        returns (TipoNota tipo, uint256 calificacion)\n    {\n        tipo = TipoNota.NP;\n\n        for (uint256 i = 0; i < evaluaciones.length; i++) {\n            if (calificaciones[_addr][i].tipo == TipoNota.Empty) {\n                return (TipoNota.Empty, 0);\n            }\n            if (calificaciones[_addr][i].tipo == TipoNota.Normal) {\n                tipo = TipoNota.Normal;\n                continue;\n            }\n        }\n        if (tipo == TipoNota.NP) {\n            return (tipo, 0);\n        }\n\n        bool suspenso = false;\n        uint256 nota = 0;\n\n        for (uint256 i = 0; i < evaluaciones.length; i++) {\n            // if (\n            //     calificaciones[_addr][i].calificacion < evaluaciones[i].minimo\n            // ) {\n            //     suspenso = true;\n            // }\n            nota +=\n                (calificaciones[_addr][i].calificacion *\n                    evaluaciones[i].porcentaje) /\n                100;\n        }\n        if (suspenso && nota > 499) {\n            nota = 499;\n        }\n        tipo = TipoNota.Normal;\n        calificacion = nota;\n    }\n\n    /**\n     * Consulta si una direccion pertenece a un alumno matriculado.\n     *\n     * @param alumno La direccion de un alumno.\n     *\n     * @return true si es una alumno matriculado.\n     */\n    function estaMatriculado(address alumno) private view returns (bool) {\n        string memory _nombre = datosAlumno[alumno].nombre;\n\n        return bytes(_nombre).length != 0;\n    }\n\n    // Modificador para que una funcin solo la pueda ejecutar el owner\n    modifier soloOwner(){\n        require(msg.sender == owner,\"Solo permitido al owner\");\n        _;\n    }\n\n    // Modificador para que una funcin solo la pueda ejecutar el coordinador\n    modifier soloCoordinador(){\n        require(msg.sender == coordinador,\"Solo permitido al coordinador\");\n        _;\n    }\n\n    // Modificador para que una funcin solo la pueda ejecutar el profesor\n    modifier soloProfesor(){\n        string memory _nombre = datosProfesor[msg.sender];\n        require(bytes(_nombre).length != 0,\"Solo permitido al profesor\");\n        _;\n    }\n\n    /**\n     * Modificador para que una funcion solo la pueda ejecutar un alumno matriculado.\n     */\n    modifier soloMatriculados() {\n        require(\n            estaMatriculado(msg.sender),\n            \"Solo permitido a alumnos matriculados\"\n        );\n        _;\n    }\n\n    /**\n     * Modificador para que una funcion solo la pueda ejecutar un alumno no matriculado aun.\n     */\n    modifier soloNoMatriculados() {\n        require(\n            !estaMatriculado(msg.sender),\n            \"Solo permitido a alumnos no matriculados\"\n        );\n        _;\n    }\n\n    // Modificador para que una funcin solo la pueda ejecutar si la asignatura no est cerrada\n    modifier soloAbierta(){\n        require(!cerrada,\"Solo permitido si la asignatura no esta cerrada\");\n        _;\n    }\n\n    /**\n     * No se permite la recepcion de dinero.\n     */\n    receive() external payable {\n        revert(\"No se permite la recepcion de dinero.\");\n    }\n}\n",
  "sourcePath": "/home/kali/Desktop/BCDA /Asignatura/Asignatura/truffle/contracts/Asignatura.sol",
  "compiler": {
    "name": "solc",
    "version": "0.8.17+commit.8df45f5f.Emscripten.clang"
  },
  "schemaVersion": "3.4.11",
  "updatedAt": "2023-01-04T11:01:06.286Z",
  "networkType": "ethereum",
  "devdoc": {
    "kind": "dev",
    "methods": {
      "automatricula(string,string)": {
        "params": {
          "_email": "El email del alumno.",
          "_nombre": "El nombre del alumno."
        }
      },
      "califica(address,uint256,uint8,uint256)": {
        "params": {
          "alumno": "La direccion del alumno.",
          "calificacion": "La calificacion, multipilicada por 100 porque no hay decimales.",
          "evaluacion": "El indice de una evaluacion en el array evaluaciones.",
          "tipo": "Tipo de nota."
        }
      },
      "constructor": {
        "params": {
          "_curso": "Curso academico.",
          "_nombre": "Nombre de la asignatura."
        }
      },
      "creaEvaluacion(string,uint256,uint256)": {
        "params": {
          "_fecha": "La fecha de evaluacion (segundos desde el 1/1/1970).",
          "_nombre": "El nombre de la evaluacion.",
          "_porcentaje": "El porcentaje de puntos que proporciona a la nota final."
        },
        "returns": {
          "_0": "La posicion en el array evaluaciones,"
        }
      },
      "evaluacionesLength()": {
        "returns": {
          "_0": "El numero de evaluaciones creadas."
        }
      },
      "matriculaDir(string,string,address)": {
        "params": {
          "_addr": "La direccin del alumno.",
          "_email": "El email del alumno.",
          "_nombre": "El nombre del alumno."
        }
      },
      "matriculasLength()": {
        "returns": {
          "_0": "El numero de alumnos matriculados."
        }
      },
      "miNota(uint256)": {
        "params": {
          "evaluacion": "Indice de una evaluacion en el array de evaluaciones."
        },
        "returns": {
          "calificacion": "La calificacion que ha sacado el alumno.",
          "tipo": "El tipo de nota que ha sacado el alumno."
        }
      },
      "quienSoy()": {
        "returns": {
          "_email": "El email del alumno que invoca el metodo.",
          "_nombre": "El nombre del alumno que invoca el metodo."
        }
      }
    },
    "version": 1
  },
  "userdoc": {
    "kind": "user",
    "methods": {
      "automatricula(string,string)": {
        "notice": "Los alumnos pueden automatricularse con el metodo automatricula. Impedir que se pueda meter un nombre vacio."
      },
      "califica(address,uint256,uint8,uint256)": {
        "notice": "Poner la nota de un alumno en una evaluacion."
      },
      "constructor": {
        "notice": "Constructor."
      },
      "creaEvaluacion(string,uint256,uint256)": {
        "notice": "Crear una prueba de evaluacion de la asignatura. Por ejemplo, el primer parcial, o la practica 3. Las evaluaciones se meteran en el array evaluaciones, y nos referiremos a ellas por su posicion en el array."
      },
      "curso()": {
        "notice": "Curso academico"
      },
      "datosAlumno(address)": {
        "notice": "Acceder a los datos de un alumno dada su direccion."
      },
      "evaluaciones(uint256)": {
        "notice": "Evaluaciones de la asignatura."
      },
      "evaluacionesLength()": {
        "notice": "El numero de evaluaciones creadas."
      },
      "matriculaDir(string,string,address)": {
        "notice": "El owner puede matricular a los alumnos Impedir que se pueda meter un nombre vacio."
      },
      "matriculasLength()": {
        "notice": "El numero de alumnos matriculados."
      },
      "miNota(uint256)": {
        "notice": "Devuelve el tipo de nota y la calificacion que ha sacado el alumno que invoca el metodo en la evaluacion pasada como parametro."
      },
      "nombre()": {
        "notice": "Nombre de la asignatura"
      },
      "profesor()": {
        "notice": "address del profesor que ha desplegado el contrato. El contrato lo despliega el profesor."
      },
      "quienSoy()": {
        "notice": "Permite a un alumno obtener sus propios datos."
      },
      "version()": {
        "notice": "Version 2022 Lite - Teoria"
      }
    },
    "notice": "El contrato Asignatura que representa una asignatura de la carrera. Version Lite",
    "version": 1
  }
}