{
  "contractName": "Asignatura",
  "abi": [
    {
      "inputs": [
        {
          "internalType": "string",
          "name": "_nombre",
          "type": "string"
        },
        {
          "internalType": "string",
          "name": "_curso",
          "type": "string"
        }
      ],
      "stateMutability": "nonpayable",
      "type": "constructor"
    },
    {
      "inputs": [
        {
          "internalType": "address",
          "name": "",
          "type": "address"
        },
        {
          "internalType": "uint256",
          "name": "",
          "type": "uint256"
        }
      ],
      "name": "calificaciones",
      "outputs": [
        {
          "internalType": "enum Asignatura.TipoNota",
          "name": "tipo",
          "type": "uint8"
        },
        {
          "internalType": "uint256",
          "name": "calificacion",
          "type": "uint256"
        }
      ],
      "stateMutability": "view",
      "type": "function",
      "constant": true
    },
    {
      "inputs": [],
      "name": "cerrada",
      "outputs": [
        {
          "internalType": "bool",
          "name": "",
          "type": "bool"
        }
      ],
      "stateMutability": "view",
      "type": "function",
      "constant": true
    },
    {
      "inputs": [],
      "name": "coordinador",
      "outputs": [
        {
          "internalType": "address",
          "name": "",
          "type": "address"
        }
      ],
      "stateMutability": "view",
      "type": "function",
      "constant": true
    },
    {
      "inputs": [],
      "name": "curso",
      "outputs": [
        {
          "internalType": "string",
          "name": "",
          "type": "string"
        }
      ],
      "stateMutability": "view",
      "type": "function",
      "constant": true
    },
    {
      "inputs": [
        {
          "internalType": "address",
          "name": "",
          "type": "address"
        }
      ],
      "name": "datosAlumno",
      "outputs": [
        {
          "internalType": "string",
          "name": "nombre",
          "type": "string"
        },
        {
          "internalType": "string",
          "name": "email",
          "type": "string"
        }
      ],
      "stateMutability": "view",
      "type": "function",
      "constant": true
    },
    {
      "inputs": [
        {
          "internalType": "address",
          "name": "",
          "type": "address"
        }
      ],
      "name": "datosProfesor",
      "outputs": [
        {
          "internalType": "string",
          "name": "",
          "type": "string"
        }
      ],
      "stateMutability": "view",
      "type": "function",
      "constant": true
    },
    {
      "inputs": [
        {
          "internalType": "uint256",
          "name": "",
          "type": "uint256"
        }
      ],
      "name": "evaluaciones",
      "outputs": [
        {
          "internalType": "string",
          "name": "nombre",
          "type": "string"
        },
        {
          "internalType": "uint256",
          "name": "fecha",
          "type": "uint256"
        },
        {
          "internalType": "uint256",
          "name": "porcentaje",
          "type": "uint256"
        }
      ],
      "stateMutability": "view",
      "type": "function",
      "constant": true
    },
    {
      "inputs": [
        {
          "internalType": "uint256",
          "name": "",
          "type": "uint256"
        }
      ],
      "name": "matriculas",
      "outputs": [
        {
          "internalType": "address",
          "name": "",
          "type": "address"
        }
      ],
      "stateMutability": "view",
      "type": "function",
      "constant": true
    },
    {
      "inputs": [],
      "name": "nombre",
      "outputs": [
        {
          "internalType": "string",
          "name": "",
          "type": "string"
        }
      ],
      "stateMutability": "view",
      "type": "function",
      "constant": true
    },
    {
      "inputs": [],
      "name": "owner",
      "outputs": [
        {
          "internalType": "address",
          "name": "",
          "type": "address"
        }
      ],
      "stateMutability": "view",
      "type": "function",
      "constant": true
    },
    {
      "inputs": [],
      "name": "profesor",
      "outputs": [
        {
          "internalType": "address",
          "name": "",
          "type": "address"
        }
      ],
      "stateMutability": "view",
      "type": "function",
      "constant": true
    },
    {
      "inputs": [
        {
          "internalType": "uint256",
          "name": "",
          "type": "uint256"
        }
      ],
      "name": "profesores",
      "outputs": [
        {
          "internalType": "address",
          "name": "",
          "type": "address"
        }
      ],
      "stateMutability": "view",
      "type": "function",
      "constant": true
    },
    {
      "inputs": [],
      "name": "version",
      "outputs": [
        {
          "internalType": "string",
          "name": "",
          "type": "string"
        }
      ],
      "stateMutability": "view",
      "type": "function",
      "constant": true
    },
    {
      "stateMutability": "payable",
      "type": "receive",
      "payable": true
    },
    {
      "inputs": [
        {
          "internalType": "address",
          "name": "addr",
          "type": "address"
        }
      ],
      "name": "setCoordinador",
      "outputs": [],
      "stateMutability": "nonpayable",
      "type": "function"
    },
    {
      "inputs": [],
      "name": "cerrar",
      "outputs": [],
      "stateMutability": "nonpayable",
      "type": "function"
    },
    {
      "inputs": [
        {
          "internalType": "address",
          "name": "_addr",
          "type": "address"
        },
        {
          "internalType": "string",
          "name": "_nombre",
          "type": "string"
        }
      ],
      "name": "addProfesor",
      "outputs": [],
      "stateMutability": "nonpayable",
      "type": "function"
    },
    {
      "inputs": [],
      "name": "profesoresLength",
      "outputs": [
        {
          "internalType": "uint256",
          "name": "",
          "type": "uint256"
        }
      ],
      "stateMutability": "view",
      "type": "function",
      "constant": true
    },
    {
      "inputs": [
        {
          "internalType": "string",
          "name": "_nombre",
          "type": "string"
        },
        {
          "internalType": "string",
          "name": "_email",
          "type": "string"
        }
      ],
      "name": "automatricula",
      "outputs": [],
      "stateMutability": "nonpayable",
      "type": "function"
    },
    {
      "inputs": [],
      "name": "matriculasLength",
      "outputs": [
        {
          "internalType": "uint256",
          "name": "",
          "type": "uint256"
        }
      ],
      "stateMutability": "view",
      "type": "function",
      "constant": true
    },
    {
      "inputs": [],
      "name": "quienSoy",
      "outputs": [
        {
          "internalType": "string",
          "name": "_nombre",
          "type": "string"
        },
        {
          "internalType": "string",
          "name": "_email",
          "type": "string"
        }
      ],
      "stateMutability": "view",
      "type": "function",
      "constant": true
    },
    {
      "inputs": [
        {
          "internalType": "string",
          "name": "_nombre",
          "type": "string"
        },
        {
          "internalType": "uint256",
          "name": "_fecha",
          "type": "uint256"
        },
        {
          "internalType": "uint256",
          "name": "_porcentaje",
          "type": "uint256"
        }
      ],
      "name": "creaEvaluacion",
      "outputs": [
        {
          "internalType": "uint256",
          "name": "",
          "type": "uint256"
        }
      ],
      "stateMutability": "nonpayable",
      "type": "function"
    },
    {
      "inputs": [],
      "name": "evaluacionesLength",
      "outputs": [
        {
          "internalType": "uint256",
          "name": "",
          "type": "uint256"
        }
      ],
      "stateMutability": "view",
      "type": "function",
      "constant": true
    },
    {
      "inputs": [
        {
          "internalType": "address",
          "name": "alumno",
          "type": "address"
        },
        {
          "internalType": "uint256",
          "name": "evaluacion",
          "type": "uint256"
        },
        {
          "internalType": "enum Asignatura.TipoNota",
          "name": "tipo",
          "type": "uint8"
        },
        {
          "internalType": "uint256",
          "name": "calificacion",
          "type": "uint256"
        }
      ],
      "name": "califica",
      "outputs": [],
      "stateMutability": "nonpayable",
      "type": "function"
    },
    {
      "inputs": [
        {
          "internalType": "uint256",
          "name": "evaluacion",
          "type": "uint256"
        }
      ],
      "name": "miNota",
      "outputs": [
        {
          "internalType": "enum Asignatura.TipoNota",
          "name": "tipo",
          "type": "uint8"
        },
        {
          "internalType": "uint256",
          "name": "calificacion",
          "type": "uint256"
        }
      ],
      "stateMutability": "view",
      "type": "function",
      "constant": true
    },
    {
      "inputs": [],
      "name": "miNotaFinal",
      "outputs": [
        {
          "internalType": "enum Asignatura.TipoNota",
          "name": "tipo",
          "type": "uint8"
        },
        {
          "internalType": "uint256",
          "name": "calificacion",
          "type": "uint256"
        }
      ],
      "stateMutability": "view",
      "type": "function",
      "constant": true
    },
    {
      "inputs": [
        {
          "internalType": "address",
          "name": "_addr",
          "type": "address"
        }
      ],
      "name": "notaFinal",
      "outputs": [
        {
          "internalType": "enum Asignatura.TipoNota",
          "name": "tipo",
          "type": "uint8"
        },
        {
          "internalType": "uint256",
          "name": "calificacion",
          "type": "uint256"
        }
      ],
      "stateMutability": "view",
      "type": "function",
      "constant": true
    }
  ],
  "bytecode": "0x60806040526040518060400160405280600981526020017f32303232204c6974650000000000000000000000000000000000000000000000815250600090816200004a9190620003f3565b503480156200005857600080fd5b5060405162003a1538038062003a1583398181016040528101906200007e91906200063e565b6000825103620000c5576040517f08c379a0000000000000000000000000000000000000000000000000000000008152600401620000bc906200074a565b60405180910390fd5b60008151036200010c576040517f08c379a00000000000000000000000000000000000000000000000000000000081526004016200010390620007e2565b60405180910390fd5b33600460006101000a81548173ffffffffffffffffffffffffffffffffffffffff021916908373ffffffffffffffffffffffffffffffffffffffff16021790555081600590816200015e9190620003f3565b508060069081620001709190620003f3565b50505062000804565b600081519050919050565b7f4e487b7100000000000000000000000000000000000000000000000000000000600052604160045260246000fd5b7f4e487b7100000000000000000000000000000000000000000000000000000000600052602260045260246000fd5b60006002820490506001821680620001fb57607f821691505b602082108103620002115762000210620001b3565b5b50919050565b60008190508160005260206000209050919050565b60006020601f8301049050919050565b600082821b905092915050565b6000600883026200027b7fffffffffffffffffffffffffffffffffffffffffffffffffffffffffffffffff826200023c565b6200028786836200023c565b95508019841693508086168417925050509392505050565b6000819050919050565b6000819050919050565b6000620002d4620002ce620002c8846200029f565b620002a9565b6200029f565b9050919050565b6000819050919050565b620002f083620002b3565b62000308620002ff82620002db565b84845462000249565b825550505050565b600090565b6200031f62000310565b6200032c818484620002e5565b505050565b5b8181101562000354576200034860008262000315565b60018101905062000332565b5050565b601f821115620003a3576200036d8162000217565b62000378846200022c565b8101602085101562000388578190505b620003a062000397856200022c565b83018262000331565b50505b505050565b600082821c905092915050565b6000620003c860001984600802620003a8565b1980831691505092915050565b6000620003e38383620003b5565b9150826002028217905092915050565b620003fe8262000179565b67ffffffffffffffff8111156200041a576200041962000184565b5b620004268254620001e2565b6200043382828562000358565b600060209050601f8311600181146200046b576000841562000456578287015190505b620004628582620003d5565b865550620004d2565b601f1984166200047b8662000217565b60005b82811015620004a5578489015182556001820191506020850194506020810190506200047e565b86831015620004c55784890151620004c1601f891682620003b5565b8355505b6001600288020188555050505b505050505050565b6000604051905090565b600080fd5b600080fd5b600080fd5b600080fd5b6000601f19601f8301169050919050565b6200051482620004f8565b810181811067ffffffffffffffff8211171562000536576200053562000184565b5b80604052505050565b60006200054b620004da565b905062000559828262000509565b919050565b600067ffffffffffffffff8211156200057c576200057b62000184565b5b6200058782620004f8565b9050602081019050919050565b60005b83811015620005b457808201518184015260208101905062000597565b60008484015250505050565b6000620005d7620005d1846200055e565b6200053f565b905082815260208101848484011115620005f657620005f5620004f3565b5b6200060384828562000594565b509392505050565b600082601f830112620006235762000622620004ee565b5b815162000635848260208601620005c0565b91505092915050565b60008060408385031215620006585762000657620004e4565b5b600083015167ffffffffffffffff811115620006795762000678620004e9565b5b62000687858286016200060b565b925050602083015167ffffffffffffffff811115620006ab57620006aa620004e9565b5b620006b9858286016200060b565b9150509250929050565b600082825260208201905092915050565b7f456c206e6f6d627265206465206c6120617369676e6174757261206e6f20707560008201527f6564652073657220766163696f00000000000000000000000000000000000000602082015250565b600062000732602d83620006c3565b91506200073f82620006d4565b604082019050919050565b60006020820190508181036000830152620007658162000723565b9050919050565b7f456c20637572736f2061636164656d69636f206465206c6120617369676e617460008201527f757261206e6f2070756564652073657220766163696f00000000000000000000602082015250565b6000620007ca603683620006c3565b9150620007d7826200076c565b604082019050919050565b60006020820190508181036000830152620007fd81620007bb565b9050919050565b61320180620008146000396000f3fe6080604052600436106101855760003560e01c80638da5cb5b116100d1578063d017da1f1161008a578063dab6ff2811610064578063dab6ff281461061e578063deafcc4114610635578063df09657614610660578063f967f9861461068b576101c5565b8063d017da1f1461057a578063d27c3f3c146105b7578063d51b4584146105f5576101c5565b80638da5cb5b146104535780639e1d8f4b1461047e578063bc7b35b2146104a9578063c7918139146104d4578063c837375014610511578063d00de47a1461054e576101c5565b8063537668831161013e57806361d4c6ad1161011857806361d4c6ad14610384578063641945bf146103ad5780636bf8aad6146103ea5780637810ff1e14610428576101c5565b806353766883146102ef57806354fd4d501461031b5780635aa4ffe614610346576101c5565b80631d2e4d2b146101ca57806322c4e394146101f357806330322c9b1461021e57806342a6dde21461024757806344f7a8cc14610285578063488cf4f5146102c4576101c5565b366101c5576040517f08c379a00000000000000000000000000000000000000000000000000000000081526004016101bc90611f33565b60405180910390fd5b600080fd5b3480156101d657600080fd5b506101f160048036038101906101ec919061210b565b6106b6565b005b3480156101ff57600080fd5b5061020861091c565b6040516102159190612182565b60405180910390f35b34801561022a57600080fd5b50610245600480360381019061024091906121f8565b61092f565b005b34801561025357600080fd5b5061026e6004803603810190610269919061225f565b610c24565b60405161027c929190612325565b60405180910390f35b34801561029157600080fd5b506102ac60048036038101906102a7919061234e565b610c62565b6040516102bb939291906123e9565b60405180910390f35b3480156102d057600080fd5b506102d9610d24565b6040516102e69190612427565b60405180910390f35b3480156102fb57600080fd5b50610304610d31565b604051610312929190612442565b60405180910390f35b34801561032757600080fd5b50610330610f01565b60405161033d9190612479565b60405180910390f35b34801561035257600080fd5b5061036d6004803603810190610368919061249b565b610f8f565b60405161037b929190612325565b60405180910390f35b34801561039057600080fd5b506103ab60048036038101906103a691906124c8565b611034565b005b3480156103b957600080fd5b506103d460048036038101906103cf919061249b565b6111b1565b6040516103e19190612479565b60405180910390f35b3480156103f657600080fd5b50610411600480360381019061040c919061249b565b611251565b60405161041f929190612442565b60405180910390f35b34801561043457600080fd5b5061043d611385565b60405161044a919061254f565b60405180910390f35b34801561045f57600080fd5b506104686113ab565b604051610475919061254f565b60405180910390f35b34801561048a57600080fd5b506104936113d1565b6040516104a09190612427565b60405180910390f35b3480156104b557600080fd5b506104be6113de565b6040516104cb9190612479565b60405180910390f35b3480156104e057600080fd5b506104fb60048036038101906104f6919061234e565b61146c565b604051610508919061254f565b60405180910390f35b34801561051d57600080fd5b506105386004803603810190610533919061234e565b6114ab565b604051610545919061254f565b60405180910390f35b34801561055a57600080fd5b506105636114ea565b604051610571929190612325565b60405180910390f35b34801561058657600080fd5b506105a1600480360381019061059c919061256a565b611546565b6040516105ae9190612427565b60405180910390f35b3480156105c357600080fd5b506105de60048036038101906105d9919061234e565b611779565b6040516105ec929190612325565b60405180910390f35b34801561060157600080fd5b5061061c6004803603810190610617919061249b565b6118c3565b005b34801561062a57600080fd5b506106336119e7565b005b34801561064157600080fd5b5061064a611a94565b6040516106579190612479565b60405180910390f35b34801561066c57600080fd5b50610675611b22565b604051610682919061254f565b60405180910390f35b34801561069757600080fd5b506106a0611b48565b6040516106ad9190612427565b60405180910390f35b600460009054906101000a900473ffffffffffffffffffffffffffffffffffffffff1673ffffffffffffffffffffffffffffffffffffffff163373ffffffffffffffffffffffffffffffffffffffff1614610746576040517f08c379a000000000000000000000000000000000000000000000000000000000815260040161073d90612625565b60405180910390fd5b600760149054906101000a900460ff1615610796576040517f08c379a000000000000000000000000000000000000000000000000000000000815260040161078d906126b7565b60405180910390fd5b6000600360008473ffffffffffffffffffffffffffffffffffffffff1673ffffffffffffffffffffffffffffffffffffffff16815260200190815260200160002080546107e290612706565b905014610824576040517f08c379a000000000000000000000000000000000000000000000000000000000815260040161081b90612783565b60405180910390fd5b6000815103610868576040517f08c379a000000000000000000000000000000000000000000000000000000000815260040161085f90612815565b60405180910390fd5b80600360008473ffffffffffffffffffffffffffffffffffffffff1673ffffffffffffffffffffffffffffffffffffffff16815260200190815260200160002090816108b491906129e1565b506002829080600181540180825580915050600190039060005260206000200160009091909190916101000a81548173ffffffffffffffffffffffffffffffffffffffff021916908373ffffffffffffffffffffffffffffffffffffffff1602179055505050565b600760149054906101000a900460ff1681565b6000600360003373ffffffffffffffffffffffffffffffffffffffff1673ffffffffffffffffffffffffffffffffffffffff168152602001908152602001600020805461097b90612706565b80601f01602080910402602001604051908101604052809291908181526020018280546109a790612706565b80156109f45780601f106109c9576101008083540402835291602001916109f4565b820191906000526020600020905b8154815290600101906020018083116109d757829003601f168201915b505050505090506000815103610a3f576040517f08c379a0000000000000000000000000000000000000000000000000000000008152600401610a3690612aff565b60405180910390fd5b600760149054906101000a900460ff1615610a8f576040517f08c379a0000000000000000000000000000000000000000000000000000000008152600401610a86906126b7565b60405180910390fd5b610a9885611b55565b610ad7576040517f08c379a0000000000000000000000000000000000000000000000000000000008152600401610ace90612b91565b60405180910390fd5b600a805490508410610b1e576040517f08c379a0000000000000000000000000000000000000000000000000000000008152600401610b1590612c23565b60405180910390fd5b6103e8821115610b63576040517f08c379a0000000000000000000000000000000000000000000000000000000008152600401610b5a90612cdb565b60405180910390fd5b60006040518060400160405280856002811115610b8357610b8261229f565b5b815260200184815250905080600b60008873ffffffffffffffffffffffffffffffffffffffff1673ffffffffffffffffffffffffffffffffffffffff168152602001908152602001600020600087815260200190815260200160002060008201518160000160006101000a81548160ff02191690836002811115610c0a57610c0961229f565b5b021790555060208201518160010155905050505050505050565b600b602052816000526040600020602052806000526040600020600091509150508060000160009054906101000a900460ff16908060010154905082565b600a8181548110610c7257600080fd5b9060005260206000209060030201600091509050806000018054610c9590612706565b80601f0160208091040260200160405190810160405280929190818152602001828054610cc190612706565b8015610d0e5780601f10610ce357610100808354040283529160200191610d0e565b820191906000526020600020905b815481529060010190602001808311610cf157829003601f168201915b5050505050908060010154908060020154905083565b6000600a80549050905090565b606080610d3d33611b55565b610d7c576040517f08c379a0000000000000000000000000000000000000000000000000000000008152600401610d7390612d6d565b60405180910390fd5b6000600860003373ffffffffffffffffffffffffffffffffffffffff1673ffffffffffffffffffffffffffffffffffffffff168152602001908152602001600020604051806040016040529081600082018054610dd890612706565b80601f0160208091040260200160405190810160405280929190818152602001828054610e0490612706565b8015610e515780601f10610e2657610100808354040283529160200191610e51565b820191906000526020600020905b815481529060010190602001808311610e3457829003601f168201915b50505050508152602001600182018054610e6a90612706565b80601f0160208091040260200160405190810160405280929190818152602001828054610e9690612706565b8015610ee35780601f10610eb857610100808354040283529160200191610ee3565b820191906000526020600020905b815481529060010190602001808311610ec657829003601f168201915b50505050508152505090508060000151925080602001519150509091565b60008054610f0e90612706565b80601f0160208091040260200160405190810160405280929190818152602001828054610f3a90612706565b8015610f875780601f10610f5c57610100808354040283529160200191610f87565b820191906000526020600020905b815481529060010190602001808311610f6a57829003601f168201915b505050505081565b600080600760009054906101000a900473ffffffffffffffffffffffffffffffffffffffff1673ffffffffffffffffffffffffffffffffffffffff163373ffffffffffffffffffffffffffffffffffffffff1614611022576040517f08c379a000000000000000000000000000000000000000000000000000000000815260040161101990612dd9565b60405180910390fd5b61102b83611c33565b91509150915091565b61103d33611b55565b1561107d576040517f08c379a000000000000000000000000000000000000000000000000000000000815260040161107490612e6b565b60405180910390fd5b60008251036110c1576040517f08c379a00000000000000000000000000000000000000000000000000000000081526004016110b890612ed7565b60405180910390fd5b6000604051806040016040528084815260200183815250905080600860003373ffffffffffffffffffffffffffffffffffffffff1673ffffffffffffffffffffffffffffffffffffffff168152602001908152602001600020600082015181600001908161112f91906129e1565b50602082015181600101908161114591906129e1565b509050506009339080600181540180825580915050600190039060005260206000200160009091909190916101000a81548173ffffffffffffffffffffffffffffffffffffffff021916908373ffffffffffffffffffffffffffffffffffffffff160217905550505050565b600360205280600052604060002060009150905080546111d090612706565b80601f01602080910402602001604051908101604052809291908181526020018280546111fc90612706565b80156112495780601f1061121e57610100808354040283529160200191611249565b820191906000526020600020905b81548152906001019060200180831161122c57829003601f168201915b505050505081565b600860205280600052604060002060009150905080600001805461127490612706565b80601f01602080910402602001604051908101604052809291908181526020018280546112a090612706565b80156112ed5780601f106112c2576101008083540402835291602001916112ed565b820191906000526020600020905b8154815290600101906020018083116112d057829003601f168201915b50505050509080600101805461130290612706565b80601f016020809104026020016040519081016040528092919081815260200182805461132e90612706565b801561137b5780601f106113505761010080835404028352916020019161137b565b820191906000526020600020905b81548152906001019060200180831161135e57829003601f168201915b5050505050905082565b600760009054906101000a900473ffffffffffffffffffffffffffffffffffffffff1681565b600460009054906101000a900473ffffffffffffffffffffffffffffffffffffffff1681565b6000600980549050905090565b600580546113eb90612706565b80601f016020809104026020016040519081016040528092919081815260200182805461141790612706565b80156114645780601f1061143957610100808354040283529160200191611464565b820191906000526020600020905b81548152906001019060200180831161144757829003601f168201915b505050505081565b6009818154811061147c57600080fd5b906000526020600020016000915054906101000a900473ffffffffffffffffffffffffffffffffffffffff1681565b600281815481106114bb57600080fd5b906000526020600020016000915054906101000a900473ffffffffffffffffffffffffffffffffffffffff1681565b6000806114f633611b55565b611535576040517f08c379a000000000000000000000000000000000000000000000000000000000815260040161152c90612d6d565b60405180910390fd5b61153e33611c33565b915091509091565b600080600360003373ffffffffffffffffffffffffffffffffffffffff1673ffffffffffffffffffffffffffffffffffffffff168152602001908152602001600020805461159390612706565b80601f01602080910402602001604051908101604052809291908181526020018280546115bf90612706565b801561160c5780601f106115e15761010080835404028352916020019161160c565b820191906000526020600020905b8154815290600101906020018083116115ef57829003601f168201915b505050505090506000815103611657576040517f08c379a000000000000000000000000000000000000000000000000000000000815260040161164e90612aff565b60405180910390fd5b600760149054906101000a900460ff16156116a7576040517f08c379a000000000000000000000000000000000000000000000000000000000815260040161169e906126b7565b60405180910390fd5b60008551036116eb576040517f08c379a00000000000000000000000000000000000000000000000000000000081526004016116e290612f69565b60405180910390fd5b600a6040518060600160405280878152602001868152602001858152509080600181540180825580915050600190039060005260206000209060030201600090919091909150600082015181600001908161174691906129e1565b50602082015181600101556040820151816002015550506001600a8054905061176f9190612fb8565b9150509392505050565b60008061178533611b55565b6117c4576040517f08c379a00000000000000000000000000000000000000000000000000000000081526004016117bb90612d6d565b60405180910390fd5b600a80549050831061180b576040517f08c379a00000000000000000000000000000000000000000000000000000000081526004016118029061305e565b60405180910390fd5b6000600b60003373ffffffffffffffffffffffffffffffffffffffff1673ffffffffffffffffffffffffffffffffffffffff16815260200190815260200160002060008581526020019081526020016000206040518060400160405290816000820160009054906101000a900460ff16600281111561188d5761188c61229f565b5b600281111561189f5761189e61229f565b5b81526020016001820154815250509050806000015192508060200151915050915091565b600460009054906101000a900473ffffffffffffffffffffffffffffffffffffffff1673ffffffffffffffffffffffffffffffffffffffff163373ffffffffffffffffffffffffffffffffffffffff1614611953576040517f08c379a000000000000000000000000000000000000000000000000000000000815260040161194a90612625565b60405180910390fd5b600760149054906101000a900460ff16156119a3576040517f08c379a000000000000000000000000000000000000000000000000000000000815260040161199a906126b7565b60405180910390fd5b80600760006101000a81548173ffffffffffffffffffffffffffffffffffffffff021916908373ffffffffffffffffffffffffffffffffffffffff16021790555050565b600760009054906101000a900473ffffffffffffffffffffffffffffffffffffffff1673ffffffffffffffffffffffffffffffffffffffff163373ffffffffffffffffffffffffffffffffffffffff1614611a77576040517f08c379a0000000000000000000000000000000000000000000000000000000008152600401611a6e90612dd9565b60405180910390fd5b6001600760146101000a81548160ff021916908315150217905550565b60068054611aa190612706565b80601f0160208091040260200160405190810160405280929190818152602001828054611acd90612706565b8015611b1a5780601f10611aef57610100808354040283529160200191611b1a565b820191906000526020600020905b815481529060010190602001808311611afd57829003601f168201915b505050505081565b600160009054906101000a900473ffffffffffffffffffffffffffffffffffffffff1681565b6000600280549050905090565b600080600860008473ffffffffffffffffffffffffffffffffffffffff1673ffffffffffffffffffffffffffffffffffffffff1681526020019081526020016000206000018054611ba590612706565b80601f0160208091040260200160405190810160405280929190818152602001828054611bd190612706565b8015611c1e5780601f10611bf357610100808354040283529160200191611c1e565b820191906000526020600020905b815481529060010190602001808311611c0157829003601f168201915b50505050509050600081511415915050919050565b6000806001915060005b600a80549050811015611d8b5760006002811115611c5e57611c5d61229f565b5b600b60008673ffffffffffffffffffffffffffffffffffffffff1673ffffffffffffffffffffffffffffffffffffffff168152602001908152602001600020600083815260200190815260200160002060000160009054906101000a900460ff166002811115611cd157611cd061229f565b5b03611ce3576000809250925050611eab565b600280811115611cf657611cf561229f565b5b600b60008673ffffffffffffffffffffffffffffffffffffffff1673ffffffffffffffffffffffffffffffffffffffff168152602001908152602001600020600083815260200190815260200160002060000160009054906101000a900460ff166002811115611d6957611d6861229f565b5b03611d775760029250611d78565b5b8080611d839061307e565b915050611c3d565b5060016002811115611da057611d9f61229f565b5b826002811115611db357611db261229f565b5b03611dc45781600091509150611eab565b60008060005b600a80549050811015611e87576064600a8281548110611ded57611dec6130c6565b5b906000526020600020906003020160020154600b60008973ffffffffffffffffffffffffffffffffffffffff1673ffffffffffffffffffffffffffffffffffffffff168152602001908152602001600020600084815260200190815260200160002060010154611e5d91906130f5565b611e679190613166565b82611e729190613197565b91508080611e7f9061307e565b915050611dca565b50818015611e9657506101f381115b15611ea1576101f390505b6002935080925050505b915091565b600082825260208201905092915050565b7f4e6f207365207065726d697465206c6120726563657063696f6e20646520646960008201527f6e65726f2e000000000000000000000000000000000000000000000000000000602082015250565b6000611f1d602583611eb0565b9150611f2882611ec1565b604082019050919050565b60006020820190508181036000830152611f4c81611f10565b9050919050565b6000604051905090565b600080fd5b600080fd5b600073ffffffffffffffffffffffffffffffffffffffff82169050919050565b6000611f9282611f67565b9050919050565b611fa281611f87565b8114611fad57600080fd5b50565b600081359050611fbf81611f99565b92915050565b600080fd5b600080fd5b6000601f19601f8301169050919050565b7f4e487b7100000000000000000000000000000000000000000000000000000000600052604160045260246000fd5b61201882611fcf565b810181811067ffffffffffffffff8211171561203757612036611fe0565b5b80604052505050565b600061204a611f53565b9050612056828261200f565b919050565b600067ffffffffffffffff82111561207657612075611fe0565b5b61207f82611fcf565b9050602081019050919050565b82818337600083830152505050565b60006120ae6120a98461205b565b612040565b9050828152602081018484840111156120ca576120c9611fca565b5b6120d584828561208c565b509392505050565b600082601f8301126120f2576120f1611fc5565b5b813561210284826020860161209b565b91505092915050565b6000806040838503121561212257612121611f5d565b5b600061213085828601611fb0565b925050602083013567ffffffffffffffff81111561215157612150611f62565b5b61215d858286016120dd565b9150509250929050565b60008115159050919050565b61217c81612167565b82525050565b60006020820190506121976000830184612173565b92915050565b6000819050919050565b6121b08161219d565b81146121bb57600080fd5b50565b6000813590506121cd816121a7565b92915050565b600381106121e057600080fd5b50565b6000813590506121f2816121d3565b92915050565b6000806000806080858703121561221257612211611f5d565b5b600061222087828801611fb0565b9450506020612231878288016121be565b9350506040612242878288016121e3565b9250506060612253878288016121be565b91505092959194509250565b6000806040838503121561227657612275611f5d565b5b600061228485828601611fb0565b9250506020612295858286016121be565b9150509250929050565b7f4e487b7100000000000000000000000000000000000000000000000000000000600052602160045260246000fd5b600381106122df576122de61229f565b5b50565b60008190506122f0826122ce565b919050565b6000612300826122e2565b9050919050565b612310816122f5565b82525050565b61231f8161219d565b82525050565b600060408201905061233a6000830185612307565b6123476020830184612316565b9392505050565b60006020828403121561236457612363611f5d565b5b6000612372848285016121be565b91505092915050565b600081519050919050565b60005b838110156123a4578082015181840152602081019050612389565b60008484015250505050565b60006123bb8261237b565b6123c58185611eb0565b93506123d5818560208601612386565b6123de81611fcf565b840191505092915050565b6000606082019050818103600083015261240381866123b0565b90506124126020830185612316565b61241f6040830184612316565b949350505050565b600060208201905061243c6000830184612316565b92915050565b6000604082019050818103600083015261245c81856123b0565b9050818103602083015261247081846123b0565b90509392505050565b6000602082019050818103600083015261249381846123b0565b905092915050565b6000602082840312156124b1576124b0611f5d565b5b60006124bf84828501611fb0565b91505092915050565b600080604083850312156124df576124de611f5d565b5b600083013567ffffffffffffffff8111156124fd576124fc611f62565b5b612509858286016120dd565b925050602083013567ffffffffffffffff81111561252a57612529611f62565b5b612536858286016120dd565b9150509250929050565b61254981611f87565b82525050565b60006020820190506125646000830184612540565b92915050565b60008060006060848603121561258357612582611f5d565b5b600084013567ffffffffffffffff8111156125a1576125a0611f62565b5b6125ad868287016120dd565b93505060206125be868287016121be565b92505060406125cf868287016121be565b9150509250925092565b7f536f6c6f207065726d697469646f20616c206f776e6572000000000000000000600082015250565b600061260f601783611eb0565b915061261a826125d9565b602082019050919050565b6000602082019050818103600083015261263e81612602565b9050919050565b7f536f6c6f207065726d697469646f207369206c6120617369676e61747572612060008201527f6e6f206573746120636572726164610000000000000000000000000000000000602082015250565b60006126a1602f83611eb0565b91506126ac82612645565b604082019050919050565b600060208201905081810360008301526126d081612694565b9050919050565b7f4e487b7100000000000000000000000000000000000000000000000000000000600052602260045260246000fd5b6000600282049050600182168061271e57607f821691505b602082108103612731576127306126d7565b5b50919050565b7f4573652070726f6665736f72207961206861207369646f206164646564000000600082015250565b600061276d601d83611eb0565b915061277882612737565b602082019050919050565b6000602082019050818103600083015261279c81612760565b9050919050565b7f456c206e6f6d6272652064656c2070726f6665736f72206e6f2070756564652060008201527f657374617220766163696f000000000000000000000000000000000000000000602082015250565b60006127ff602b83611eb0565b915061280a826127a3565b604082019050919050565b6000602082019050818103600083015261282e816127f2565b9050919050565b60008190508160005260206000209050919050565b60006020601f8301049050919050565b600082821b905092915050565b6000600883026128977fffffffffffffffffffffffffffffffffffffffffffffffffffffffffffffffff8261285a565b6128a1868361285a565b95508019841693508086168417925050509392505050565b6000819050919050565b60006128de6128d96128d48461219d565b6128b9565b61219d565b9050919050565b6000819050919050565b6128f8836128c3565b61290c612904826128e5565b848454612867565b825550505050565b600090565b612921612914565b61292c8184846128ef565b505050565b5b8181101561295057612945600082612919565b600181019050612932565b5050565b601f8211156129955761296681612835565b61296f8461284a565b8101602085101561297e578190505b61299261298a8561284a565b830182612931565b50505b505050565b600082821c905092915050565b60006129b86000198460080261299a565b1980831691505092915050565b60006129d183836129a7565b9150826002028217905092915050565b6129ea8261237b565b67ffffffffffffffff811115612a0357612a02611fe0565b5b612a0d8254612706565b612a18828285612954565b600060209050601f831160018114612a4b5760008415612a39578287015190505b612a4385826129c5565b865550612aab565b601f198416612a5986612835565b60005b82811015612a8157848901518255600182019150602085019450602081019050612a5c565b86831015612a9e5784890151612a9a601f8916826129a7565b8355505b6001600288020188555050505b505050505050565b7f536f6c6f207065726d697469646f20616c2070726f6665736f72000000000000600082015250565b6000612ae9601a83611eb0565b9150612af482612ab3565b602082019050919050565b60006020820190508181036000830152612b1881612adc565b9050919050565b7f536f6c6f2073652070756564656e2063616c696669636172206120756e20616c60008201527f756d6e6f206d6174726963756c61646f2e000000000000000000000000000000602082015250565b6000612b7b603183611eb0565b9150612b8682612b1f565b604082019050919050565b60006020820190508181036000830152612baa81612b6e565b9050919050565b7f4e6f2073652070756564652063616c69666963617220756e61206576616c756160008201527f63696f6e20717565206e6f206578697374652e00000000000000000000000000602082015250565b6000612c0d603383611eb0565b9150612c1882612bb1565b604082019050919050565b60006020820190508181036000830152612c3c81612c00565b9050919050565b7f4e6f2073652070756564652063616c69666963617220636f6e20756e61206e6f60008201527f7461207375706572696f722061206c61206d6178696d61207065726d6974696460208201527f612e000000000000000000000000000000000000000000000000000000000000604082015250565b6000612cc5604283611eb0565b9150612cd082612c43565b606082019050919050565b60006020820190508181036000830152612cf481612cb8565b9050919050565b7f536f6c6f207065726d697469646f206120616c756d6e6f73206d61747269637560008201527f6c61646f73000000000000000000000000000000000000000000000000000000602082015250565b6000612d57602583611eb0565b9150612d6282612cfb565b604082019050919050565b60006020820190508181036000830152612d8681612d4a565b9050919050565b7f536f6c6f207065726d697469646f20616c20636f6f7264696e61646f72000000600082015250565b6000612dc3601d83611eb0565b9150612dce82612d8d565b602082019050919050565b60006020820190508181036000830152612df281612db6565b9050919050565b7f536f6c6f207065726d697469646f206120616c756d6e6f73206e6f206d61747260008201527f6963756c61646f73000000000000000000000000000000000000000000000000602082015250565b6000612e55602883611eb0565b9150612e6082612df9565b604082019050919050565b60006020820190508181036000830152612e8481612e48565b9050919050565b7f456c206e6f6d627265206e6f2070756564652073657220766163696f00000000600082015250565b6000612ec1601c83611eb0565b9150612ecc82612e8b565b602082019050919050565b60006020820190508181036000830152612ef081612eb4565b9050919050565b7f456c206e6f6d627265206465206c61206576616c756163696f6e206e6f20707560008201527f6564652073657220766163696f00000000000000000000000000000000000000602082015250565b6000612f53602d83611eb0565b9150612f5e82612ef7565b604082019050919050565b60006020820190508181036000830152612f8281612f46565b9050919050565b7f4e487b7100000000000000000000000000000000000000000000000000000000600052601160045260246000fd5b6000612fc38261219d565b9150612fce8361219d565b9250828203905081811115612fe657612fe5612f89565b5b92915050565b7f456c20696e64696365206465206c61206576616c756163696f6e206e6f20657860008201527f697374652e000000000000000000000000000000000000000000000000000000602082015250565b6000613048602583611eb0565b915061305382612fec565b604082019050919050565b600060208201905081810360008301526130778161303b565b9050919050565b60006130898261219d565b91507fffffffffffffffffffffffffffffffffffffffffffffffffffffffffffffffff82036130bb576130ba612f89565b5b600182019050919050565b7f4e487b7100000000000000000000000000000000000000000000000000000000600052603260045260246000fd5b60006131008261219d565b915061310b8361219d565b92508282026131198161219d565b915082820484148315176131305761312f612f89565b5b5092915050565b7f4e487b7100000000000000000000000000000000000000000000000000000000600052601260045260246000fd5b60006131718261219d565b915061317c8361219d565b92508261318c5761318b613137565b5b828204905092915050565b60006131a28261219d565b91506131ad8361219d565b92508282019050808211156131c5576131c4612f89565b5b9291505056fea2646970667358221220ee76864ae22ffac9190b5713f9bbb1bb90d8db3328f2d9fb62c045ed8efdce3064736f6c63430008110033",
  "immutableReferences": {},
  "source": "// SPDX-License-Identifier: UNLICENSED\npragma solidity ^0.8.16;\n\n/**\n * El contrato Asignatura que representa una asignatura de la carrera.\n *\n * Version Lite\n */\ncontract Asignatura {\n    /// Version 2022 Lite - Teoria\n    string public version = \"2022 Lite\";\n    /**\n     * address del profesor que ha desplegado el contrato.\n     * El contrato lo despliega el profesor.\n     */\n    address public profesor;\n\n    // Array con las direcciones de los profesores aadidos\n    address[] public profesores;\n\n    // Acceder al nombre de un profesor dada su direccin\n    mapping(address => string) public datosProfesor;\n\n    // Direccin del owner\n    address public owner;\n\n    /// Nombre de la asignatura\n    string public nombre;\n\n    /// Curso academico\n    string public curso;\n\n    // Coordinador de la asignatura\n    address public coordinador;\n\n    // Coordinador de la asignatura\n    bool public cerrada;\n\n    /// Datos de un alumno.\n    struct DatosAlumno {\n        string nombre;\n        string email;\n    }\n\n    /// Acceder a los datos de un alumno dada su direccion.\n    mapping(address => DatosAlumno) public datosAlumno;\n\n    // Array con las direcciones de los alumnos matriculados.\n    address[] public matriculas;\n\n    /**\n     * Datos de una evaluacion.\n     */\n    struct Evaluacion {\n        string nombre;\n        uint256 fecha;\n        uint256 porcentaje;\n    }\n\n    /// Evaluaciones de la asignatura.\n    Evaluacion[] public evaluaciones;\n\n    /// Tipos de notas: sin usar, no presentado, y nota normal entre 0 y 1000.\n    enum TipoNota {\n        Empty,\n        NP,\n        Normal\n    }\n\n    /**\n     * Datos de una nota.\n     * La calificacion esta multiplicada por 100 porque no hay decimales.\n     */\n    struct Nota {\n        TipoNota tipo;\n        uint256 calificacion;\n    }\n\n    // Dada la direccion de un alumno, y el indice de la evaluacion, devuelve\n    // la nota del alumno.\n    mapping(address => mapping(uint256 => Nota)) public calificaciones;\n\n    /**\n     * Constructor.\n     *\n     * @param _nombre Nombre de la asignatura.\n     * @param _curso Curso academico.\n     */\n    constructor(string memory _nombre, string memory _curso) {\n        require(\n            bytes(_nombre).length != 0,\n            \"El nombre de la asignatura no puede ser vacio\"\n        );\n        require(\n            bytes(_curso).length != 0,\n            \"El curso academico de la asignatura no puede ser vacio\"\n        );\n\n        owner = msg.sender;\n        nombre = _nombre;\n        curso = _curso;\n    }\n\n    // Asignar la adireccin del usuario coordinador\n    function setCoordinador(address addr) public soloOwner soloAbierta {\n        coordinador = addr;\n    }\n\n    // Cerrar la asignatura\n    function cerrar() public soloCoordinador {\n        cerrada = true;\n    }\n\n    // Aadir un profesor nuevo. Impedir que se pueda meter un nombre vaco\n    function addProfesor(address _addr, string memory _nombre)\n        public\n        soloOwner\n        soloAbierta\n    {\n        require(\n            bytes(datosProfesor[_addr]).length == 0,\n            \"Ese profesor ya ha sido added\"\n        );\n        require(\n            bytes(_nombre).length != 0,\n            \"El nombre del profesor no puede estar vacio\"\n        );\n\n        datosProfesor[_addr] = _nombre;\n        profesores.push(_addr);\n    }\n\n    // Devolver nmero de profesores aadidos\n    function profesoresLength() public view returns (uint256) {\n        return profesores.length;\n    }\n\n    /**\n     * Los alumnos pueden automatricularse con el metodo automatricula.\n     *\n     * Impedir que se pueda meter un nombre vacio.\n     *\n     * @param _nombre El nombre del alumno.\n     * @param _email El email del alumno.\n     */\n    function automatricula(string memory _nombre, string memory _email)\n        public\n        soloNoMatriculados\n    {\n        require(bytes(_nombre).length != 0, \"El nombre no puede ser vacio\");\n        DatosAlumno memory datos = DatosAlumno(_nombre, _email);\n        datosAlumno[msg.sender] = datos;\n        matriculas.push(msg.sender);\n    }\n\n    /**\n     * El numero de alumnos matriculados.\n     *\n     * @return El numero de alumnos matriculados.\n     */\n    function matriculasLength() public view returns (uint256) {\n        return matriculas.length;\n    }\n\n    /**\n     * Permite a un alumno obtener sus propios datos.\n     *\n     * @return _nombre El nombre del alumno que invoca el metodo.\n     * @return _email El email del alumno que invoca el metodo.\n     */\n    function quienSoy()\n        public\n        view\n        soloMatriculados\n        returns (string memory _nombre, string memory _email)\n    {\n        DatosAlumno memory datos = datosAlumno[msg.sender];\n        _nombre = datos.nombre;\n        _email = datos.email;\n    }\n\n    /**\n * Crear una prueba de evaluacion de la asignatura. Por ejemplo, el primer parcial, o la practica 3.\n *\n * Las evaluaciones se meteran en el array evaluaciones, y nos referiremos a ellas por su posicion en el\narray.\n *\n * @param _nombre El nombre de la evaluacion.\n * @param _fecha La fecha de evaluacion (segundos desde el 1/1/1970).\n * @param _porcentaje El porcentaje de puntos que proporciona a la nota final.\n *\n * @return La posicion en el array evaluaciones,\n */\n    function creaEvaluacion(\n        string memory _nombre,\n        uint256 _fecha,\n        uint256 _porcentaje\n    ) public soloProfesor soloAbierta returns (uint256) {\n        require(\n            bytes(_nombre).length != 0,\n            \"El nombre de la evaluacion no puede ser vacio\"\n        );\n\n        evaluaciones.push(Evaluacion(_nombre, _fecha, _porcentaje));\n        return evaluaciones.length - 1;\n    }\n\n    /**\n     * El numero de evaluaciones creadas.\n     *\n     * @return El numero de evaluaciones creadas.\n     */\n    function evaluacionesLength() public view returns (uint256) {\n        return evaluaciones.length;\n    }\n\n    /**\n     * Poner la nota de un alumno en una evaluacion.\n     *\n     * @param alumno La direccion del alumno.\n     * @param evaluacion El indice de una evaluacion en el array evaluaciones.\n     * @param tipo Tipo de nota.\n     * @param calificacion La calificacion, multipilicada por 100 porque no hay decimales.\n     */\n    function califica(\n        address alumno,\n        uint256 evaluacion,\n        TipoNota tipo,\n        uint256 calificacion\n    ) public soloProfesor soloAbierta {\n        require(\n            estaMatriculado(alumno),\n            \"Solo se pueden calificar a un alumno matriculado.\"\n        );\n        require(\n            evaluacion < evaluaciones.length,\n            \"No se puede calificar una evaluacion que no existe.\"\n        );\n        require(\n            calificacion <= 1000,\n            \"No se puede calificar con una nota superior a la maxima permitida.\"\n        );\n        Nota memory nota = Nota(tipo, calificacion);\n\n        calificaciones[alumno][evaluacion] = nota;\n    }\n\n    /**\n * Devuelve el tipo de nota y la calificacion que ha sacado el alumno que invoca el metodo en la evaluacion\npasada como parametro.\n *\n * @param evaluacion Indice de una evaluacion en el array de evaluaciones.\n *\n * @return tipo El tipo de nota que ha sacado el alumno.\n * @return calificacion La calificacion que ha sacado el alumno.\n */\n    function miNota(uint256 evaluacion)\n        public\n        view\n        soloMatriculados\n        returns (TipoNota tipo, uint256 calificacion)\n    {\n        require(\n            evaluacion < evaluaciones.length,\n            \"El indice de la evaluacion no existe.\"\n        );\n\n        Nota memory nota = calificaciones[msg.sender][evaluacion];\n\n        tipo = nota.tipo;\n        calificacion = nota.calificacion;\n    }\n\n    // Devuelve la nota final del alumno que llama al mtodo\n    // Si el tipo de nota de alguna de las evaluaciones es \"Empty\" no se le ha asignado la calificacin y el mtodo devuelve (Empty, 0)\n    // Si todas las calificaciones son NP, devuelve (NP, 0)\n    // Si la nota final es superior a 400 y hay alguna evaluacin NP, entonces devuelve como mximo 499\n    function miNotaFinal()\n        public\n        view\n        soloMatriculados\n        returns (TipoNota tipo, uint256 calificacion)\n    {\n        return _notaFinal(msg.sender);\n    }\n\n    //Devuelve la nota final del alumno indicado\n    function notaFinal(address _addr)\n        public\n        view\n        soloCoordinador\n        returns (TipoNota tipo, uint256 calificacion)\n    {\n        return _notaFinal(_addr);\n    }\n\n    function _notaFinal(address _addr)\n        private\n        view\n        returns (TipoNota tipo, uint256 calificacion)\n    {\n        tipo = TipoNota.NP;\n\n        for (uint256 i = 0; i < evaluaciones.length; i++) {\n            if (calificaciones[_addr][i].tipo == TipoNota.Empty) {\n                return (TipoNota.Empty, 0);\n            }\n            if (calificaciones[_addr][i].tipo == TipoNota.Normal) {\n                tipo = TipoNota.Normal;\n                continue;\n            }\n        }\n        if (tipo == TipoNota.NP) {\n            return (tipo, 0);\n        }\n\n        bool suspenso = false;\n        uint256 nota = 0;\n\n        for (uint256 i = 0; i < evaluaciones.length; i++) {\n            // if (\n            //     calificaciones[_addr][i].calificacion < evaluaciones[i].minimo\n            // ) {\n            //     suspenso = true;\n            // }\n            nota +=\n                (calificaciones[_addr][i].calificacion *\n                    evaluaciones[i].porcentaje) /\n                100;\n        }\n        if (suspenso && nota > 499) {\n            nota = 499;\n        }\n        tipo = TipoNota.Normal;\n        calificacion = nota;\n    }\n\n    /**\n     * Consulta si una direccion pertenece a un alumno matriculado.\n     *\n     * @param alumno La direccion de un alumno.\n     *\n     * @return true si es una alumno matriculado.\n     */\n    function estaMatriculado(address alumno) private view returns (bool) {\n        string memory _nombre = datosAlumno[alumno].nombre;\n\n        return bytes(_nombre).length != 0;\n    }\n\n    // Modificador para que una funcin solo la pueda ejecutar el owner\n    modifier soloOwner(){\n        require(msg.sender == owner,\"Solo permitido al owner\");\n        _;\n    }\n\n    // Modificador para que una funcin solo la pueda ejecutar el coordinador\n    modifier soloCoordinador(){\n        require(msg.sender == coordinador,\"Solo permitido al coordinador\");\n        _;\n    }\n\n    // Modificador para que una funcin solo la pueda ejecutar el profesor\n    modifier soloProfesor(){\n        string memory _nombre = datosProfesor[msg.sender];\n        require(bytes(_nombre).length != 0,\"Solo permitido al profesor\");\n        _;\n    }\n\n    /**\n     * Modificador para que una funcion solo la pueda ejecutar un alumno matriculado.\n     */\n    modifier soloMatriculados() {\n        require(\n            estaMatriculado(msg.sender),\n            \"Solo permitido a alumnos matriculados\"\n        );\n        _;\n    }\n\n    /**\n     * Modificador para que una funcion solo la pueda ejecutar un alumno no matriculado aun.\n     */\n    modifier soloNoMatriculados() {\n        require(\n            !estaMatriculado(msg.sender),\n            \"Solo permitido a alumnos no matriculados\"\n        );\n        _;\n    }\n\n    // Modificador para que una funcin solo la pueda ejecutar si la asignatura no est cerrada\n    modifier soloAbierta(){\n        require(!cerrada,\"Solo permitido si la asignatura no esta cerrada\");\n        _;\n    }\n\n    /**\n     * No se permite la recepcion de dinero.\n     */\n    receive() external payable {\n        revert(\"No se permite la recepcion de dinero.\");\n    }\n}\n",
  "sourcePath": "/home/kali/Desktop/BCDA /Asignatura/Asignatura/truffle/contracts/Asignatura.sol",
  "compiler": {
    "name": "solc",
    "version": "0.8.17+commit.8df45f5f.Emscripten.clang"
  },
  "schemaVersion": "3.4.11",
  "updatedAt": "2023-01-02T09:53:33.773Z",
  "networkType": "ethereum",
  "devdoc": {
    "kind": "dev",
    "methods": {
      "automatricula(string,string)": {
        "params": {
          "_email": "El email del alumno.",
          "_nombre": "El nombre del alumno."
        }
      },
      "califica(address,uint256,uint8,uint256)": {
        "params": {
          "alumno": "La direccion del alumno.",
          "calificacion": "La calificacion, multipilicada por 100 porque no hay decimales.",
          "evaluacion": "El indice de una evaluacion en el array evaluaciones.",
          "tipo": "Tipo de nota."
        }
      },
      "constructor": {
        "params": {
          "_curso": "Curso academico.",
          "_nombre": "Nombre de la asignatura."
        }
      },
      "creaEvaluacion(string,uint256,uint256)": {
        "params": {
          "_fecha": "La fecha de evaluacion (segundos desde el 1/1/1970).",
          "_nombre": "El nombre de la evaluacion.",
          "_porcentaje": "El porcentaje de puntos que proporciona a la nota final."
        },
        "returns": {
          "_0": "La posicion en el array evaluaciones,"
        }
      },
      "evaluacionesLength()": {
        "returns": {
          "_0": "El numero de evaluaciones creadas."
        }
      },
      "matriculasLength()": {
        "returns": {
          "_0": "El numero de alumnos matriculados."
        }
      },
      "miNota(uint256)": {
        "params": {
          "evaluacion": "Indice de una evaluacion en el array de evaluaciones."
        },
        "returns": {
          "calificacion": "La calificacion que ha sacado el alumno.",
          "tipo": "El tipo de nota que ha sacado el alumno."
        }
      },
      "quienSoy()": {
        "returns": {
          "_email": "El email del alumno que invoca el metodo.",
          "_nombre": "El nombre del alumno que invoca el metodo."
        }
      }
    },
    "version": 1
  },
  "userdoc": {
    "kind": "user",
    "methods": {
      "automatricula(string,string)": {
        "notice": "Los alumnos pueden automatricularse con el metodo automatricula. Impedir que se pueda meter un nombre vacio."
      },
      "califica(address,uint256,uint8,uint256)": {
        "notice": "Poner la nota de un alumno en una evaluacion."
      },
      "constructor": {
        "notice": "Constructor."
      },
      "creaEvaluacion(string,uint256,uint256)": {
        "notice": "Crear una prueba de evaluacion de la asignatura. Por ejemplo, el primer parcial, o la practica 3. Las evaluaciones se meteran en el array evaluaciones, y nos referiremos a ellas por su posicion en el array."
      },
      "curso()": {
        "notice": "Curso academico"
      },
      "datosAlumno(address)": {
        "notice": "Acceder a los datos de un alumno dada su direccion."
      },
      "evaluaciones(uint256)": {
        "notice": "Evaluaciones de la asignatura."
      },
      "evaluacionesLength()": {
        "notice": "El numero de evaluaciones creadas."
      },
      "matriculasLength()": {
        "notice": "El numero de alumnos matriculados."
      },
      "miNota(uint256)": {
        "notice": "Devuelve el tipo de nota y la calificacion que ha sacado el alumno que invoca el metodo en la evaluacion pasada como parametro."
      },
      "nombre()": {
        "notice": "Nombre de la asignatura"
      },
      "profesor()": {
        "notice": "address del profesor que ha desplegado el contrato. El contrato lo despliega el profesor."
      },
      "quienSoy()": {
        "notice": "Permite a un alumno obtener sus propios datos."
      },
      "version()": {
        "notice": "Version 2022 Lite - Teoria"
      }
    },
    "notice": "El contrato Asignatura que representa una asignatura de la carrera. Version Lite",
    "version": 1
  }
}