{
  "contractName": "Asignatura",
  "abi": [
    {
      "inputs": [
        {
          "internalType": "string",
          "name": "_nombre",
          "type": "string"
        },
        {
          "internalType": "string",
          "name": "_curso",
          "type": "string"
        }
      ],
      "stateMutability": "nonpayable",
      "type": "constructor"
    },
    {
      "inputs": [
        {
          "internalType": "address",
          "name": "",
          "type": "address"
        },
        {
          "internalType": "uint256",
          "name": "",
          "type": "uint256"
        }
      ],
      "name": "calificaciones",
      "outputs": [
        {
          "internalType": "enum Asignatura.TipoNota",
          "name": "tipo",
          "type": "uint8"
        },
        {
          "internalType": "uint256",
          "name": "calificacion",
          "type": "uint256"
        }
      ],
      "stateMutability": "view",
      "type": "function",
      "constant": true
    },
    {
      "inputs": [],
      "name": "cerrada",
      "outputs": [
        {
          "internalType": "bool",
          "name": "",
          "type": "bool"
        }
      ],
      "stateMutability": "view",
      "type": "function",
      "constant": true
    },
    {
      "inputs": [],
      "name": "coordinador",
      "outputs": [
        {
          "internalType": "address",
          "name": "",
          "type": "address"
        }
      ],
      "stateMutability": "view",
      "type": "function",
      "constant": true
    },
    {
      "inputs": [],
      "name": "curso",
      "outputs": [
        {
          "internalType": "string",
          "name": "",
          "type": "string"
        }
      ],
      "stateMutability": "view",
      "type": "function",
      "constant": true
    },
    {
      "inputs": [
        {
          "internalType": "address",
          "name": "",
          "type": "address"
        }
      ],
      "name": "datosAlumno",
      "outputs": [
        {
          "internalType": "string",
          "name": "nombre",
          "type": "string"
        },
        {
          "internalType": "string",
          "name": "email",
          "type": "string"
        }
      ],
      "stateMutability": "view",
      "type": "function",
      "constant": true
    },
    {
      "inputs": [
        {
          "internalType": "address",
          "name": "",
          "type": "address"
        }
      ],
      "name": "datosProfesor",
      "outputs": [
        {
          "internalType": "string",
          "name": "",
          "type": "string"
        }
      ],
      "stateMutability": "view",
      "type": "function",
      "constant": true
    },
    {
      "inputs": [
        {
          "internalType": "uint256",
          "name": "",
          "type": "uint256"
        }
      ],
      "name": "evaluaciones",
      "outputs": [
        {
          "internalType": "string",
          "name": "nombre",
          "type": "string"
        },
        {
          "internalType": "uint256",
          "name": "fecha",
          "type": "uint256"
        },
        {
          "internalType": "uint256",
          "name": "porcentaje",
          "type": "uint256"
        }
      ],
      "stateMutability": "view",
      "type": "function",
      "constant": true
    },
    {
      "inputs": [
        {
          "internalType": "uint256",
          "name": "",
          "type": "uint256"
        }
      ],
      "name": "matriculas",
      "outputs": [
        {
          "internalType": "address",
          "name": "",
          "type": "address"
        }
      ],
      "stateMutability": "view",
      "type": "function",
      "constant": true
    },
    {
      "inputs": [],
      "name": "nombre",
      "outputs": [
        {
          "internalType": "string",
          "name": "",
          "type": "string"
        }
      ],
      "stateMutability": "view",
      "type": "function",
      "constant": true
    },
    {
      "inputs": [],
      "name": "owner",
      "outputs": [
        {
          "internalType": "address",
          "name": "",
          "type": "address"
        }
      ],
      "stateMutability": "view",
      "type": "function",
      "constant": true
    },
    {
      "inputs": [],
      "name": "profesor",
      "outputs": [
        {
          "internalType": "address",
          "name": "",
          "type": "address"
        }
      ],
      "stateMutability": "view",
      "type": "function",
      "constant": true
    },
    {
      "inputs": [
        {
          "internalType": "uint256",
          "name": "",
          "type": "uint256"
        }
      ],
      "name": "profesores",
      "outputs": [
        {
          "internalType": "address",
          "name": "",
          "type": "address"
        }
      ],
      "stateMutability": "view",
      "type": "function",
      "constant": true
    },
    {
      "inputs": [],
      "name": "version",
      "outputs": [
        {
          "internalType": "string",
          "name": "",
          "type": "string"
        }
      ],
      "stateMutability": "view",
      "type": "function",
      "constant": true
    },
    {
      "stateMutability": "payable",
      "type": "receive",
      "payable": true
    },
    {
      "inputs": [
        {
          "internalType": "address",
          "name": "addr",
          "type": "address"
        }
      ],
      "name": "setCoordinador",
      "outputs": [],
      "stateMutability": "nonpayable",
      "type": "function"
    },
    {
      "inputs": [],
      "name": "cerrar",
      "outputs": [],
      "stateMutability": "nonpayable",
      "type": "function"
    },
    {
      "inputs": [
        {
          "internalType": "address",
          "name": "_addr",
          "type": "address"
        },
        {
          "internalType": "string",
          "name": "_nombre",
          "type": "string"
        }
      ],
      "name": "addProfesor",
      "outputs": [],
      "stateMutability": "nonpayable",
      "type": "function"
    },
    {
      "inputs": [],
      "name": "profesoresLength",
      "outputs": [
        {
          "internalType": "uint256",
          "name": "",
          "type": "uint256"
        }
      ],
      "stateMutability": "view",
      "type": "function",
      "constant": true
    },
    {
      "inputs": [
        {
          "internalType": "string",
          "name": "_nombre",
          "type": "string"
        },
        {
          "internalType": "string",
          "name": "_email",
          "type": "string"
        }
      ],
      "name": "automatricula",
      "outputs": [],
      "stateMutability": "nonpayable",
      "type": "function"
    },
    {
      "inputs": [
        {
          "internalType": "string",
          "name": "_nombre",
          "type": "string"
        },
        {
          "internalType": "string",
          "name": "_email",
          "type": "string"
        },
        {
          "internalType": "address",
          "name": "_addr",
          "type": "address"
        }
      ],
      "name": "matriculaDir",
      "outputs": [],
      "stateMutability": "nonpayable",
      "type": "function"
    },
    {
      "inputs": [],
      "name": "matriculasLength",
      "outputs": [
        {
          "internalType": "uint256",
          "name": "",
          "type": "uint256"
        }
      ],
      "stateMutability": "view",
      "type": "function",
      "constant": true
    },
    {
      "inputs": [],
      "name": "quienSoy",
      "outputs": [
        {
          "internalType": "string",
          "name": "_nombre",
          "type": "string"
        },
        {
          "internalType": "string",
          "name": "_email",
          "type": "string"
        }
      ],
      "stateMutability": "view",
      "type": "function",
      "constant": true
    },
    {
      "inputs": [
        {
          "internalType": "string",
          "name": "_nombre",
          "type": "string"
        },
        {
          "internalType": "uint256",
          "name": "_fecha",
          "type": "uint256"
        },
        {
          "internalType": "uint256",
          "name": "_porcentaje",
          "type": "uint256"
        }
      ],
      "name": "creaEvaluacion",
      "outputs": [
        {
          "internalType": "uint256",
          "name": "",
          "type": "uint256"
        }
      ],
      "stateMutability": "nonpayable",
      "type": "function"
    },
    {
      "inputs": [
        {
          "internalType": "string",
          "name": "_nombre",
          "type": "string"
        },
        {
          "internalType": "uint256",
          "name": "_fecha",
          "type": "uint256"
        },
        {
          "internalType": "uint256",
          "name": "_porcentaje",
          "type": "uint256"
        },
        {
          "internalType": "uint256",
          "name": "_index",
          "type": "uint256"
        }
      ],
      "name": "modificaEvaluacion",
      "outputs": [],
      "stateMutability": "nonpayable",
      "type": "function"
    },
    {
      "inputs": [],
      "name": "evaluacionesLength",
      "outputs": [
        {
          "internalType": "uint256",
          "name": "",
          "type": "uint256"
        }
      ],
      "stateMutability": "view",
      "type": "function",
      "constant": true
    },
    {
      "inputs": [
        {
          "internalType": "address",
          "name": "alumno",
          "type": "address"
        },
        {
          "internalType": "uint256",
          "name": "evaluacion",
          "type": "uint256"
        },
        {
          "internalType": "enum Asignatura.TipoNota",
          "name": "tipo",
          "type": "uint8"
        },
        {
          "internalType": "uint256",
          "name": "calificacion",
          "type": "uint256"
        }
      ],
      "name": "califica",
      "outputs": [],
      "stateMutability": "nonpayable",
      "type": "function"
    },
    {
      "inputs": [
        {
          "internalType": "uint256",
          "name": "evaluacion",
          "type": "uint256"
        }
      ],
      "name": "miNota",
      "outputs": [
        {
          "internalType": "enum Asignatura.TipoNota",
          "name": "tipo",
          "type": "uint8"
        },
        {
          "internalType": "uint256",
          "name": "calificacion",
          "type": "uint256"
        }
      ],
      "stateMutability": "view",
      "type": "function",
      "constant": true
    },
    {
      "inputs": [
        {
          "internalType": "uint256",
          "name": "evaluacion",
          "type": "uint256"
        },
        {
          "internalType": "address",
          "name": "_direccion",
          "type": "address"
        }
      ],
      "name": "miNotaDir",
      "outputs": [
        {
          "internalType": "enum Asignatura.TipoNota",
          "name": "tipo",
          "type": "uint8"
        },
        {
          "internalType": "uint256",
          "name": "calificacion",
          "type": "uint256"
        }
      ],
      "stateMutability": "view",
      "type": "function",
      "constant": true
    },
    {
      "inputs": [],
      "name": "miNotaFinal",
      "outputs": [
        {
          "internalType": "enum Asignatura.TipoNota",
          "name": "tipo",
          "type": "uint8"
        },
        {
          "internalType": "uint256",
          "name": "calificacion",
          "type": "uint256"
        }
      ],
      "stateMutability": "view",
      "type": "function",
      "constant": true
    },
    {
      "inputs": [
        {
          "internalType": "address",
          "name": "_addr",
          "type": "address"
        }
      ],
      "name": "notaFinal",
      "outputs": [
        {
          "internalType": "enum Asignatura.TipoNota",
          "name": "tipo",
          "type": "uint8"
        },
        {
          "internalType": "uint256",
          "name": "calificacion",
          "type": "uint256"
        }
      ],
      "stateMutability": "view",
      "type": "function",
      "constant": true
    }
  ],
  "bytecode": "0x60806040526040518060400160405280600981526020017f32303232204c6974650000000000000000000000000000000000000000000000815250600090816200004a9190620003f3565b503480156200005857600080fd5b50604051620041bd380380620041bd83398181016040528101906200007e91906200063e565b6000825103620000c5576040517f08c379a0000000000000000000000000000000000000000000000000000000008152600401620000bc906200074a565b60405180910390fd5b60008151036200010c576040517f08c379a00000000000000000000000000000000000000000000000000000000081526004016200010390620007e2565b60405180910390fd5b33600460006101000a81548173ffffffffffffffffffffffffffffffffffffffff021916908373ffffffffffffffffffffffffffffffffffffffff16021790555081600590816200015e9190620003f3565b508060069081620001709190620003f3565b50505062000804565b600081519050919050565b7f4e487b7100000000000000000000000000000000000000000000000000000000600052604160045260246000fd5b7f4e487b7100000000000000000000000000000000000000000000000000000000600052602260045260246000fd5b60006002820490506001821680620001fb57607f821691505b602082108103620002115762000210620001b3565b5b50919050565b60008190508160005260206000209050919050565b60006020601f8301049050919050565b600082821b905092915050565b6000600883026200027b7fffffffffffffffffffffffffffffffffffffffffffffffffffffffffffffffff826200023c565b6200028786836200023c565b95508019841693508086168417925050509392505050565b6000819050919050565b6000819050919050565b6000620002d4620002ce620002c8846200029f565b620002a9565b6200029f565b9050919050565b6000819050919050565b620002f083620002b3565b62000308620002ff82620002db565b84845462000249565b825550505050565b600090565b6200031f62000310565b6200032c818484620002e5565b505050565b5b8181101562000354576200034860008262000315565b60018101905062000332565b5050565b601f821115620003a3576200036d8162000217565b62000378846200022c565b8101602085101562000388578190505b620003a062000397856200022c565b83018262000331565b50505b505050565b600082821c905092915050565b6000620003c860001984600802620003a8565b1980831691505092915050565b6000620003e38383620003b5565b9150826002028217905092915050565b620003fe8262000179565b67ffffffffffffffff8111156200041a576200041962000184565b5b620004268254620001e2565b6200043382828562000358565b600060209050601f8311600181146200046b576000841562000456578287015190505b620004628582620003d5565b865550620004d2565b601f1984166200047b8662000217565b60005b82811015620004a5578489015182556001820191506020850194506020810190506200047e565b86831015620004c55784890151620004c1601f891682620003b5565b8355505b6001600288020188555050505b505050505050565b6000604051905090565b600080fd5b600080fd5b600080fd5b600080fd5b6000601f19601f8301169050919050565b6200051482620004f8565b810181811067ffffffffffffffff8211171562000536576200053562000184565b5b80604052505050565b60006200054b620004da565b905062000559828262000509565b919050565b600067ffffffffffffffff8211156200057c576200057b62000184565b5b6200058782620004f8565b9050602081019050919050565b60005b83811015620005b457808201518184015260208101905062000597565b60008484015250505050565b6000620005d7620005d1846200055e565b6200053f565b905082815260208101848484011115620005f657620005f5620004f3565b5b6200060384828562000594565b509392505050565b600082601f830112620006235762000622620004ee565b5b815162000635848260208601620005c0565b91505092915050565b60008060408385031215620006585762000657620004e4565b5b600083015167ffffffffffffffff811115620006795762000678620004e9565b5b62000687858286016200060b565b925050602083015167ffffffffffffffff811115620006ab57620006aa620004e9565b5b620006b9858286016200060b565b9150509250929050565b600082825260208201905092915050565b7f456c206e6f6d627265206465206c6120617369676e6174757261206e6f20707560008201527f6564652073657220766163696f00000000000000000000000000000000000000602082015250565b600062000732602d83620006c3565b91506200073f82620006d4565b604082019050919050565b60006020820190508181036000830152620007658162000723565b9050919050565b7f456c20637572736f2061636164656d69636f206465206c6120617369676e617460008201527f757261206e6f2070756564652073657220766163696f00000000000000000000602082015250565b6000620007ca603683620006c3565b9150620007d7826200076c565b604082019050919050565b60006020820190508181036000830152620007fd81620007bb565b9050919050565b6139a980620008146000396000f3fe6080604052600436106101c65760003560e01c80636bf8aad6116100f7578063d00de47a11610095578063dab6ff2811610064578063dab6ff28146106ef578063deafcc4114610706578063df09657614610731578063f967f9861461075c57610206565b8063d00de47a1461061f578063d017da1f1461064b578063d27c3f3c14610688578063d51b4584146106c657610206565b80639e1d8f4b116100d15780639e1d8f4b1461054f578063bc7b35b21461057a578063c7918139146105a5578063c8373750146105e257610206565b80636bf8aad6146104bb5780637810ff1e146104f95780638da5cb5b1461052457610206565b806344f7a8cc1161016457806354fd4d501161013e57806354fd4d50146103ec5780635aa4ffe61461041757806361d4c6ad14610455578063641945bf1461047e57610206565b806344f7a8cc14610356578063488cf4f51461039557806353766883146103c057610206565b806322c4e394116101a057806322c4e3941461028657806330322c9b146102b15780633b694af8146102da57806342a6dde21461031857610206565b8063066408911461020b57806307beee5e146102345780631d2e4d2b1461025d57610206565b36610206576040517f08c379a00000000000000000000000000000000000000000000000000000000081526004016101fd90612567565b60405180910390fd5b600080fd5b34801561021757600080fd5b50610232600480360381019061022d9190612717565b610787565b005b34801561024057600080fd5b5061025b600480360381019061025691906127f8565b6108dd565b005b34801561026957600080fd5b50610284600480360381019061027f9190612883565b610aeb565b005b34801561029257600080fd5b5061029b610d51565b6040516102a891906128fa565b60405180910390f35b3480156102bd57600080fd5b506102d860048036038101906102d3919061293a565b610d64565b005b3480156102e657600080fd5b5061030160048036038101906102fc91906129a1565b6110b2565b60405161030f929190612a67565b60405180910390f35b34801561032457600080fd5b5061033f600480360381019061033a9190612a90565b6111fe565b60405161034d929190612a67565b60405180910390f35b34801561036257600080fd5b5061037d60048036038101906103789190612ad0565b61123c565b60405161038c93929190612b6b565b60405180910390f35b3480156103a157600080fd5b506103aa6112fe565b6040516103b79190612ba9565b60405180910390f35b3480156103cc57600080fd5b506103d561130b565b6040516103e3929190612bc4565b60405180910390f35b3480156103f857600080fd5b506104016114db565b60405161040e9190612bfb565b60405180910390f35b34801561042357600080fd5b5061043e60048036038101906104399190612c1d565b611569565b60405161044c929190612a67565b60405180910390f35b34801561046157600080fd5b5061047c60048036038101906104779190612c4a565b6116e8565b005b34801561048a57600080fd5b506104a560048036038101906104a09190612c1d565b611865565b6040516104b29190612bfb565b60405180910390f35b3480156104c757600080fd5b506104e260048036038101906104dd9190612c1d565b611905565b6040516104f0929190612bc4565b60405180910390f35b34801561050557600080fd5b5061050e611a39565b60405161051b9190612cd1565b60405180910390f35b34801561053057600080fd5b50610539611a5f565b6040516105469190612cd1565b60405180910390f35b34801561055b57600080fd5b50610564611a85565b6040516105719190612ba9565b60405180910390f35b34801561058657600080fd5b5061058f611a92565b60405161059c9190612bfb565b60405180910390f35b3480156105b157600080fd5b506105cc60048036038101906105c79190612ad0565b611b20565b6040516105d99190612cd1565b60405180910390f35b3480156105ee57600080fd5b5061060960048036038101906106049190612ad0565b611b5f565b6040516106169190612cd1565b60405180910390f35b34801561062b57600080fd5b50610634611b9e565b604051610642929190612a67565b60405180910390f35b34801561065757600080fd5b50610672600480360381019061066d9190612cec565b611bfa565b60405161067f9190612ba9565b60405180910390f35b34801561069457600080fd5b506106af60048036038101906106aa9190612ad0565b611dad565b6040516106bd929190612a67565b60405180910390f35b3480156106d257600080fd5b506106ed60048036038101906106e89190612c1d565b611ef7565b005b3480156106fb57600080fd5b5061070461201b565b005b34801561071257600080fd5b5061071b6120c8565b6040516107289190612bfb565b60405180910390f35b34801561073d57600080fd5b50610746612156565b6040516107539190612cd1565b60405180910390f35b34801561076857600080fd5b5061077161217c565b60405161077e9190612ba9565b60405180910390f35b600760009054906101000a900473ffffffffffffffffffffffffffffffffffffffff1673ffffffffffffffffffffffffffffffffffffffff163373ffffffffffffffffffffffffffffffffffffffff1614610817576040517f08c379a000000000000000000000000000000000000000000000000000000000815260040161080e90612da7565b60405180910390fd5b600760149054906101000a900460ff1615610867576040517f08c379a000000000000000000000000000000000000000000000000000000000815260040161085e90612e39565b60405180910390fd5b6000604051806060016040528086815260200185815260200184815250905080600a838154811061089b5761089a612e59565b5b906000526020600020906003020160008201518160000190816108be9190613094565b5060208201518160010155604082015181600201559050505050505050565b6108e633612189565b15610926576040517f08c379a000000000000000000000000000000000000000000000000000000000815260040161091d906131d8565b60405180910390fd5b600460009054906101000a900473ffffffffffffffffffffffffffffffffffffffff1673ffffffffffffffffffffffffffffffffffffffff163373ffffffffffffffffffffffffffffffffffffffff16146109b6576040517f08c379a00000000000000000000000000000000000000000000000000000000081526004016109ad90613244565b60405180910390fd5b60008351036109fa576040517f08c379a00000000000000000000000000000000000000000000000000000000081526004016109f1906132b0565b60405180910390fd5b6000604051806040016040528085815260200184815250905080600860008473ffffffffffffffffffffffffffffffffffffffff1673ffffffffffffffffffffffffffffffffffffffff1681526020019081526020016000206000820151816000019081610a689190613094565b506020820151816001019081610a7e9190613094565b509050506009829080600181540180825580915050600190039060005260206000200160009091909190916101000a81548173ffffffffffffffffffffffffffffffffffffffff021916908373ffffffffffffffffffffffffffffffffffffffff16021790555050505050565b600460009054906101000a900473ffffffffffffffffffffffffffffffffffffffff1673ffffffffffffffffffffffffffffffffffffffff163373ffffffffffffffffffffffffffffffffffffffff1614610b7b576040517f08c379a0000000000000000000000000000000000000000000000000000000008152600401610b7290613244565b60405180910390fd5b600760149054906101000a900460ff1615610bcb576040517f08c379a0000000000000000000000000000000000000000000000000000000008152600401610bc290612e39565b60405180910390fd5b6000600360008473ffffffffffffffffffffffffffffffffffffffff1673ffffffffffffffffffffffffffffffffffffffff1681526020019081526020016000208054610c1790612eb7565b905014610c59576040517f08c379a0000000000000000000000000000000000000000000000000000000008152600401610c509061331c565b60405180910390fd5b6000815103610c9d576040517f08c379a0000000000000000000000000000000000000000000000000000000008152600401610c94906133ae565b60405180910390fd5b80600360008473ffffffffffffffffffffffffffffffffffffffff1673ffffffffffffffffffffffffffffffffffffffff1681526020019081526020016000209081610ce99190613094565b506002829080600181540180825580915050600190039060005260206000200160009091909190916101000a81548173ffffffffffffffffffffffffffffffffffffffff021916908373ffffffffffffffffffffffffffffffffffffffff1602179055505050565b600760149054906101000a900460ff1681565b6000600360003373ffffffffffffffffffffffffffffffffffffffff1673ffffffffffffffffffffffffffffffffffffffff1681526020019081526020016000208054610db090612eb7565b80601f0160208091040260200160405190810160405280929190818152602001828054610ddc90612eb7565b8015610e295780601f10610dfe57610100808354040283529160200191610e29565b820191906000526020600020905b815481529060010190602001808311610e0c57829003601f168201915b5050505050905060008151141580610e8e5750600760009054906101000a900473ffffffffffffffffffffffffffffffffffffffff1673ffffffffffffffffffffffffffffffffffffffff163373ffffffffffffffffffffffffffffffffffffffff16145b610ecd576040517f08c379a0000000000000000000000000000000000000000000000000000000008152600401610ec490613440565b60405180910390fd5b600760149054906101000a900460ff1615610f1d576040517f08c379a0000000000000000000000000000000000000000000000000000000008152600401610f1490612e39565b60405180910390fd5b610f2685612189565b610f65576040517f08c379a0000000000000000000000000000000000000000000000000000000008152600401610f5c906134d2565b60405180910390fd5b600a805490508410610fac576040517f08c379a0000000000000000000000000000000000000000000000000000000008152600401610fa390613564565b60405180910390fd5b6103e8821115610ff1576040517f08c379a0000000000000000000000000000000000000000000000000000000008152600401610fe89061361c565b60405180910390fd5b60006040518060400160405280856002811115611011576110106129e1565b5b815260200184815250905080600b60008873ffffffffffffffffffffffffffffffffffffffff1673ffffffffffffffffffffffffffffffffffffffff168152602001908152602001600020600087815260200190815260200160002060008201518160000160006101000a81548160ff02191690836002811115611098576110976129e1565b5b021790555060208201518160010155905050505050505050565b6000806110be33612189565b6110fd576040517f08c379a00000000000000000000000000000000000000000000000000000000081526004016110f4906136ae565b60405180910390fd5b600a805490508410611144576040517f08c379a000000000000000000000000000000000000000000000000000000000815260040161113b90613740565b60405180910390fd5b6000600b60008573ffffffffffffffffffffffffffffffffffffffff1673ffffffffffffffffffffffffffffffffffffffff16815260200190815260200160002060008681526020019081526020016000206040518060400160405290816000820160009054906101000a900460ff1660028111156111c6576111c56129e1565b5b60028111156111d8576111d76129e1565b5b815260200160018201548152505090508060000151925080602001519150509250929050565b600b602052816000526040600020602052806000526040600020600091509150508060000160009054906101000a900460ff16908060010154905082565b600a818154811061124c57600080fd5b906000526020600020906003020160009150905080600001805461126f90612eb7565b80601f016020809104026020016040519081016040528092919081815260200182805461129b90612eb7565b80156112e85780601f106112bd576101008083540402835291602001916112e8565b820191906000526020600020905b8154815290600101906020018083116112cb57829003601f168201915b5050505050908060010154908060020154905083565b6000600a80549050905090565b60608061131733612189565b611356576040517f08c379a000000000000000000000000000000000000000000000000000000000815260040161134d906136ae565b60405180910390fd5b6000600860003373ffffffffffffffffffffffffffffffffffffffff1673ffffffffffffffffffffffffffffffffffffffff1681526020019081526020016000206040518060400160405290816000820180546113b290612eb7565b80601f01602080910402602001604051908101604052809291908181526020018280546113de90612eb7565b801561142b5780601f106114005761010080835404028352916020019161142b565b820191906000526020600020905b81548152906001019060200180831161140e57829003601f168201915b5050505050815260200160018201805461144490612eb7565b80601f016020809104026020016040519081016040528092919081815260200182805461147090612eb7565b80156114bd5780601f10611492576101008083540402835291602001916114bd565b820191906000526020600020905b8154815290600101906020018083116114a057829003601f168201915b50505050508152505090508060000151925080602001519150509091565b600080546114e890612eb7565b80601f016020809104026020016040519081016040528092919081815260200182805461151490612eb7565b80156115615780601f1061153657610100808354040283529160200191611561565b820191906000526020600020905b81548152906001019060200180831161154457829003601f168201915b505050505081565b6000806000600360003373ffffffffffffffffffffffffffffffffffffffff1673ffffffffffffffffffffffffffffffffffffffff16815260200190815260200160002080546115b890612eb7565b80601f01602080910402602001604051908101604052809291908181526020018280546115e490612eb7565b80156116315780601f1061160657610100808354040283529160200191611631565b820191906000526020600020905b81548152906001019060200180831161161457829003601f168201915b50505050509050600081511415806116965750600760009054906101000a900473ffffffffffffffffffffffffffffffffffffffff1673ffffffffffffffffffffffffffffffffffffffff163373ffffffffffffffffffffffffffffffffffffffff16145b6116d5576040517f08c379a00000000000000000000000000000000000000000000000000000000081526004016116cc90613440565b60405180910390fd5b6116de84612267565b9250925050915091565b6116f133612189565b15611731576040517f08c379a0000000000000000000000000000000000000000000000000000000008152600401611728906131d8565b60405180910390fd5b6000825103611775576040517f08c379a000000000000000000000000000000000000000000000000000000000815260040161176c906132b0565b60405180910390fd5b6000604051806040016040528084815260200183815250905080600860003373ffffffffffffffffffffffffffffffffffffffff1673ffffffffffffffffffffffffffffffffffffffff16815260200190815260200160002060008201518160000190816117e39190613094565b5060208201518160010190816117f99190613094565b509050506009339080600181540180825580915050600190039060005260206000200160009091909190916101000a81548173ffffffffffffffffffffffffffffffffffffffff021916908373ffffffffffffffffffffffffffffffffffffffff160217905550505050565b6003602052806000526040600020600091509050805461188490612eb7565b80601f01602080910402602001604051908101604052809291908181526020018280546118b090612eb7565b80156118fd5780601f106118d2576101008083540402835291602001916118fd565b820191906000526020600020905b8154815290600101906020018083116118e057829003601f168201915b505050505081565b600860205280600052604060002060009150905080600001805461192890612eb7565b80601f016020809104026020016040519081016040528092919081815260200182805461195490612eb7565b80156119a15780601f10611976576101008083540402835291602001916119a1565b820191906000526020600020905b81548152906001019060200180831161198457829003601f168201915b5050505050908060010180546119b690612eb7565b80601f01602080910402602001604051908101604052809291908181526020018280546119e290612eb7565b8015611a2f5780601f10611a0457610100808354040283529160200191611a2f565b820191906000526020600020905b815481529060010190602001808311611a1257829003601f168201915b5050505050905082565b600760009054906101000a900473ffffffffffffffffffffffffffffffffffffffff1681565b600460009054906101000a900473ffffffffffffffffffffffffffffffffffffffff1681565b6000600980549050905090565b60058054611a9f90612eb7565b80601f0160208091040260200160405190810160405280929190818152602001828054611acb90612eb7565b8015611b185780601f10611aed57610100808354040283529160200191611b18565b820191906000526020600020905b815481529060010190602001808311611afb57829003601f168201915b505050505081565b60098181548110611b3057600080fd5b906000526020600020016000915054906101000a900473ffffffffffffffffffffffffffffffffffffffff1681565b60028181548110611b6f57600080fd5b906000526020600020016000915054906101000a900473ffffffffffffffffffffffffffffffffffffffff1681565b600080611baa33612189565b611be9576040517f08c379a0000000000000000000000000000000000000000000000000000000008152600401611be0906136ae565b60405180910390fd5b611bf233612267565b915091509091565b6000600760009054906101000a900473ffffffffffffffffffffffffffffffffffffffff1673ffffffffffffffffffffffffffffffffffffffff163373ffffffffffffffffffffffffffffffffffffffff1614611c8c576040517f08c379a0000000000000000000000000000000000000000000000000000000008152600401611c8390612da7565b60405180910390fd5b600760149054906101000a900460ff1615611cdc576040517f08c379a0000000000000000000000000000000000000000000000000000000008152600401611cd390612e39565b60405180910390fd5b6000845103611d20576040517f08c379a0000000000000000000000000000000000000000000000000000000008152600401611d17906137d2565b60405180910390fd5b600a60405180606001604052808681526020018581526020018481525090806001815401808255809150506001900390600052602060002090600302016000909190919091506000820151816000019081611d7b9190613094565b50602082015181600101556040820151816002015550506001600a80549050611da49190613821565b90509392505050565b600080611db933612189565b611df8576040517f08c379a0000000000000000000000000000000000000000000000000000000008152600401611def906136ae565b60405180910390fd5b600a805490508310611e3f576040517f08c379a0000000000000000000000000000000000000000000000000000000008152600401611e3690613740565b60405180910390fd5b6000600b60003373ffffffffffffffffffffffffffffffffffffffff1673ffffffffffffffffffffffffffffffffffffffff16815260200190815260200160002060008581526020019081526020016000206040518060400160405290816000820160009054906101000a900460ff166002811115611ec157611ec06129e1565b5b6002811115611ed357611ed26129e1565b5b81526020016001820154815250509050806000015192508060200151915050915091565b600460009054906101000a900473ffffffffffffffffffffffffffffffffffffffff1673ffffffffffffffffffffffffffffffffffffffff163373ffffffffffffffffffffffffffffffffffffffff1614611f87576040517f08c379a0000000000000000000000000000000000000000000000000000000008152600401611f7e90613244565b60405180910390fd5b600760149054906101000a900460ff1615611fd7576040517f08c379a0000000000000000000000000000000000000000000000000000000008152600401611fce90612e39565b60405180910390fd5b80600760006101000a81548173ffffffffffffffffffffffffffffffffffffffff021916908373ffffffffffffffffffffffffffffffffffffffff16021790555050565b600760009054906101000a900473ffffffffffffffffffffffffffffffffffffffff1673ffffffffffffffffffffffffffffffffffffffff163373ffffffffffffffffffffffffffffffffffffffff16146120ab576040517f08c379a00000000000000000000000000000000000000000000000000000000081526004016120a290612da7565b60405180910390fd5b6001600760146101000a81548160ff021916908315150217905550565b600680546120d590612eb7565b80601f016020809104026020016040519081016040528092919081815260200182805461210190612eb7565b801561214e5780601f106121235761010080835404028352916020019161214e565b820191906000526020600020905b81548152906001019060200180831161213157829003601f168201915b505050505081565b600160009054906101000a900473ffffffffffffffffffffffffffffffffffffffff1681565b6000600280549050905090565b600080600860008473ffffffffffffffffffffffffffffffffffffffff1673ffffffffffffffffffffffffffffffffffffffff16815260200190815260200160002060000180546121d990612eb7565b80601f016020809104026020016040519081016040528092919081815260200182805461220590612eb7565b80156122525780601f1061222757610100808354040283529160200191612252565b820191906000526020600020905b81548152906001019060200180831161223557829003601f168201915b50505050509050600081511415915050919050565b6000806001915060005b600a805490508110156123bf5760006002811115612292576122916129e1565b5b600b60008673ffffffffffffffffffffffffffffffffffffffff1673ffffffffffffffffffffffffffffffffffffffff168152602001908152602001600020600083815260200190815260200160002060000160009054906101000a900460ff166002811115612305576123046129e1565b5b036123175760008092509250506124df565b60028081111561232a576123296129e1565b5b600b60008673ffffffffffffffffffffffffffffffffffffffff1673ffffffffffffffffffffffffffffffffffffffff168152602001908152602001600020600083815260200190815260200160002060000160009054906101000a900460ff16600281111561239d5761239c6129e1565b5b036123ab57600292506123ac565b5b80806123b790613855565b915050612271565b50600160028111156123d4576123d36129e1565b5b8260028111156123e7576123e66129e1565b5b036123f857816000915091506124df565b60008060005b600a805490508110156124bb576064600a828154811061242157612420612e59565b5b906000526020600020906003020160020154600b60008973ffffffffffffffffffffffffffffffffffffffff1673ffffffffffffffffffffffffffffffffffffffff168152602001908152602001600020600084815260200190815260200160002060010154612491919061389d565b61249b919061390e565b826124a6919061393f565b915080806124b390613855565b9150506123fe565b508180156124ca57506101f381115b156124d5576101f390505b6002935080925050505b915091565b600082825260208201905092915050565b7f4e6f207365207065726d697465206c6120726563657063696f6e20646520646960008201527f6e65726f2e000000000000000000000000000000000000000000000000000000602082015250565b60006125516025836124e4565b915061255c826124f5565b604082019050919050565b6000602082019050818103600083015261258081612544565b9050919050565b6000604051905090565b600080fd5b600080fd5b600080fd5b600080fd5b6000601f19601f8301169050919050565b7f4e487b7100000000000000000000000000000000000000000000000000000000600052604160045260246000fd5b6125ee826125a5565b810181811067ffffffffffffffff8211171561260d5761260c6125b6565b5b80604052505050565b6000612620612587565b905061262c82826125e5565b919050565b600067ffffffffffffffff82111561264c5761264b6125b6565b5b612655826125a5565b9050602081019050919050565b82818337600083830152505050565b600061268461267f84612631565b612616565b9050828152602081018484840111156126a05761269f6125a0565b5b6126ab848285612662565b509392505050565b600082601f8301126126c8576126c761259b565b5b81356126d8848260208601612671565b91505092915050565b6000819050919050565b6126f4816126e1565b81146126ff57600080fd5b50565b600081359050612711816126eb565b92915050565b6000806000806080858703121561273157612730612591565b5b600085013567ffffffffffffffff81111561274f5761274e612596565b5b61275b878288016126b3565b945050602061276c87828801612702565b935050604061277d87828801612702565b925050606061278e87828801612702565b91505092959194509250565b600073ffffffffffffffffffffffffffffffffffffffff82169050919050565b60006127c58261279a565b9050919050565b6127d5816127ba565b81146127e057600080fd5b50565b6000813590506127f2816127cc565b92915050565b60008060006060848603121561281157612810612591565b5b600084013567ffffffffffffffff81111561282f5761282e612596565b5b61283b868287016126b3565b935050602084013567ffffffffffffffff81111561285c5761285b612596565b5b612868868287016126b3565b9250506040612879868287016127e3565b9150509250925092565b6000806040838503121561289a57612899612591565b5b60006128a8858286016127e3565b925050602083013567ffffffffffffffff8111156128c9576128c8612596565b5b6128d5858286016126b3565b9150509250929050565b60008115159050919050565b6128f4816128df565b82525050565b600060208201905061290f60008301846128eb565b92915050565b6003811061292257600080fd5b50565b60008135905061293481612915565b92915050565b6000806000806080858703121561295457612953612591565b5b6000612962878288016127e3565b945050602061297387828801612702565b935050604061298487828801612925565b925050606061299587828801612702565b91505092959194509250565b600080604083850312156129b8576129b7612591565b5b60006129c685828601612702565b92505060206129d7858286016127e3565b9150509250929050565b7f4e487b7100000000000000000000000000000000000000000000000000000000600052602160045260246000fd5b60038110612a2157612a206129e1565b5b50565b6000819050612a3282612a10565b919050565b6000612a4282612a24565b9050919050565b612a5281612a37565b82525050565b612a61816126e1565b82525050565b6000604082019050612a7c6000830185612a49565b612a896020830184612a58565b9392505050565b60008060408385031215612aa757612aa6612591565b5b6000612ab5858286016127e3565b9250506020612ac685828601612702565b9150509250929050565b600060208284031215612ae657612ae5612591565b5b6000612af484828501612702565b91505092915050565b600081519050919050565b60005b83811015612b26578082015181840152602081019050612b0b565b60008484015250505050565b6000612b3d82612afd565b612b4781856124e4565b9350612b57818560208601612b08565b612b60816125a5565b840191505092915050565b60006060820190508181036000830152612b858186612b32565b9050612b946020830185612a58565b612ba16040830184612a58565b949350505050565b6000602082019050612bbe6000830184612a58565b92915050565b60006040820190508181036000830152612bde8185612b32565b90508181036020830152612bf28184612b32565b90509392505050565b60006020820190508181036000830152612c158184612b32565b905092915050565b600060208284031215612c3357612c32612591565b5b6000612c41848285016127e3565b91505092915050565b60008060408385031215612c6157612c60612591565b5b600083013567ffffffffffffffff811115612c7f57612c7e612596565b5b612c8b858286016126b3565b925050602083013567ffffffffffffffff811115612cac57612cab612596565b5b612cb8858286016126b3565b9150509250929050565b612ccb816127ba565b82525050565b6000602082019050612ce66000830184612cc2565b92915050565b600080600060608486031215612d0557612d04612591565b5b600084013567ffffffffffffffff811115612d2357612d22612596565b5b612d2f868287016126b3565b9350506020612d4086828701612702565b9250506040612d5186828701612702565b9150509250925092565b7f536f6c6f207065726d697469646f20616c20636f6f7264696e61646f72000000600082015250565b6000612d91601d836124e4565b9150612d9c82612d5b565b602082019050919050565b60006020820190508181036000830152612dc081612d84565b9050919050565b7f536f6c6f207065726d697469646f207369206c6120617369676e61747572612060008201527f6e6f206573746120636572726164610000000000000000000000000000000000602082015250565b6000612e23602f836124e4565b9150612e2e82612dc7565b604082019050919050565b60006020820190508181036000830152612e5281612e16565b9050919050565b7f4e487b7100000000000000000000000000000000000000000000000000000000600052603260045260246000fd5b7f4e487b7100000000000000000000000000000000000000000000000000000000600052602260045260246000fd5b60006002820490506001821680612ecf57607f821691505b602082108103612ee257612ee1612e88565b5b50919050565b60008190508160005260206000209050919050565b60006020601f8301049050919050565b600082821b905092915050565b600060088302612f4a7fffffffffffffffffffffffffffffffffffffffffffffffffffffffffffffffff82612f0d565b612f548683612f0d565b95508019841693508086168417925050509392505050565b6000819050919050565b6000612f91612f8c612f87846126e1565b612f6c565b6126e1565b9050919050565b6000819050919050565b612fab83612f76565b612fbf612fb782612f98565b848454612f1a565b825550505050565b600090565b612fd4612fc7565b612fdf818484612fa2565b505050565b5b8181101561300357612ff8600082612fcc565b600181019050612fe5565b5050565b601f8211156130485761301981612ee8565b61302284612efd565b81016020851015613031578190505b61304561303d85612efd565b830182612fe4565b50505b505050565b600082821c905092915050565b600061306b6000198460080261304d565b1980831691505092915050565b6000613084838361305a565b9150826002028217905092915050565b61309d82612afd565b67ffffffffffffffff8111156130b6576130b56125b6565b5b6130c08254612eb7565b6130cb828285613007565b600060209050601f8311600181146130fe57600084156130ec578287015190505b6130f68582613078565b86555061315e565b601f19841661310c86612ee8565b60005b828110156131345784890151825560018201915060208501945060208101905061310f565b86831015613151578489015161314d601f89168261305a565b8355505b6001600288020188555050505b505050505050565b7f536f6c6f207065726d697469646f206120616c756d6e6f73206e6f206d61747260008201527f6963756c61646f73000000000000000000000000000000000000000000000000602082015250565b60006131c26028836124e4565b91506131cd82613166565b604082019050919050565b600060208201905081810360008301526131f1816131b5565b9050919050565b7f536f6c6f207065726d697469646f20616c206f776e6572000000000000000000600082015250565b600061322e6017836124e4565b9150613239826131f8565b602082019050919050565b6000602082019050818103600083015261325d81613221565b9050919050565b7f456c206e6f6d627265206e6f2070756564652073657220766163696f00000000600082015250565b600061329a601c836124e4565b91506132a582613264565b602082019050919050565b600060208201905081810360008301526132c98161328d565b9050919050565b7f4573652070726f6665736f72207961206861207369646f206164646564000000600082015250565b6000613306601d836124e4565b9150613311826132d0565b602082019050919050565b60006020820190508181036000830152613335816132f9565b9050919050565b7f456c206e6f6d6272652064656c2070726f6665736f72206e6f2070756564652060008201527f657374617220766163696f000000000000000000000000000000000000000000602082015250565b6000613398602b836124e4565b91506133a38261333c565b604082019050919050565b600060208201905081810360008301526133c78161338b565b9050919050565b7f536f6c6f207065726d697469646f20616c2070726f6665736f72206f20636f6f60008201527f7264696e61646f72000000000000000000000000000000000000000000000000602082015250565b600061342a6028836124e4565b9150613435826133ce565b604082019050919050565b600060208201905081810360008301526134598161341d565b9050919050565b7f536f6c6f2073652070756564656e2063616c696669636172206120756e20616c60008201527f756d6e6f206d6174726963756c61646f2e000000000000000000000000000000602082015250565b60006134bc6031836124e4565b91506134c782613460565b604082019050919050565b600060208201905081810360008301526134eb816134af565b9050919050565b7f4e6f2073652070756564652063616c69666963617220756e61206576616c756160008201527f63696f6e20717565206e6f206578697374652e00000000000000000000000000602082015250565b600061354e6033836124e4565b9150613559826134f2565b604082019050919050565b6000602082019050818103600083015261357d81613541565b9050919050565b7f4e6f2073652070756564652063616c69666963617220636f6e20756e61206e6f60008201527f7461207375706572696f722061206c61206d6178696d61207065726d6974696460208201527f612e000000000000000000000000000000000000000000000000000000000000604082015250565b60006136066042836124e4565b915061361182613584565b606082019050919050565b60006020820190508181036000830152613635816135f9565b9050919050565b7f536f6c6f207065726d697469646f206120616c756d6e6f73206d61747269637560008201527f6c61646f73000000000000000000000000000000000000000000000000000000602082015250565b60006136986025836124e4565b91506136a38261363c565b604082019050919050565b600060208201905081810360008301526136c78161368b565b9050919050565b7f456c20696e64696365206465206c61206576616c756163696f6e206e6f20657860008201527f697374652e000000000000000000000000000000000000000000000000000000602082015250565b600061372a6025836124e4565b9150613735826136ce565b604082019050919050565b600060208201905081810360008301526137598161371d565b9050919050565b7f456c206e6f6d627265206465206c61206576616c756163696f6e206e6f20707560008201527f6564652073657220766163696f00000000000000000000000000000000000000602082015250565b60006137bc602d836124e4565b91506137c782613760565b604082019050919050565b600060208201905081810360008301526137eb816137af565b9050919050565b7f4e487b7100000000000000000000000000000000000000000000000000000000600052601160045260246000fd5b600061382c826126e1565b9150613837836126e1565b925082820390508181111561384f5761384e6137f2565b5b92915050565b6000613860826126e1565b91507fffffffffffffffffffffffffffffffffffffffffffffffffffffffffffffffff8203613892576138916137f2565b5b600182019050919050565b60006138a8826126e1565b91506138b3836126e1565b92508282026138c1816126e1565b915082820484148315176138d8576138d76137f2565b5b5092915050565b7f4e487b7100000000000000000000000000000000000000000000000000000000600052601260045260246000fd5b6000613919826126e1565b9150613924836126e1565b925082613934576139336138df565b5b828204905092915050565b600061394a826126e1565b9150613955836126e1565b925082820190508082111561396d5761396c6137f2565b5b9291505056fea26469706673582212202c017698084e88de471c02d461ea6b181582bf94f3e24f55b235517ce8d01f1a64736f6c63430008110033",
  "immutableReferences": {},
  "source": "// SPDX-License-Identifier: UNLICENSED\npragma solidity ^0.8.16;\n\n/**\n * El contrato Asignatura que representa una asignatura de la carrera.\n *\n * Version Lite\n */\ncontract Asignatura {\n    /// Version 2022 Lite - Teoria\n    string public version = \"2022 Lite\";\n    /**\n     * address del profesor que ha desplegado el contrato.\n     * El contrato lo despliega el profesor.\n     */\n    address public profesor;\n\n    // Array con las direcciones de los profesores aadidos\n    address[] public profesores;\n\n    // Acceder al nombre de un profesor dada su direccin\n    mapping(address => string) public datosProfesor;\n\n    // Direccin del owner\n    address public owner;\n\n    /// Nombre de la asignatura\n    string public nombre;\n\n    /// Curso academico\n    string public curso;\n\n    // Coordinador de la asignatura\n    address public coordinador;\n\n    // Coordinador de la asignatura\n    bool public cerrada;\n\n    /// Datos de un alumno.\n    struct DatosAlumno {\n        string nombre;\n        string email;\n    }\n\n    /// Acceder a los datos de un alumno dada su direccion.\n    mapping(address => DatosAlumno) public datosAlumno;\n\n    // Array con las direcciones de los alumnos matriculados.\n    address[] public matriculas;\n\n    /**\n     * Datos de una evaluacion.\n     */\n    struct Evaluacion {\n        string nombre;\n        uint256 fecha;\n        uint256 porcentaje;\n    }\n\n    /// Evaluaciones de la asignatura.\n    Evaluacion[] public evaluaciones;\n\n    /// Tipos de notas: sin usar, no presentado, y nota normal entre 0 y 1000.\n    enum TipoNota {\n        Empty,\n        NP,\n        Normal\n    }\n\n    /**\n     * Datos de una nota.\n     * La calificacion esta multiplicada por 100 porque no hay decimales.\n     */\n    struct Nota {\n        TipoNota tipo;\n        uint256 calificacion;\n    }\n\n    // Dada la direccion de un alumno, y el indice de la evaluacion, devuelve\n    // la nota del alumno.\n    mapping(address => mapping(uint256 => Nota)) public calificaciones;\n\n    /**\n     * Constructor.\n     *\n     * @param _nombre Nombre de la asignatura.\n     * @param _curso Curso academico.\n     */\n    constructor(string memory _nombre, string memory _curso) {\n        require(\n            bytes(_nombre).length != 0,\n            \"El nombre de la asignatura no puede ser vacio\"\n        );\n        require(\n            bytes(_curso).length != 0,\n            \"El curso academico de la asignatura no puede ser vacio\"\n        );\n\n        owner = msg.sender;\n        nombre = _nombre;\n        curso = _curso;\n    }\n\n    // Asignar la adireccin del usuario coordinador\n    function setCoordinador(address addr) public soloOwner soloAbierta {\n        coordinador = addr;\n    }\n\n    // Cerrar la asignatura\n    function cerrar() public soloCoordinador {\n        cerrada = true;\n    }\n\n    // Aadir un profesor nuevo. Impedir que se pueda meter un nombre vaco\n    function addProfesor(address _addr, string memory _nombre)\n        public\n        soloOwner\n        soloAbierta\n    {\n        require(\n            bytes(datosProfesor[_addr]).length == 0,\n            \"Ese profesor ya ha sido added\"\n        );\n        require(\n            bytes(_nombre).length != 0,\n            \"El nombre del profesor no puede estar vacio\"\n        );\n\n        datosProfesor[_addr] = _nombre;\n        profesores.push(_addr);\n    }\n\n    // Devolver nmero de profesores aadidos\n    function profesoresLength() public view returns (uint256) {\n        return profesores.length;\n    }\n\n    /**\n     * Los alumnos pueden automatricularse con el metodo automatricula.\n     *\n     * Impedir que se pueda meter un nombre vacio.\n     *\n     * @param _nombre El nombre del alumno.\n     * @param _email El email del alumno.\n     */\n    function automatricula(string memory _nombre, string memory _email)\n        public\n        soloNoMatriculados\n    {\n        require(bytes(_nombre).length != 0, \"El nombre no puede ser vacio\");\n        DatosAlumno memory datos = DatosAlumno(_nombre, _email);\n        datosAlumno[msg.sender] = datos;\n        matriculas.push(msg.sender);\n    }\n\n    /**\n     * El owner puede matricular a los alumnos\n     *\n     * Impedir que se pueda meter un nombre vacio.\n     *\n     * @param _nombre El nombre del alumno.\n     * @param _email El email del alumno.\n     * @param _addr La direccin del alumno.\n     */\n    function matriculaDir(\n        string memory _nombre,\n        string memory _email,\n        address _addr\n    ) public soloNoMatriculados soloOwner {\n        require(bytes(_nombre).length != 0, \"El nombre no puede ser vacio\");\n        DatosAlumno memory datos = DatosAlumno(_nombre, _email);\n        datosAlumno[_addr] = datos;\n        matriculas.push(_addr);\n    }\n\n    /**\n     * El numero de alumnos matriculados.\n     *\n     * @return El numero de alumnos matriculados.\n     */\n    function matriculasLength() public view returns (uint256) {\n        return matriculas.length;\n    }\n\n    /**\n     * Permite a un alumno obtener sus propios datos.\n     *\n     * @return _nombre El nombre del alumno que invoca el metodo.\n     * @return _email El email del alumno que invoca el metodo.\n     */\n    function quienSoy()\n        public\n        view\n        soloMatriculados\n        returns (string memory _nombre, string memory _email)\n    {\n        DatosAlumno memory datos = datosAlumno[msg.sender];\n        _nombre = datos.nombre;\n        _email = datos.email;\n    }\n\n    /**\n * Crear una prueba de evaluacion de la asignatura. Por ejemplo, el primer parcial, o la practica 3.\n *\n * Las evaluaciones se meteran en el array evaluaciones, y nos referiremos a ellas por su posicion en el\narray.\n *\n * @param _nombre El nombre de la evaluacion.\n * @param _fecha La fecha de evaluacion (segundos desde el 1/1/1970).\n * @param _porcentaje El porcentaje de puntos que proporciona a la nota final.\n *\n * @return La posicion en el array evaluaciones,\n */\n    function creaEvaluacion(\n        string memory _nombre,\n        uint256 _fecha,\n        uint256 _porcentaje\n    ) public soloCoordinador soloAbierta returns (uint256) {\n        require(\n            bytes(_nombre).length != 0,\n            \"El nombre de la evaluacion no puede ser vacio\"\n        );\n\n        evaluaciones.push(Evaluacion(_nombre, _fecha, _porcentaje));\n        return evaluaciones.length - 1;\n    }\n\n    /**\n * Modifica una prueba de evaluacion de la asignatura. Por ejemplo, el primer parcial, o la practica 3.\n *\n * Las evaluaciones se meteran en el array evaluaciones, y nos referiremos a ellas por su posicion en el\narray.\n *\n * @param _nombre El nombre de la evaluacion.\n * @param _fecha La fecha de evaluacion (segundos desde el 1/1/1970).\n * @param _porcentaje El porcentaje de puntos que proporciona a la nota final.\n * @param _index El indice de evaluacion\n */\n    function modificaEvaluacion(\n        string memory _nombre,\n        uint256 _fecha,\n        uint256 _porcentaje,\n        uint256 _index\n    ) public soloCoordinador soloAbierta {\n        Evaluacion memory ev = Evaluacion(_nombre, _fecha, _porcentaje);\n        evaluaciones[_index] = ev;\n    }\n\n    /*       function DevolverEvaluacion(uint256 _index) public soloCoordinador soloAbierta returns (string memory _nombre, uint256 _fecha, uint256 _porcentaje) {\n \n\n        Evaluacion memory ev = evaluaciones[_index];\n        _nombre = ev.nombre;\n        _fecha = ev.fecha;\n        _porcentaje = ev.porcentaje;\n\n        return (_nombre, _fecha, _porcentaje);\n    }\n\n*/\n\n    /**\n     * El numero de evaluaciones creadas.\n     *\n     * @return El numero de evaluaciones creadas.\n     */\n    function evaluacionesLength() public view returns (uint256) {\n        return evaluaciones.length;\n    }\n\n    /**\n     * Poner la nota de un alumno en una evaluacion.\n     *\n     * @param alumno La direccion del alumno.\n     * @param evaluacion El indice de una evaluacion en el array evaluaciones.\n     * @param tipo Tipo de nota.\n     * @param calificacion La calificacion, multipilicada por 100 porque no hay decimales.\n     */\n    function califica(\n        address alumno,\n        uint256 evaluacion,\n        TipoNota tipo,\n        uint256 calificacion\n    ) public soloProfesor_o_soloCoordinador soloAbierta {\n        require(\n            estaMatriculado(alumno),\n            \"Solo se pueden calificar a un alumno matriculado.\"\n        );\n        require(\n            evaluacion < evaluaciones.length,\n            \"No se puede calificar una evaluacion que no existe.\"\n        );\n        require(\n            calificacion <= 1000,\n            \"No se puede calificar con una nota superior a la maxima permitida.\"\n        );\n        Nota memory nota = Nota(tipo, calificacion);\n\n        calificaciones[alumno][evaluacion] = nota;\n    }\n\n    /**\n * Devuelve el tipo de nota y la calificacion que ha sacado el alumno que invoca el metodo en la evaluacion\npasada como parametro.\n *\n * @param evaluacion Indice de una evaluacion en el array de evaluaciones.\n *\n * @return tipo El tipo de nota que ha sacado el alumno.\n * @return calificacion La calificacion que ha sacado el alumno.\n */\n    function miNota(uint256 evaluacion)\n        public\n        view\n        soloMatriculados\n        returns (TipoNota tipo, uint256 calificacion)\n    {\n        require(\n            evaluacion < evaluaciones.length,\n            \"El indice de la evaluacion no existe.\"\n        );\n\n        Nota memory nota = calificaciones[msg.sender][evaluacion];\n\n        tipo = nota.tipo;\n        calificacion = nota.calificacion;\n    }\n\n    /*\n     * Devuelve el tipo de nota y la calificacion que ha sacado de la direccion del alumno.\n     *\n     * @param evaluacion Indice de una evaluacion en el array de evaluaciones.\n     * @param _direccion\n     * @return tipo El tipo de nota que ha sacado el alumno.\n     * @return calificacion La calificacion que ha sacado el alumno.\n     */\n    function miNotaDir(uint256 evaluacion, address _direccion)\n        public\n        view\n        soloMatriculados\n        returns (TipoNota tipo, uint256 calificacion)\n    {\n        require(\n            evaluacion < evaluaciones.length,\n            \"El indice de la evaluacion no existe.\"\n        );\n\n        Nota memory nota = calificaciones[_direccion][evaluacion];\n\n        tipo = nota.tipo;\n        calificacion = nota.calificacion;\n    }\n\n    // Devuelve la nota final del alumno que llama al mtodo\n    // Si el tipo de nota de alguna de las evaluaciones es \"Empty\" no se le ha asignado la calificacin y el mtodo devuelve (Empty, 0)\n    // Si todas las calificaciones son NP, devuelve (NP, 0)\n    // Si la nota final es superior a 400 y hay alguna evaluacin NP, entonces devuelve como mximo 499\n    function miNotaFinal()\n        public\n        view\n        soloMatriculados\n        returns (TipoNota tipo, uint256 calificacion)\n    {\n        return _notaFinal(msg.sender);\n    }\n\n    //Devuelve la nota final del alumno indicado\n    function notaFinal(address _addr)\n        public\n        view\n        soloProfesor_o_soloCoordinador\n        returns (TipoNota tipo, uint256 calificacion)\n    {\n        return _notaFinal(_addr);\n    }\n\n\n    function _notaFinal(address _addr)\n        private\n        view\n        returns (TipoNota tipo, uint256 calificacion)\n    {\n        tipo = TipoNota.NP;\n\n        for (uint256 i = 0; i < evaluaciones.length; i++) {\n            if (calificaciones[_addr][i].tipo == TipoNota.Empty) {\n                return (TipoNota.Empty, 0);\n            }\n            if (calificaciones[_addr][i].tipo == TipoNota.Normal) {\n                tipo = TipoNota.Normal;\n                continue;\n            }\n        }\n        if (tipo == TipoNota.NP) {\n            return (tipo, 0);\n        }\n\n        bool suspenso = false;\n        uint256 nota = 0;\n\n        for (uint256 i = 0; i < evaluaciones.length; i++) {\n            // if (\n            //     calificaciones[_addr][i].calificacion < evaluaciones[i].minimo\n            // ) {\n            //     suspenso = true;\n            // }\n            nota +=\n                (calificaciones[_addr][i].calificacion *\n                    evaluaciones[i].porcentaje) /\n                100;\n        }\n        if (suspenso && nota > 499) {\n            nota = 499;\n        }\n        tipo = TipoNota.Normal;\n        calificacion = nota;\n    }\n\n    /**\n     * Consulta si una direccion pertenece a un alumno matriculado.\n     *\n     * @param alumno La direccion de un alumno.\n     *\n     * @return true si es una alumno matriculado.\n     */\n    function estaMatriculado(address alumno) private view returns (bool) {\n        string memory _nombre = datosAlumno[alumno].nombre;\n\n        return bytes(_nombre).length != 0;\n    }\n\n    // Modificador para que una funcin solo la pueda ejecutar el owner\n    modifier soloOwner() {\n        require(msg.sender == owner, \"Solo permitido al owner\");\n        _;\n    }\n\n    // Modificador para que una funcin solo la pueda ejecutar el coordinador\n    modifier soloCoordinador() {\n        require(msg.sender == coordinador, \"Solo permitido al coordinador\");\n        _;\n    }\n\n    // Modificador para que una funcin solo la pueda ejecutar el profesor\n    modifier soloProfesor() {\n        string memory _nombre = datosProfesor[msg.sender];\n        require(bytes(_nombre).length != 0, \"Solo permitido al profesor\");\n        _;\n    }\n\n    // Modificador para que una funcin solo la pueda ejecutar el profesor o coordinador\n    modifier soloProfesor_o_soloCoordinador() {\n        string memory _nombre = datosProfesor[msg.sender];\n        require(\n            (bytes(_nombre).length != 0) || msg.sender == coordinador,\n            \"Solo permitido al profesor o coordinador\"\n        );\n        _;\n    }\n\n    /**\n     * Modificador para que una funcion solo la pueda ejecutar un alumno matriculado.\n     */\n    modifier soloMatriculados() {\n        require(\n            estaMatriculado(msg.sender),\n            \"Solo permitido a alumnos matriculados\"\n        );\n        _;\n    }\n\n    /**\n     * Modificador para que una funcion solo la pueda ejecutar un alumno no matriculado aun.\n     */\n    modifier soloNoMatriculados() {\n        require(\n            !estaMatriculado(msg.sender),\n            \"Solo permitido a alumnos no matriculados\"\n        );\n        _;\n    }\n\n    // Modificador para que una funcin solo la pueda ejecutar si la asignatura no est cerrada\n    modifier soloAbierta() {\n        require(!cerrada, \"Solo permitido si la asignatura no esta cerrada\");\n        _;\n    }\n\n    /**\n     * No se permite la recepcion de dinero.\n     */\n    receive() external payable {\n        revert(\"No se permite la recepcion de dinero.\");\n    }\n}\n",
  "sourcePath": "/home/kali/Desktop/BCDA /Asignatura/Asignatura/truffle/contracts/Asignatura.sol",
  "compiler": {
    "name": "solc",
    "version": "0.8.17+commit.8df45f5f.Emscripten.clang"
  },
  "schemaVersion": "3.4.11",
  "updatedAt": "2023-01-06T13:09:39.348Z",
  "networkType": "ethereum",
  "devdoc": {
    "kind": "dev",
    "methods": {
      "automatricula(string,string)": {
        "params": {
          "_email": "El email del alumno.",
          "_nombre": "El nombre del alumno."
        }
      },
      "califica(address,uint256,uint8,uint256)": {
        "params": {
          "alumno": "La direccion del alumno.",
          "calificacion": "La calificacion, multipilicada por 100 porque no hay decimales.",
          "evaluacion": "El indice de una evaluacion en el array evaluaciones.",
          "tipo": "Tipo de nota."
        }
      },
      "constructor": {
        "params": {
          "_curso": "Curso academico.",
          "_nombre": "Nombre de la asignatura."
        }
      },
      "creaEvaluacion(string,uint256,uint256)": {
        "params": {
          "_fecha": "La fecha de evaluacion (segundos desde el 1/1/1970).",
          "_nombre": "El nombre de la evaluacion.",
          "_porcentaje": "El porcentaje de puntos que proporciona a la nota final."
        },
        "returns": {
          "_0": "La posicion en el array evaluaciones,"
        }
      },
      "evaluacionesLength()": {
        "returns": {
          "_0": "El numero de evaluaciones creadas."
        }
      },
      "matriculaDir(string,string,address)": {
        "params": {
          "_addr": "La direccin del alumno.",
          "_email": "El email del alumno.",
          "_nombre": "El nombre del alumno."
        }
      },
      "matriculasLength()": {
        "returns": {
          "_0": "El numero de alumnos matriculados."
        }
      },
      "miNota(uint256)": {
        "params": {
          "evaluacion": "Indice de una evaluacion en el array de evaluaciones."
        },
        "returns": {
          "calificacion": "La calificacion que ha sacado el alumno.",
          "tipo": "El tipo de nota que ha sacado el alumno."
        }
      },
      "modificaEvaluacion(string,uint256,uint256,uint256)": {
        "params": {
          "_fecha": "La fecha de evaluacion (segundos desde el 1/1/1970).",
          "_index": "El indice de evaluacion",
          "_nombre": "El nombre de la evaluacion.",
          "_porcentaje": "El porcentaje de puntos que proporciona a la nota final."
        }
      },
      "quienSoy()": {
        "returns": {
          "_email": "El email del alumno que invoca el metodo.",
          "_nombre": "El nombre del alumno que invoca el metodo."
        }
      }
    },
    "version": 1
  },
  "userdoc": {
    "kind": "user",
    "methods": {
      "automatricula(string,string)": {
        "notice": "Los alumnos pueden automatricularse con el metodo automatricula. Impedir que se pueda meter un nombre vacio."
      },
      "califica(address,uint256,uint8,uint256)": {
        "notice": "Poner la nota de un alumno en una evaluacion."
      },
      "constructor": {
        "notice": "Constructor."
      },
      "creaEvaluacion(string,uint256,uint256)": {
        "notice": "Crear una prueba de evaluacion de la asignatura. Por ejemplo, el primer parcial, o la practica 3. Las evaluaciones se meteran en el array evaluaciones, y nos referiremos a ellas por su posicion en el array."
      },
      "curso()": {
        "notice": "Curso academico"
      },
      "datosAlumno(address)": {
        "notice": "Acceder a los datos de un alumno dada su direccion."
      },
      "evaluaciones(uint256)": {
        "notice": "Evaluaciones de la asignatura."
      },
      "evaluacionesLength()": {
        "notice": "El numero de evaluaciones creadas."
      },
      "matriculaDir(string,string,address)": {
        "notice": "El owner puede matricular a los alumnos Impedir que se pueda meter un nombre vacio."
      },
      "matriculasLength()": {
        "notice": "El numero de alumnos matriculados."
      },
      "miNota(uint256)": {
        "notice": "Devuelve el tipo de nota y la calificacion que ha sacado el alumno que invoca el metodo en la evaluacion pasada como parametro."
      },
      "modificaEvaluacion(string,uint256,uint256,uint256)": {
        "notice": "Modifica una prueba de evaluacion de la asignatura. Por ejemplo, el primer parcial, o la practica 3. Las evaluaciones se meteran en el array evaluaciones, y nos referiremos a ellas por su posicion en el array."
      },
      "nombre()": {
        "notice": "Nombre de la asignatura"
      },
      "profesor()": {
        "notice": "address del profesor que ha desplegado el contrato. El contrato lo despliega el profesor."
      },
      "quienSoy()": {
        "notice": "Permite a un alumno obtener sus propios datos."
      },
      "version()": {
        "notice": "Version 2022 Lite - Teoria"
      }
    },
    "notice": "El contrato Asignatura que representa una asignatura de la carrera. Version Lite",
    "version": 1
  }
}